:020000040000fa
:080000000002040000000000f2
:020000040000fa
:04000800d803000019
:020000040000fa
:04000c001a040000d2
:020000040000fa
:040010007a0400006e
:020000040000fa
:04001400f8030000ed
:020000040000fa
:040018003a040000a6
:020000040000fa
:04001c005a04000082
:020000040000fa
:040020009a0400003e
:020000040000fa
:04002400c60400000e
:020000040000fa
:04002800c60400000a
:020000040000fa
:04002c00c604000006
:020000040000fa
:04003000c604000002
:020000040000fa
:04003400c6040000fe
:020000040000fa
:04003800c6040000fa
:020000040000fa
:04003c00c6040000f6
:020000040000fa
:04004000c6040000f2
:020000040000fa
:04004400c6040000ee
:020000040000fa
:04004800c6040000ea
:020000040000fa
:04004c00c6040000e6
:020000040000fa
:04005000c6040000e2
:020000040000fa
:04005400c6040000de
:020000040000fa
:04005800c6040000da
:020000040000fa
:04005c00c6040000d6
:020000040000fa
:04006000c6040000d2
:020000040000fa
:04006400c6040000ce
:020000040000fa
:04006800ba030000d7
:020000040000fa
:04006c009c030000f1
:020000040000fa
:04007000c6040000c2
:020000040000fa
:04007400c6040000be
:020000040000fa
:04007800c6040000ba
:020000040000fa
:04007c00c6040000b6
:020000040000fa
:04008000c6040000b2
:020000040000fa
:04008400c6040000ae
:020000040000fa
:04008800c6040000aa
:020000040000fa
:04008c00c6040000a6
:020000040000fa
:04009000c6040000a2
:020000040000fa
:04009400c60400009e
:020000040000fa
:04009800c60400009a
:020000040000fa
:04009c00c604000096
:020000040000fa
:0400a000c604000092
:020000040000fa
:0400a400c60400008e
:020000040000fa
:0400a800c60400008a
:020000040000fa
:0400ac00c604000086
:020000040000fa
:0400b000c604000082
:020000040000fa
:0400b4006a030000db
:020000040000fa
:0400b800c60400007a
:020000040000fa
:0400bc00c604000076
:020000040000fa
:0400c000c604000072
:020000040000fa
:0400c400c60400006e
:020000040000fa
:0400c800c60400006a
:020000040000fa
:0400cc00c604000066
:020000040000fa
:0400d000c604000062
:020000040000fa
:0400d400c60400005e
:020000040000fa
:0400d800c60400005a
:020000040000fa
:0400dc00c604000056
:020000040000fa
:0400e000c604000052
:020000040000fa
:0400e400c60400004e
:020000040000fa
:0400e800c60400004a
:020000040000fa
:0400ec00c604000046
:020000040000fa
:0400f000c604000042
:020000040000fa
:0400f400c60400003e
:020000040000fa
:0400f800c60400003a
:020000040000fa
:0400fc00c604000036
:020000040000fa
:04010000c604000031
:020000040000fa
:04010400c60400002d
:020000040000fa
:04010800c604000029
:020000040000fa
:04010c00c604000025
:020000040000fa
:04011000c604000021
:020000040000fa
:04011400c60400001d
:020000040000fa
:04011800c604000019
:020000040000fa
:04011c00c604000015
:020000040000fa
:04012000c604000011
:020000040000fa
:04012400c60400000d
:020000040000fa
:04012800c604000009
:020000040000fa
:04012c00c604000005
:020000040000fa
:04013000c604000001
:020000040000fa
:04013400c6040000fd
:020000040000fa
:04013800c6040000f9
:020000040000fa
:04013c00c6040000f5
:020000040000fa
:04014000c6040000f1
:020000040000fa
:04014400c6040000ed
:020000040000fa
:04014800c6040000e9
:020000040000fa
:04014c00c6040000e5
:020000040000fa
:04015000c6040000e1
:020000040000fa
:04015400c6040000dd
:020000040000fa
:04015800c6040000d9
:020000040000fa
:04015c00c6040000d5
:020000040000fa
:04016000c6040000d1
:020000040000fa
:04016400c6040000cd
:020000040000fa
:04016800c6040000c9
:020000040000fa
:04016c00c6040000c5
:020000040000fa
:04017000c6040000c1
:020000040000fa
:04017400c6040000bd
:020000040000fa
:04017800c6040000b9
:020000040000fa
:04017c00c6040000b5
:020000040000fa
:04018000c6040000b1
:020000040000fa
:04018400c6040000ad
:020000040000fa
:04018800c6040000a9
:020000040000fa
:04018c00c6040000a5
:020000040000fa
:04019000c6040000a1
:020000040000fa
:04019400c60400009d
:020000040000fa
:04019800c604000099
:020000040000fa
:04019c00c604000095
:020000040000fa
:0401a000c604000091
:020000040000fa
:0401a400c60400008d
:020000040000fa
:0401a800c604000089
:020000040000fa
:0401ac00c604000085
:020000040000fa
:0401b000c604000081
:020000040000fa
:0401b400c60400007d
:020000040000fa
:0401b800c604000079
:020000040000fa
:0401bc00c604000075
:020000040000fa
:0401c000c604000071
:020000040000fa
:0401c400c60400006d
:020000040000fa
:0401c800c604000069
:020000040000fa
:0401cc00c604000065
:020000040000fa
:0401d000c604000061
:020000040000fa
:0401d400c60400005d
:020000040000fa
:0401d800c604000059
:020000040000fa
:0401dc00c604000055
:020000040000fa
:0401e000c604000051
:020000040000fa
:0401e400c60400004d
:020000040000fa
:0401e800c604000049
:020000040000fa
:0401ec00c604000045
:020000040000fa
:0401f000c604000041
:020000040000fa
:0401f400c60400003d
:020000040000fa
:0401f800c604000039
:020000040000fa
:0401fc00c604000035
:020000040000fa
:04020000c604000030
:020000040000fa
:04020400c60400002c
:020000040000fa
:04020800c604000028
:020000040000fa
:04020c00c604000024
:020000040000fa
:04021000c604000020
:020000040000fa
:04021400c60400001c
:020000040000fa
:04021800c604000018
:020000040000fa
:04021c00c604000014
:020000040000fa
:04022000c604000010
:020000040000fa
:04022400c60400000c
:020000040000fa
:04022800c604000008
:020000040000fa
:04022c00c604000004
:020000040000fa
:04023000c604000000
:020000040000fa
:04023400c6040000fc
:020000040000fa
:04023800c6040000f8
:020000040000fa
:04023c00c6040000f4
:020000040000fa
:04024000c6040000f0
:020000040000fa
:04024400c6040000ec
:020000040000fa
:04024800c6040000e8
:020000040000fa
:04024c00c6040000e4
:020000040000fa
:04025000c6040000e0
:020000040000fa
:04025400c6040000dc
:020000040000fa
:04025800c6040000d8
:020000040000fa
:04025c00c6040000d4
:020000040000fa
:04026000c6040000d0
:020000040000fa
:04026400c6040000cc
:020000040000fa
:10040000af2f21000ebf27000e0188000000000062
:10041000000020000000e000020032000001200087
:1004200020028800140007005a0107000000e000c5
:1004300003003a00a08825000100200002003700d8
:100440000000200001002000810f70000100320038
:100450000f000700000020000000e0000200320052
:100460000000020000000000f65902000000000039
:100470000040da000000fe00a00c20000000e000b8
:1004800002003200002020009001880000000600d9
:10049000a1028800800478000000eb001f003700f4
:1004a000e284440054a0b4009905ba00e2844400f8
:1004b00054a0b4009906ba00e284440054a0b400e9
:1004c0000006eb00476fde00fd07b200ae018800ba
:1004d000636ce10003003a000ad801000000eb0061
:1004e0000e003700606ce10008003a00004deb00a0
:1004f0000a05e800020039003420ec000af0a000f0
:100500008b05e900f9ff3e00040037006168e10057
:10051000010032000086eb000b00070019c7ba008b
:100520000e04e0001905ba0003003a000a00e000da
:10053000dbff3a0000000600fe07b200ae028800b2
:100540008a047800f5ff37000cd0a300e20f4d00bd
:100550001c003b0089027800354dba000a05e8000e
:10056000020039003420ec000af0a0008b05e900fd
:100570000f003200254dba000a05e80002003900dc
:100580003420ec000af0a0008b05e90008003200de
:100590000c00e0000600320015cdba000a05e800a4
:1005a000020039003420ec000af0a0008b05e900bd
:1005b0008984e80054a0b4000b00e000e2ff3a0098
:1005c000000006009902ba00055d78008b05e9007d
:1005d000f7ff3200c82ade00055d78008b05e900d0
:1005e000f3ff32000c00e000f1ff320019ddba0029
:1005f000eeff3700c044040000000000ca440400bd
:1006000000000000b8440400000000009044040012
:1006100000000000f4420400000000001e4304003b
:100620000000000058430400000000007443040070
:1006300000000000da43040000000000264404002b
:10064000000000008a43040000000000644404002d
:100650000000000030430400000000003a430400a2
:100660000000000044430400000000004e4304006a
:10067000000000009a43040000000000a4430400ae
:1006800000000000ae430400000000000a43040024
:1006900000000000b8430400000000006e52040097
:1006a00000000000d25b040000000000e4520400df
:1006b000000000004c530400000000009a530400a6
:1006c00000000000e453040000000000c6330400f2
:1006d000000000003600f800809fbe00829fbe0030
:1006e000849fbe00869fbe000000fa00512080005b
:1006f00000042000008060000000e00006003200de
:10070000d08380000000e00002003200d08380002f
:10071000000001000ac4a9000468a9000080fa00d2
:100720004f03be004f02be004f01be004f00be008f
:100730003600f900004006003600f800809fbe0039
:10074000829fbe00849fbe00869fbe000000fa000c
:10075000b0838000000001000080fa004f03be005b
:100760004f02be004f01be004f00be003600f90030
:10077000004006003600f800809fbe00829fbe0049
:10078000849fbe00869fbe000000fa00c0838000e8
:10079000000001000080fa004f03be004f02be00bf
:1007a0004f01be004f00be003600f90000400600b9
:1007b0003600f800809fbe00829fbe00849fbe006e
:1007c000869fbe000000fa00c028a9000000eb00d0
:1007d000192c07000080fa004f03be004f02be0034
:1007e0004f01be004f00be003600f9000040060079
:1007f0003600f800809fbe00829fbe00849fbe002e
:10080000869fbe000000fa00102c0700c048a90017
:1008100010002000082c07000080fa004f03be00e3
:100820004f02be004f01be004f00be003600f9006f
:10083000004006003600f800809fbe00829fbe0088
:10084000849fbe00869fbe000000fa00c068a90019
:1008500020002000f82b07000080fa004f03be00a4
:100860004f02be004f01be004f00be003600f9002f
:10087000004006003600f800809fbe00829fbe0048
:10088000849fbe00869fbe000000fa00c088a900b9
:1008900030002000e82b07000080fa004f03be0064
:1008a0004f02be004f01be004f00be003600f900ef
:1008b000004006003600f800809fbe00829fbe0008
:1008c000849fbe00869fbe000000fa00c0a8a90059
:1008d00040002000d82b07000080fa004f03be0024
:1008e0004f02be004f01be004f00be003600f900af
:1008f000004006003600f800809fbe00829fbe00c8
:10090000849fbe00869fbe000000fa00c608a900b2
:1009100070002000c82b07000080fa004f03be00c3
:100920004f02be004f01be004f00be003600f9006e
:10093000004006003600f800809fbe00829fbe0087
:10094000849fbe00869fbe000000fa002146800002
:1009500000022000008060000000e0000300320080
:10096000c4a8a90090002000b32b070020468000f7
:10097000700060000000e00003003200c488a9009d
:10098000a0002000ac2b0700ffff37000040da007a
:100990000000fe00000005000001be003f0007004f
:1009a0000470a70003f0a1006509b1001600320031
:1009b0000d0035006828e10006003500f0ff2f002b
:1009c000f1ff27000300e00013003b0001002800b6
:1009d0000000050000004000818048008502e90019
:1009e000fcff3a0008003700f88f420002003c008c
:1009f0008000eb00000005008100d1000080d300e2
:100a00008502e800fcff3a000300e00002003b0022
:100a100060001000e0801800000006000001be0029
:100a20001e0007000470a70003f0a10003f8a30054
:100a300013003a006509b1001000320009003500ca
:100a40006928e100020035000100280000000500cf
:100a500000004000818048008502e900fcff3a0068
:100a600000000600f88f4200050035008100d1002b
:100a70000080d3008502e800fcff3a000000060079
:100a80008000eb00000005004f89de008201780045
:100a90007c0337006011b8008a033700c70ade0004
:100aa000f107b200f50fb20008003200e1cf4200ba
:100ab000020032000170a00024000500810f7000c8
:100ac000010032000408050044000500810f700099
:100ad00002003a00140005008502e9000000400011
:100ae00081c04800fcff3b000170a000240005000d
:100af0006022b800060220000000d0008180d200f1
:100b00000482d2008582d2000000a00002025200be
:100b100083825a00030031000202420083824a00ad
:100b20000000a1000603e900f3ff3a000000060000
:100b300007f82700078361000638e10004003a0047
:100b4000f7072000878361008703710001003a00e6
:100b500003f0a200889fbe008a9fbe008c9fbe004b
:100b6000470ade000480a100c71ade000580a1004c
:100b7000070028000785600087856100f70f2000c7
:100b80000720e1009e0032000728e1009c003200af
:100b9000010678000400e000b4003200f7072000ee
:100ba000878060000170a0000500e000c0003200f6
:100bb000f7072000878161000370a000050652003e
:100bc0000f003a000b50e1000b0032000308e10077
:100bd00002003a000200e1007e00320002045000f0
:100be00083845800040031000001fd008101fd00f4
:100bf0008402fd008a05fd006044b8002100370032
:100c00000520e10005003d000001fd008101fd001f
:100c10008402fd008a05fd00050652007a60e100ad
:100c2000050035000170a1004722dd0084807000be
:100c30008a807000630037006044b800ef026600ed
:100c400007ff2f00070666000500e00006003400dd
:100c5000f08312008714dd000511de00071bdd00a4
:100c6000060171008519de007060e10005003500a5
:100c70000904780082047800030178008001eb0009
:100c8000700656000b50e10003003a0002004000dd
:100c9000838048000400370060041400e0841c00d6
:100ca00002005800838058000188a300060032002b
:100cb0008100d1000080d3008984d3000884d30050
:100cc0000402e800270037000178a30025003a005d
:100cd0000100e000030032008186cf0069865600e3
:100ce0000a0037008c0020000000e00004003a00f9
:100cf00009007800880478000004eb0070025200bc
:100d00008086cf000d0646000c06e9007060e10009
:100d1000060035008000780009007800880478001b
:100d20000004eb0070065600700252000c00e00058
:100d30000c0034008c08dd00f00316000703de0011
:100d4000868070000c00dd00074bde00060070009e
:100d50008c4cdd000743de00868474000c44dd000b
:100d60000c0252006120e1002000350061016000aa
:100d70000700280087816400f7ff2700878364004d
:100d8000070374000300e0000600320082037300d2
:100d9000040032000000e800e08048000188a30061
:100da0000e003a00f70f20000720e1004a003d0046
:100db0000170a1004722dd00810072008a8070006e
:100dc0000000be004f06be004f05be004f04be002f
:100dd000000006006000b800faff37008100d10073
:100de0000080d3000402e800eeff37000401780021
:100df00089017400a10107008a807000f1ff3700ab
:100e0000f7010700070278000001fd008101fd00e5
:100e1000f301070087027800850372000778a300ba
:100e2000040032000001fd008101fd000602070000
:100e3000e4ff3700850362000768a3000800320062
:100e40000b50e10003003200f0ff2f00f1ff2700fc
:100e5000dcff37000001fd008101fd00d9ff3700f4
:100e60000468a300d7ff3200faff3700f8ff27001d
:100e7000888360000b003a000000e00009003a009f
:100e80008303640082837300020032000200be000c
:100e9000ccff37000b50e100ceff3a000200be004d
:100ea000c8ff370014002000810064003eff3700b7
:100eb000f8ff27008883610004003a000200e00088
:100ec00002003a008c007800beff370015002000b9
:100ed0008301640039ff370001f82700000020007b
:100ee00081007500b7ff3700889fbe008a9fbe0053
:100ef0008c9fbe001b0020000202be000586680019
:100f000006002800060666004709de00f20fb20060
:100f1000820032000243e80080003200c729de0070
:100f2000f30fb2007d0032000343e8007b00320083
:100f3000f107b2000170a000f507b2000570a00033
:100f4000c708dd004903de00868070004700dd0031
:100f5000c72add004923de00868272004722dd00b9
:100f6000030551000403500085835800030031003d
:100f700000004000818048000a05e9008c1f7800cd
:100f80008a9fbe0004005000858058000402420081
:100f900085824a0000004000818048000005eb0087
:100fa0000004be006033b8000406be000d48e10036
:100fb00056003100110009004dccd8000c01b800da
:100fc0000d02b8008481410060824a008283530090
:100fd00003045c0084845c0060055d000a00e0009e
:100fe00025003a00800578000d40e10049003100fd
:100ff0008800780007007800110009004d88d800ab
:101000000c01b8000d02b8008481410060824a00e2
:101010006003110083835b0004045c00e0845c00d7
:101020000900e00021003a004f01be000300e0008b
:101030002b003200e3016000070673008c81710011
:1010400001003200640070004200de004e5edd00f0
:101050000c007000c258de0001e0a0008301070010
:10106000cf017800818071004f06be004f05be00a1
:101070004f04be00000006008c8343000d044c00aa
:10108000e0844c0060054d000000e9000a00e0002b
:10109000d4ff32008c8343000d044c00e0844c00ec
:1010a00060054d000000e900ceff37000c0343004f
:1010b0008d834b0060044c00e0844c000000e9008c
:1010c0000900e000d8ff32000c0343008d834b0081
:1010d00060044c00e0844c000000e900d2ff3700bf
:1010e0004200de004e5edd000c007000c258de00e3
:1010f00001e0a000cf0178000300e000daff320039
:1011000060001000e0801800d7ff3700f0ff2f00cc
:10111000aaff3700f0ff2f00b9ff37000404be001c
:101120002f010700870678000004fd008104fd0000
:101130002b010700078366000678a3000300320036
:101140000960a7000800be002c0037000d78a3003e
:10115000020032000800be00280037000778a30014
:1011600026003a0001f0a10009f0a1000668a300e2
:1011700003003200f1ff2700f0ff2f00baff370015
:101180000d68a300030032000800be008c807000d0
:10119000b5ff37000768a30007003a000648a30020
:1011a00003003200f1ff2700f0ff2f00aeff3700f1
:1011b0000d48a300030032006000b8008c8070006e
:1011c000a9ff37000748a3000400320001f82700f8
:1011d000000020008c807000a3ff3700760107001c
:1011e0000004fd008104fd00020578007201070083
:1011f0000802be008a01780059ff37000160a00094
:10120000120220005284880097ff37000100e0009e
:10121000120032000500e00010003200889fbe007e
:101220008a9fbe008c9fbe000006eb0001f8a30061
:101230000300320060001000e08018000cf0a000f5
:1012400005f8a3000300320060021200e0821a00d9
:101250000cf0a2008005eb0041ff37006000b800f1
:1012600002000500038368000700280007036300ed
:10127000470ade000480a100c71ade000580a10035
:10128000f70f20000720e100420032000728e100ac
:1012900040003200889fbe008a9fbe008c1f7800ed
:1012a000f107b200f307b2000400e000640032006e
:1012b0000170a0000500e000680032000370a0008b
:1012c00085054200eb07b1000204b8000302b80034
:1012d0008484440060854a00020ab8008484440083
:1012e0000a854a00030ab8000405450004003300db
:1012f0000804d0008984d2000a85d2008b05e90059
:101300006158e1003d003500021020000901610034
:101310000308200089816100f707200087836400ab
:1013200008867300c84cde00c853dd008784740053
:101330004855de000300e00006003200820376001c
:10134000040032008904e80060054d000a88a3000b
:101350000c003a00f70f20000758e10044003d0060
:101360000a70a100c75ddd000a8575008a00730060
:10137000090078004f0678004f05be004f04be00fc
:10138000000006000a05d1008984d3008b05e8001f
:10139000f0ff3700881f78000604780090000700ef
:1013a000070278000001fd008101fd008c000700ac
:1013b00087027800850372000778a30005003200d9
:1013c0000001fd008101fd009f0007004f0478002f
:1013d00000000600850372000748a30003003200e6
:1013e000f0ff2f00f1ff2700f8ff3700000020007a
:1013f00001f8270088807000f4ff3700880178002a
:101400004848dd00808171004848de00c850dd009a
:1014100001007000c850de00060478000b0178005f
:101420001600070088807000d2ff37000500e0003a
:1014300005003200170020003a0007009dff37002a
:1014400081037000f9ff3a00860078004f067800ab
:101450004f05be004f04be0000000500830371006d
:10146000f9ff3200270020002e00070094ff37000c
:1014700001f8270086807000f4ff37000100e000cb
:1014800026003200610111007810e10023003c00c9
:101490006022b8007010e10004003500800278007e
:1014a000010078008000eb00700151000200e000b4
:1014b0000900340070031100062add00822ade00d4
:1014c0008603dd00878272000200de00860bdd00ed
:1014d000070070008208de0084817100f4ff27009d
:1014e000048262008481710004002800848262000a
:1014f0006102600005f0a600000006000482710091
:10150000070032000000e800e0804800000006000c
:101510000002be006000b800efff37006000b800b6
:1015200000000600889fbe000004eb006138e10067
:1015300016003a000100e00008003a00c800de0092
:101540004800dd00880020000100e00003003a00b0
:10155000c800de004800dd00680444008184cf003c
:10156000e9845400060034008908dd00f08314008b
:101570008703de00878070000900dd000904440055
:10158000610214004f04be00000006000300e000ea
:1015900008003a00c811de004811dd008800200074
:1015a0000300e00003003a00c811de004811dd002e
:1015b000680444008384cf00e984540006003400aa
:1015c0008919dd00f08314008713de008781710024
:1015d0000911dd0009044400e1021400e9ff3700ad
:1015e0002700200001f0a70017002000470bde00b5
:1015f000f60fb200040032000643e8000a00320091
:101600004702b3000000060001037800f607b200ad
:101610000603700002003a000703b3000000060052
:101620008702b3000000060001037800f607b2004d
:1016300006037000020032000770a00000000600e0
:101640000760a000000006000478a3000400320038
:101650000578a300030032000168a30001003a00ee
:101660000200be000160a0000000060081017000c1
:10167000270032008002eb0001f8a30003003200d3
:1016800060001000e080180015002000f407200022
:101690000202420020003400f703200087036000ac
:1016a000060420000003630002082000000161001e
:1016b0004700de00c909dd0000807100c708de00b8
:1016c0000600e000080032008703710006003200c7
:1016d0001000b0000180b0000188a30002003200b9
:1016e000c108de000402e800f107b200f30f200099
:1016f0000320e10003003d004722dd00810072006d
:101700002900370001f827000000eb002600370011
:101710006000b80000000600680212007f20e100af
:10172000020034006000b8001f0037006011b800ec
:101730007020e1000400350080017800010078008d
:101740008000eb00700252000400e0000900340049
:10175000f00312000719dd008419de000703dd0025
:10176000868171000400de00070bdd0006007000ba
:101770008408de00f7ff270083836300870371007e
:101780000600280003036300070032000700e000a2
:1017900003003a0061016000028173000200320020
:1017a0001000b0000180b0000500a6000000060097
:1017b00001f0a000000006004f0ade004709de002d
:1017c000f107b200f20fb2000b003200f207b100d5
:1017d0000170a000c708dd00c901de008380700031
:1017e0004700dd000400a6000000060060001000b5
:1017f000e080180000000600810f700001003a0030
:10180000000006008182cf000500e00010003e00cd
:101810008082cf00ee8242007028e100040039008f
:1018200007003e00800078000000eb000e0037004b
:10183000708312008600de000500dd000a0037001c
:10184000708352008600dd000000eb0006003700c8
:10185000e28252008508dd00708312000603de007c
:10186000868070000500dd007507b0000501ea0004
:101870000400a6000000060060001000e0801800d0
:1018800000000600881f7800030478000300e000d1
:1018900007003d0060001000e080180060011900a2
:1018a000e081190002003b0001f02d000300370029
:1018b0000400070008f0a70001f0a0004f04780022
:1018c00000000600889fbe008a9fbe000082700054
:1018d0000402710004827100260032000004be0080
:1018e0000200be006011b8006b09200095022000c4
:1018f0000182cf000a0039000541b1000082cf000b
:10190000070039000541b1000982cf000400390009
:101910000541b1000882cf00010039000541b10046
:1019200005425200120032000a003b008281710021
:10193000610164008100d1000080d3008984d3005c
:101940000884d3008b05e8000442e800f7ff3a0062
:10195000070037000804440089844c000000480058
:10196000818048008b05e9000442e900f9ff3a0054
:10197000030007004f05be004f04be000000060034
:1019800081002000618055000b003d000b0020000d
:1019900061fe2f000100e1001d0034008281710012
:1019a000610164008904d1000884d3000000e800cc
:1019b000faff3a007100200061006400030070002b
:1019c000020060000900320061044400e0844c0021
:1019d0000988a500050032008b05e8006808e100d1
:1019e00002003a008904d1000884d300f20f2000dd
:1019f0000258e10005003d00c75ddd00f907b200b7
:101a00008980750008007800000006000bf82700a8
:101a10008b00780000000500000006000400fa00ba
:101a2000889fbe008a9fbe008c9fbe000004be003f
:101a30000205be000206410083864900e00f560001
:101a4000e08f5e00140032000200be0082bf9f00e3
:101a500093bf9f00f0ff07008102780005f0a1000e
:101a6000000278000000200001f827000fb997005d
:101a70009fb99700800f5200818f5a0006003e00e8
:101a80000802be00474bde00070020000680fb0076
:101a9000e14f430005003a000800be00f1fd0700d9
:101aa0000001be0010fd07000900370008014400d6
:101ab00089814c008c0f51008d8f590006003e002b
:101ac00074003a006011b8000800be00e5fd070090
:101ad0000004be006f0037000000e00013003a0071
:101ae0004949dd00c741de00830171004941dd0045
:101af000030037000000e900020141008381490032
:101b0000e00f5100e08f5900faff3d00e1001000a6
:101b10000401be008100e90003003300020141001e
:101b200083814900fbff37000400370085017800fe
:101b3000f307b200080178000370a000475bde00e5
:101b40000700200086007800f10fb20012003a0072
:101b5000495bdd00c753de00870373004953dd0096
:101b6000030037008100e9000603430087834b0030
:101b7000e00f5300e08f5b00faff3d00618310002f
:101b80000603e900030033000a0545008b854d007c
:101b9000fbff3700100037008b037800f707b20017
:101ba0000a0378000605be000b70a0000a0037008b
:101bb000e00f5300e08f5b0004003500e00f53009e
:101bc000e08f5b00bfff32000601be000201410052
:101bd000838149000000e9000a0351008b8359000a
:101be000810f5000f2ff3c00e00f5300e08f5b00dc
:101bf00003003d00090037000601be000700370062
:101c0000e00f5300e08f5b00fbff3a00adff3700b1
:101c100002014100838149000000e900471bde000a
:101c200007002000e00f5300e08f5b00f8ff320058
:101c30000000e0000a0034000600200007f82f0032
:101c40000201430083814b00cf80de00c700dd002e
:101c50000000200002017000838170000600370040
:101c6000610010000000e900030033008301d1008f
:101c70000281d300fbff3700000020000100280094
:101c80008583600000037800060171008781710080
:101c90000204be000800be004f06be004f05be0095
:101ca0004f04be000080fa000000060080017800aa
:101cb00002003700b15978000201e9000200e0009b
:101cc000fcff3a0000000600889fbe008a9fbe000d
:101cd000800478000200e0005b00320001407800e0
:101ce000814c780082814400f1f99f00e20f51009d
:101cf0005500360091449800a1449800e1f99f00f6
:101d0000d1f99f00e60f51004f003600b144980012
:101d1000c1f99f00e80f51004b0036000905ea00a9
:101d2000630565000a8444000a055100c1ff2f00c5
:101d3000010565000080fb008000eb001210200010
:101d40001310200044000700008cbe000a0144006c
:101d500060b99f0071b99f00e80f55003a00360046
:101d60002004980031049800400498005104980021
:101d700020b99f0031b99f0040b99f0051b99f0021
:101d8000f80f550030003600600498007104980088
:101d9000000c9800110c9800200c9800310c980051
:101da000400c9800510c980020b19f0031b19f0069
:101db00040b19f0051b19f0060b19f0071b19f0081
:101dc00000b99f0011b99f006401640078014100cf
:101dd00002044400020555006011b8000203be0071
:101de0000002be000403be006022b80000007200c2
:101df000818072000201730083817300100037003c
:101e0000009cbe000294be0040049800510498005b
:101e10006204980073049800000c9800110c98005c
:101e2000220c9800330c9800400c9800510c98003c
:101e3000620c9800730c98000a02b1000802b0000e
:101e4000ff0f5500eeff3e00090078004f05be0071
:101e50004f04be0000000600020ab900001bb900d2
:101e60000200b8008100420081004300000006002b
:020000040000fa
:101e70001201000000020000020000000008000043
:101e8000d80400000a000000000100000102000068
:101e900000010000090200004300000002010000f0
:101ea00000c0000032090000040000000001000032
:101eb00002020000010000000524000000100000e4
:101ec00001040000240200000205000024060000b6
:101ed00000010000052400000100000001070000cf
:101ee00005810000030a0000000200000904000050
:101ef00001000000020a00000000000000070000ce
:101f0000050200000240000000000000070500007c
:101f100082020000400000000000000004030000f6
:101f200009040000340300004d00000069000000b7
:101f300063000000720000006f00000063000000fa
:101f40006800000069000000700000002000000030
:101f500054000000650000006300000068000000fd
:101f60006e0000006f0000006c0000006f000000b9
:101f70006700000079000000200000004900000018
:101f80006e000000630000002e000000340300001b
:101f90004300000044000000430000002000000057
:101fa00052000000530000002d000000320000002d
:101fb0003300000032000000200000004500000057
:101fc0006d000000750000006c0000006100000062
:101fd00074000000690000006f0000006e00000047
:101fe0002000000044000000650000006d000000bb
:101ff0006f0000004a8f00008e8f0000928f00005b
:04200000c68f000087
:020000040000fa
:102004000200fa002ac8a9000080eb0020268800fc
:102014000080eb0000268800e024ef00420020004e
:102024008000eb00204e200026ff0700dc24ef0098
:10203400de24ef008e44a900f00920003026880039
:10204400f0092000102688008ac4a8009004a80083
:10205400002021004800de00702688000040eb00cc
:10206400004f7800070037001e80fb00c300dd002e
:1020740000202100008140006000b8000089be00fb
:102084001e4fe8001e407800eb4f5000f6ff36006c
:10209400ca24a800cc24ef00caa4a900ca24a90019
:1020a4008000200000268800002721008040eb00eb
:1020b40001487800602721008040eb000148780047
:1020c4007027210090407800e0c06000014878004b
:1020d4008027210090407800e0c06000014878002b
:1020e40000268000680060000000e000ecff3a0079
:1020f40010c0b30041f0b70010c0b30042f0b70005
:102104004370ef004470ef003b70ef000040eb00c1
:10211400004f7800170037001e80fb00800040004d
:1021240080262100008040008000eb000108780038
:102134001e80fb008000400020262100008040001b
:102144008000eb00010878001e80fb00b12721000d
:10215400008040008040eb00014878001e80fb00b6
:10216400e1272100008040008040eb000148780016
:102174001e4fe8001e407800e24f5000e6ff360094
:102184000021210040938800d0002000002788000f
:1021940010282100209088001190800000c02f009a
:1021a400008060000030a0001090880040002000f3
:1021b40000908800009080000070a00000908800cb
:1021c4003070ef004630ef004830ef004a70ef0007
:1021d4002e30ef000080fa00000006000200fa0032
:1021e400708180000000e00012003a00ca24ef0071
:1021f400c224ef00dc24ef00de24ef008e44a900ab
:10220400f009200030268800f009200010268800fc
:102214008ac4a80001003700ca04a8005026800020
:10222400610060000000e000fbff320010002000ad
:102234007081880070818000e10f50000c003a002a
:102244005126800000042000008060000000e000af
:1022540007003a00f0fe2f0000268800c224ef0099
:10226400c204a800c284a800200020007081880055
:1022740040248000700060000000e000070032008d
:1022840050248000700060000000e0000300320071
:1022940000012000402488003107070080248000ca
:1022a400620060000000e000020032000ac8a900d9
:1022b400a200370000268000610060000000e000fa
:1022c4000900320010268000610060000000e00078
:1022d400050032004aff070040002000708188009a
:1022e4001000200000268800002680007000600096
:1022f4000000e0000500320010268000700060003d
:102304000000e000010032000807070041248000bb
:1023140000042000008060000000e00003003200a0
:102324000004200040248800610a07000026800081
:10233400640060000000e0001400320010268000f9
:10234400640060000000e00004003200120020007d
:102354008000eb00300720007c24070040002000b0
:10236400002688003fd0bf000004e00003003200d4
:102374003fd0bf000040e9003ff0b7003fd0bf00ae
:102384000004e00001003a009702070001268000e3
:1023940000082000008060000000e0000600320019
:1023a4001126800000082000008060000000e0008a
:1023b40001003200a40607000026800062006000cd
:1023c4000000e0000c003200102680006200600073
:1023d4000000e00008003200120020008000eb0042
:1023e400f0ff2700592407000080eb002026880016
:1023f400200020000026880070818000e30f500038
:1024040002003e000ac8a9004c00370010268000d4
:10241400680060000000e000470032000040eb006c
:10242400004f78003f0037000026800068006000fd
:102434000000e0003f0032004026800000407800a9
:102444003cf0b7003cd0bf000080fb004400de003d
:10245400004078003df0b70080002000002688008e
:102464003cd0bf00684060000004e00012003a0065
:102474003dd0bf000081fb003dd0bf008080fb0049
:10248400e0272100008040009040780061c0600097
:102494000004a200e1406000e027210000004100a8
:1024a400e1c06000104178000204a1008140710085
:1024b40001487800110037003dd0bf000081fb00c7
:1024c4003dd0bf008080fb00b02721000080400089
:1024d4009040780061c060000004a200e140600008
:1024e400b027210000004100e1c0600010417800e5
:1024f4000204a10081407100014878003dd0bf0072
:102504000004e00002003a00a106070004003700be
:102514000001eb00c1032100200720000b24070069
:102524001e4fe8001e407800e34f5000beff360007
:1025340001003700000000000ac8a9000080fa006a
:10254400000006000400fa00204798003147980074
:102554003e4090000080fb00680060000000e00046
:10256400030032008040eb002e409000200307005f
:102574003e4090000080fb00640060000000e0002a
:102584000300320011c0b3002e409000180307006e
:10259400014e20002e4090000080fb00000040000f
:1025a400008f40001e007800be4090000148780073
:1025b4000080fa00000006000800fa002047980096
:1025c4003147980022079800634798003e409000e6
:1025d4000004e000070032002e4090000080fb0061
:1025e400800040008026210000804000100f780009
:1025f400060037002e4090000080fb008000400061
:102604002026210000804000100f78001e00780072
:102614000000e00002003a000000eb007c003700fc
:10262400ae0090001e007800f20f200002816000ce
:10263400c0419000e0c1610002c1710042409800b5
:10264400c808de0050419000604161008140710083
:10265400514098006e4090008080fb00f03f2000c5
:10266400808060001e007800f20f2000028160006c
:10267400a0419000e0c1610002c1710022409800b5
:10268400c808de00e3806000e3c06000b041900051
:10269400c2cfb30002c16100814071003140980093
:1026a4001e0078009080fb00104090000080fb002a
:1026b4004800dd00008070008000780000042000e5
:1026c400808060001e007800f20f2000028160000c
:1026d40090417800e0c1610002c1710002487800b5
:1026e400c808de0010419000604161008140710023
:1026f400114098001e0078009080fb00104090006c
:102704000080fb004800dd0000807000800078003d
:102714000130a0001e007800f20f2000028160004a
:1027240090417800e0c1610002c171000248780064
:10273400c808de00104190006041610081407100d2
:10274400114098001e0078009080fb00104090001b
:102754000080fb004800dd000080700080007800ed
:102764000170a0001e007800f20f200002816000ba
:1027740090417800e0c1610002c171000248780014
:10278400c808de0010419000604161008140710082
:10279400114098003e4090000004e0000e0032001a
:1027a4002e4090000080fb00ae4090008180fb0032
:1027b40001814000812621008100410091007800c0
:1027c4000130a200000140008026210000004100e9
:1027d400010878000d0037002e4090000080fb00b7
:1027e400ae4090008180fb00018140002126210041
:1027f40081004100910078000130a20000014000f6
:102804002026210000004100010878001e00780005
:102814000080fa00000006000400fa002047980037
:10282400314798002e4090000004e0004d003a002b
:10283400a0818000a0409000e0c060000134a000ae
:102844002140980030419000c1cfb3008140610025
:1028540031409800a081800011282100f20f20004f
:1028640002816000c0419000e0c1610002c17100ba
:1028740042409800c808de00504190006041610069
:102884008140710051409800a08180009040780000
:10289400e0c06000c140b30001487800904090005f
:1028a400e0c0600011409800a0818000a1818000f8
:1028b4001181fb00914090008180fb00c808dd007d
:1028c400810071000170a000f20f200002816000fd
:1028d40090417800e0c1610002c1710002487800b3
:1028e400c808de0010419000604161008140710021
:1028f400114098004093800090407800e0c0600050
:102904000124a0000148780090409000e0c06000dd
:102914001140980040938000419380001181fb0096
:10292400914090008180fb00c808dd0081007100a7
:102934000170a000f20f2000028160009041780035
:10294400e0c1610002c1710002487800c808de00dd
:102954001041900060416100814071001140980075
:10296400660037002e4090000080fb00000040000d
:10297400800078003e4090000080fb000080400012
:102984004400dd008000780000202100008f40001a
:102994001e0078009080fb00104090000080fb0037
:1029a4004800dd0000807000800078000120a00055
:1029b4001e007800f20f2000028160009041780030
:1029c400e0c1610002c1710002487800c808de005d
:1029d40010419000604161008140710011409800f5
:1029e4001e0078009080fb00104090000080fb00e7
:1029f4004800dd0000807000800078000170a000b5
:102a04001e007800f20f20000281600090417800df
:102a1400e0c1610002c1710002487800c808de000c
:102a240010419000604161008140710011409800a4
:102a34002e4090000080fb000000400080007800e1
:102a44003e4090000080fb00008040004400dd0018
:102a5400e800400000202100008f40001e007800a4
:102a64009080fb00104090000080fb004800dd00d7
:102a740000807000800078000120a0001e00780013
:102a8400f20f20000281600090417800e0c16100f3
:102a940002c1710002487800c808de0010419000ad
:102aa4006041610081407100114098001e0078006f
:102ab4009080fb00104090000080fb004800dd0087
:102ac40000807000800078000170a0001e00780073
:102ad400f20f20000281600090417800e0c16100a3
:102ae40002c1710002487800c808de00104190005d
:102af4006041610081407100114098000080fa003b
:102b0400000006000200fa00881f7800004f7800d9
:102b14005126800000022000008060000000e000d8
:102b2400ae0032001e80fb008000400080262100a1
:102b340000804000100078009e80fb00018140006e
:102b44008126210081004100910078001183fb005f
:102b5400914390008783fb00c83bdd0007037300ab
:102b640006017800214390000683fb00b1409000e9
:102b74008180fb00c808dd008100730081017800ba
:102b84000604200007002000020478008301780076
:102b940086007800070178008100640002816100ea
:102ba40082027800010278000401be00f10f2000c7
:102bb400810061001042780060426200814072002e
:102bc40001487800c810de001042900060426200a4
:102bd4008140720011409800f10f20008180610053
:102be40020429000604262008140720021409800bf
:102bf400c818de00304190006041610081407100de
:102c0400314098001e80fb00800040008026210097
:102c140000804000100078009e80fb00018140008d
:102c24008126210081004100910078001182fb007f
:102c3400914290008582fb00c82add0005027200e3
:102c440004017800214290000482fb00b14090000e
:102c54008180fb00c808dd008100720081017800da
:102c64000404200005002000040169008581690036
:102c7400f10f200081006100104278006042620080
:102c84008140720001487800c810de0010429000b4
:102c9400604262008140720011409800f10f2000f0
:102ca4008180610020429000604262008140720095
:102cb40021409800c818de00304190006041610056
:102cc40081407100314098001e80fb009e80fb0013
:102cd400018140008126210081004100910078009b
:102ce4000130a200000140008026210000004100c4
:102cf400010878001e80fb0080004000802621002f
:102d040000804000100078009e80fb00018140009c
:102d14008126210081004100910078001181fb008f
:102d2400914090008180fb00c808dd0081007100a3
:102d3400010178000104200081006100f20f2000ed
:102d44000281600090417800e0c1610002c171001d
:102d540002487800c808de0010419000604161001c
:102d640081407100114098001e80fb0080004000eb
:102d74008026210000804000100078009e80fb0027
:102d840001814000812621008100410091007800ea
:102d94001181fb00914090008180fb00c808dd0098
:102da40081007100010178000104200081006900a4
:102db400f20f20000281600090417800e0c16100c0
:102dc40002c1710002487800c808de00104190007a
:102dd4006041610081407100114098004f04780007
:102de4000080fa00000006000000fa0041d0bf0095
:102df4000004a2000004e0008500320010c0b3000b
:102e040041f0b70042d0bf000004a2000004e0007b
:102e14007f00320010c0b30042f0b70037d0bf00cb
:102e2400e24f500025003a0040938000a0409000fb
:102e3400e0c060002140980030419000c1cfb30051
:102e440081406100314098004093800090407800b8
:102e540060c1600081c4b300814071000148780002
:102e640090409000e0c060001140980040938000c2
:102e7400419380001181fb00914090008180fb0010
:102e8400c808dd00810071000170a000f20f20006d
:102e94000281600090417800e0c1610002c17100cc
:102ea40002487800c808de001041900060416100cb
:102eb40081407100114098005500370037d0bf00a1
:102ec400e14f500052003a003e70ef0090818000c4
:102ed400a0409000e0c060000134a00021409800b0
:102ee40030419000c1cfb30081406100314098006f
:102ef4009081800011282100f20f200002816000df
:102f0400c0419000e0c1610002c1710042409800dc
:102f1400c808de00504190006041610081407100aa
:102f2400514098009081800090407800e0c060009b
:102f34000124a0000148780090409000e0c06000a7
:102f44001140980090818000918180001181fb00e4
:102f5400914090008180fb00c808dd008100710071
:102f64000170a000f20f20000281600090417800ff
:102f7400e0c1610002c1710002487800c808de00a7
:102f8400104190006041610081407100114098003f
:102f940010c0b3003ef0b700a0818000a0409000b4
:102fa400e0c060000134a00021409800304190004e
:102fb400c1cfb3008140610031409800a0818000fe
:102fc40011282100f20f200002816000c04190000e
:102fd400e0c1610002c1710042409800c808de00ef
:102fe400504190006041610081407100514098005f
:102ff400a081800090407800e0c060000174a000cf
:103004000148780090409000e0c0600011409800b2
:103014000080fa00000006000000fa004370ef0090
:103024004470ef0037d0bf00e24f500033003a0045
:10303400a0818000a0409000e0c060000134a000a6
:103044002140980030419000c1cfb300814061001d
:1030540031409800a081800091282100f20f2000c7
:1030640002816000c0419000e0c1610002c17100b2
:1030740042409800c808de00504190006041610061
:103084008140710051409800a081800090407800f8
:1030940060c1600081c4b3008140710001487800c0
:1030a40090409000e0c0600011409800a081800032
:1030b400a18180001181fb00914090008180fb0080
:1030c400c808dd00810071000170a000f20f20002b
:1030d4000281600090417800e0c1610002c171008a
:1030e40002487800c808de00104190006041610089
:1030f40081407100114098003b0037007028210086
:103104001080fb00812821009180fb00c808dd00ad
:10311400010070008000780090938000808f500040
:1031240007003100702821001080fb008128210055
:103134009180fb00c808dd000100700090938800b6
:103144000d0107004093800091282100f20f200018
:1031540002816000c0419000e0c1610002c17100c1
:1031640042409800c808de00504190006041610070
:103174008140710051409800409380009040780055
:1031840060c1600081c4b3008140710001487800cf
:1031940090409000e0c0600011409800409380008f
:1031a400419380001181fb00914090008180fb00dd
:1031b400c808dd00810071000170a000f20f20003a
:1031c4000281600090417800e0c1610002c1710099
:1031d40002487800c808de00104190006041610098
:1031e40081407100114098000080fa000000060040
:1031f4000400fa002047980031479800002021007d
:10320400000f78002e4090000080fb00000040007a
:10321400800078003e4090000080fb000080400069
:103224004400dd001e0f40001e007800904078002e
:103234000174a100014878003e4090000004e000c1
:1032440007003a002e4090000080fb008000400000
:1032540020262100008040001e0878000600370068
:103264002e4090000080fb0080004000802621005a
:10327400008040001e0878001e007800904078000e
:103284000164a100014878009e0078006880400035
:10329400904078000164a000014878000080fa00a2
:1032a400000006000000fa00caa4a900819380006f
:1032b40000082000008060000000e0005d003a008b
:1032c400602721009040780000c8b30000c060006f
:1032d4000004e0000a00320020c0b30037f0b70059
:1032e40044d0bf000004a2000004e000010032004a
:1032f40049ff07004270ef004170ef009c00370067
:10330400a0818000a0409000e0c060000134a000d3
:103314002140980030419000c1cfb300814061004a
:1033240031409800a081800011282100f20f200074
:1033340002816000c0419000e0c1610002c17100df
:1033440042409800c808de0050419000604161008e
:103354008140710051409800a08180009040780025
:10336400e0c06000c140b300014878009040900084
:10337400e0c0600011409800a0818000a18180001d
:103384001181fb00914090008180fb00c808dd00a2
:10339400810071000170a000f20f20000281600022
:1033a40090417800e0c1610002c1710002487800d8
:1033b400c808de0010419000604161008140710046
:1033c400114098004093800090407800e0c0600075
:1033d4000124a0000148780090409000e0c0600003
:1033e4001140980040938000419380001181fb00bc
:1033f400914090008180fb00c808dd0081007100cd
:103404000170a000f20f200002816000904178005a
:10341400e0c1610002c1710002487800c808de0002
:10342400104190006041610081407100114098009a
:103434004f003700102821009040780000c8b300e6
:1034440000c060000004e0000f00320010c0b300b0
:1034540037f0b70043d0bf000004a2000004e0002e
:1034640001003200ecfe07004270ef004170ef00f3
:1034740040d0bf000004a2000004e0003c00320081
:1034840059fe07003a00370020c0b30037f0b700f8
:10349400a0818000a0409000e0c060000134a00042
:1034a4002140980030419000c1cfb30081406100b9
:1034b40031409800a081800011282100f20f2000e3
:1034c40002816000c0419000e0c1610002c171004e
:1034d40042409800c808de005041900060416100fd
:1034e4008140710051409800a08180009040780094
:1034f400e0c060000124a0000148780090409000e2
:10350400e0c0600011409800a0818000a18180008b
:103514001181fb00914090008180fb00c808dd0010
:10352400810071000170a000f20f20000281600090
:1035340090417800e0c1610002c171000248780046
:10354400c808de00104190006041610081407100b4
:10355400114098004270ef004170ef0040d0bf006e
:103564000004a2000004e000010032001efe070077
:103574000080fa00000006000200fa0080c0b300d8
:10358400004f780090938000e70f50000d003e003c
:1035940090938000004f780036d0bf000004e00014
:1035a40003003a0010c0b30036f0b700050037003e
:1035b40036d0bf00e14f500002003a0020c0b300f3
:1035c40036f0b700919380001e80fb00008050000d
:1035d40090938800409380009e80fb00f23f20007f
:1035e40082806000f20f200002816000a041900000
:1035f400e0c1610002c1710022409800c808de00e9
:10360400e3806000e3c06000b0419000c2cfb3002b
:1036140002c161008140710031409800902821006e
:10362400c081880080938000610060000000e00099
:1036340017003a0009003700c181800070938000b0
:1036440010417800824878008100e800c181880038
:103654000000e800709388001e4fe9001e407800c7
:103664000004e000f4ff3a000c003700c181800040
:103674007093800010417800824878008100e8004f
:10368400c18188000000e800709388001e4fe900a3
:103694001e4078000004e000f4ff3a000080fa00c5
:1036a400000006000200fa0090818000a040900013
:1036b4008180fb00304090000080fb0063006000cc
:1036c4004800dd0000807000004f78009e80fb0001
:1036d400702721001080fb00822721001281fb004b
:1036e4004811dd0002007000808f50000700360092
:1036f400702721001080fb00812721009180fb00ae
:10370400c808dd0001007000004f78007027210018
:103714001080fb00812721009180fb00c808dd0098
:1037240001007000800078001e80fb0000805000c3
:10373400f10f200001016000712721009141780000
:10374400e0c1610002c1710082487800c800de0057
:1037540080272100104178006041610081407100a0
:10376400014878000040eb00104798001d00370026
:10377400402721001080fb00512721009180fb008d
:10378400c808dd00010070009e4090008180fb00ad
:10379400922821008100410091407800014878007e
:1037a4000000e800f10f2000010160004127210022
:1037b40091417800e0c1610002c171008248780043
:1037c400c800de00502721001041780060416100ec
:1037d40081407100014878001e4090000040e800dc
:1037e400104798001e4090009e4f5000e0ff3900a3
:1037f400702721001080fb00812721009180fb00ad
:10380400c808dd00010070000000e0005400320030
:10381400a0818000a0409000e0c060000134a000be
:103824002140980030419000c1cfb3008140610035
:1038340031409800a081800091282100f20f2000df
:1038440002816000c0419000e0c1610002c17100ca
:1038540042409800c808de00504190006041610079
:1038640081407100514098009081800010407800a0
:103874000044b2000004e0001d003a00a081800072
:103884009040780060c1600081c4b3008140710041
:103894000148780090409000e0c06000114098001a
:1038a400a0818000a18180001181fb0091409000e3
:1038b4008180fb00c808dd00810071000170a00058
:1038c400f20f20000281600090417800e0c16100a5
:1038d40002c1710002487800c808de00104190005f
:1038e400604161008140710011409800650037001b
:1038f400a081800090407800e0c060000134a00006
:103904000148780090409000e0c0600011409800a9
:10391400a0818000a18180001181fb009140900072
:103924008180fb00c808dd00810071000170a000e7
:10393400f20f20000281600090417800e0c1610034
:1039440002c1710002487800c808de0010419000ee
:1039540060416100814071001140980049003700c6
:10396400a0818000a0409000e0c060000134a0006d
:103974002140980030419000c1cfb30081406100e4
:1039840031409800a081800011282100f20f20000e
:1039940002816000c0419000e0c1610002c1710079
:1039a40042409800c808de00504190006041610028
:1039b4008140710051409800a081800090407800bf
:1039c400e0c060000124a00001487800904090000d
:1039d400e0c0600011409800a0818000a1818000b7
:1039e4001181fb00914090008180fb00c808dd003c
:1039f400810071000170a000f20f200002816000bc
:103a040090417800e0c1610002c171000248780071
:103a1400c808de00104190006041610081407100df
:103a240011409800902721001080fb00a12721005d
:103a34009180fb00c808dd00010070000000e00078
:103a440007003200902721001080fb00a1272100ed
:103a54009180fb00c808dd00010070000000010037
:103a640060272100904078000174a100014878008b
:103a740040d0bf000004a2000004e00001003200b6
:103a8400d9fc07000080fa00000006000200fa00da
:103a9400809380000070a000809388004200200082
:103aa4008000eb00204e200086f80700020620006c
:103ab4008000eb000020210082f80700ca24a8003f
:103ac4000040eb00004f78000b0037001e80fb0025
:103ad400b1272100008040008040eb0001487800bd
:103ae4001e80fb00e1272100008040008040eb00a5
:103af400014878001e4fe8001e407800e24f500055
:103b0400f2ff3600220020008000eb000026210096
:103b14006cf80700ca24a900002121004093880002
:103b2400002021009081880090818000a08188007d
:103b3400302821001040780030f0b70030d0bf00aa
:103b44000004e00003003a000001200070818800b6
:103b5400060037001200200001032100100020009d
:103b64007a1e070000022000708188000080fa009d
:103b7400000006000000fa001028210090407800a0
:103b840000c8b30080cf500047003a00002721004e
:103b940001ccb3000148780040282100104078008f
:103ba4000080fb00e20f500009003200e30f5000d8
:103bb40023003200e10f500037003a0080f3280060
:103bc400709388002001200090938800360037000d
:103bd40030282100104078000004e00014003a006e
:103be40030282100104078000080fb0000004000d5
:103bf40080007800a0ff28000080400010007800ba
:103c040070938800709380000080e80090407800f2
:103c14002027210001487800709380006300400051
:103c24009040780030272100014878001e003700ba
:103c3400002721008040eb00014878001a0037007b
:103c44003028210010407800e24f50000e003e0062
:103c540030282100104078000080fb000000400064
:103c640080007800c0ff2800008040001000780029
:103c74007093880070938000104078000080fb00ef
:103c84009093880008003700002721008040eb0053
:103c94000148780004003700002721008040eb0031
:103ca40001487800000000000080fa0000000600cf
:103cb4000200fa00902821008040eb0001487800bf
:103cc400a02821008040eb00014878001028210042
:103cd400904078007fc060000080fb00e10f50003e
:103ce40011003200e20f5000130032000000e00027
:103cf40046003a00809380000070a0008093880002
:103d04003ad0bf000004e0003900320090282100be
:103d140010407800804078000114a0009028210011
:103d24000148780039003700809380000070a000bb
:103d34008093880035003700809380000070a000d5
:103d44008093880050282100104078006f40600064
:103d54000004e00028003200502821009040780040
:103d640000c8b30000c060000004e00009003a008d
:103d740050282100904078006fc060000080fb0054
:103d8400800040002026210000804000100f7800b1
:103d94000800370050282100904078006fc0600070
:103da4000080fb008000400080262100008040004d
:103db400100f78001e0078009040780000c8b3000f
:103dc40000c060000004e0000d0032001e00780016
:103dd40010407800644060000004e0000a003200f3
:103de4009028210011c0b300014878000700370073
:103df4000000000005003700000000000300370049
:103e040000000000010037000000000081938000e2
:103e140000082000008060000000e000080032007c
:103e24009028210070938800809380000000a000f7
:103e3400809388002027210021c0b3000148780026
:103e44000080fa00000006000000fa00002780004d
:103e5400620060000000e0003000320090818000c9
:103e64009080fb00104090000080fb004800dd00c3
:103e7400008070008000780000082000808f5000cf
:103e840025003a00409380009080fb001040900091
:103e94000080fb004800dd00008070008000780096
:103ea40040082000808f50001b003a009081800061
:103eb40090407800e0c06000c140b3000148780041
:103ec40090409000e0c06000114098009081800014
:103ed400918180001181fb00914090008180fb0062
:103ee400c808dd00810071000170a000f20f2000fd
:103ef4000281600090417800e0c1610002c171005c
:103f040002487800c808de0010419000604161005a
:103f14008140710011409800e024a90000082000ad
:103f2400002688000080fa00000006000000fa0065
:103f34008a84a800000120000026880010c0b30075
:103f44003bf0b7004a70ef000001eb008000eb008b
:103f5400500720007d1d07000080fa0000000600c5
:103f64000000fa003b70ef000001eb008000eb0062
:103f740040072000751d07008a84a9000001200065
:103f8400402488004a70ef000080fa000000060018
:103f94000000fa00d0c2b3003ff0b7003cd0bf002d
:103fa4000080fb000020a1000000e00024003a0093
:103fb4003cd0bf000080fb004200de0000407800df
:103fc4000080fb00c300dd000020210000804000d1
:103fd4009081880090818000a0818800a081800069
:103fe4000030a200a08188009081800010407800f9
:103ff400c2c3b3008240600040c3b30080cf50000e
:104004000d003a0090818000c04090008180fb0048
:10401400504090000080fb004800dd0000807000ec
:104024008200200080007800102821001ef707007d
:104034000b00070008003700670007000600370080
:104044003cd0bf000080fb000020a100e80f50001e
:1040540001003a00a00007000080fa0000000600fa
:104064000000fa003670ef004070ef004370ef007c
:104074004470ef003e70ef003770ef004093800013
:10408400419380001181fb00914090008180fb00ee
:10409400c808dd00810071000170a100f20f20004a
:1040a4000281600090417800e0c1610002c17100aa
:1040b40002487800c808de001041900060416100a9
:1040c4008140710011409800409380000030a200ac
:1040d4004093880040938000419380001181fb004d
:1040e400914090008180fb00c808dd0081007100d0
:1040f4000170a100f20f200002816000904178005d
:10410400e0c1610002c1710002487800c808de0005
:10411400104190006041610081407100114098009d
:10412400409380000030a20040938800a08180006a
:10413400a18180001181fb00914090008180fb00ef
:10414400c808dd00810071000170a100f20f200099
:104154000281600090417800e0c1610002c17100f9
:1041640002487800c808de001041900060416100f8
:104174008140710011409800002721008040eb002d
:10418400014878000000eb0090938800602721002c
:104194008040eb00014878007027210090407800af
:1041a400e0c060000148780080272100904078003a
:1041b400e0c0600001487800e90007000001eb005e
:1041c4008000eb0030002000e01c070035fc0700f5
:1041d4000080fa00000006000000fa0037d0bf009b
:1041e400e24f500002003a002efd0700380037006d
:1041f4003770ef003ed0bf000004a2000004e000ce
:1042040032003200a0818000a0409000e0c0600035
:104214000134a0002140980030419000c1cfb30088
:104224008140610031409800a08180001128210064
:10423400f20f200002816000c0419000e0c16100e3
:1042440002c1710042409800c808de00504190004d
:10425400604161008140710051409800a08180005c
:1042640090407800e0c06000c140b300014878008d
:1042740090409000e0c0600011409800a081800050
:10428400a18180001181fb00914090008180fb009e
:10429400c808dd00810071000170a000f20f200049
:1042a4000281600090417800e0c1610002c17100a8
:1042b40002487800c808de001041900060416100a7
:1042c4008140710011409800010037003e70ef00fa
:1042d4000080fa00000006000200fa00409380000b
:1042e4001080fb004600de0061406000004f780053
:1042f400409380000030a2004093880070818000c9
:10430400e80f50000e003a003028210010407800d9
:104314008080fb00f0072000008060006026880099
:10432400602680000000e00003003200000120004d
:1043340070818800020037004000200070818800ee
:1043440037d0bf00e14f500069003a00409380002d
:1043540091282100f20f200002816000c0419000ea
:10436400e0c1610002c1710042409800c808de004b
:1043740050419000604161008140710051409800bb
:104384007dfc070036d0bf00e24f50001c003a000d
:104394004093800090407800e0c060000124a000b9
:1043a4000148780090409000e0c0600011409800ff
:1043b40040938000419380001181fb009140900064
:1043c4008180fb00c808dd00810071000170a0003d
:1043d400f20f20000281600090417800e0c161008a
:1043e40002c1710002487800c808de001041900044
:1043f400604161008140710011409800560037000f
:104404001e4078000004e0001d003a004093800044
:104414009040780060c1600081c4b30081407100a5
:104424000148780090409000e0c06000114098007e
:1044340040938000419380001181fb0091409000e3
:104444008180fb00c808dd00810071000170a000bc
:10445400f20f20000281600090417800e0c1610009
:1044640002c1710002487800c808de0010419000c3
:1044740060416100814071001140980036003700ae
:104484004093800090407800e0c060000134a000b8
:104494000148780090409000e0c06000114098000e
:1044a40040938000419380001181fb009140900073
:1044b4008180fb00c808dd00810071000170a0004c
:1044c400f20f20000281600090417800e0c1610099
:1044d40002c1710002487800c808de001041900053
:1044e4006041610081407100114098001a0037005a
:1044f400602721009040780000c8b30000c060002d
:104504000004e00013003200902721001080fb001b
:10451400a12721009180fb00c808dd000100700084
:104524000000e00007003200902721001080fb000b
:10453400a12721009180fb00c808dd000100700064
:104544000000010060272100904078000174a10060
:10455400014878003770ef000080fa000000060080
:104564000000fa0010282100104078000046b20034
:104574000004e00051003a00202821001040780097
:104584000080fb00cf80de00b2002000030020008a
:10459400820f5000838f58004a003e00000601003d
:1045a4002100370022003700480037002000370080
:1045b40046003700060037000b0037003a0037008a
:1045c4000d0037000a0037001b0037002a003700af
:1045d400809380000070a0008093880080002000f9
:1045e400708188003a00370062fd07003800370008
:1045f40026fd070036003700000321007093880071
:10460400809380000000a000809388002027210070
:1046140011c0b30001487800809380000070a000ae
:10462400809388002a003700a1fd07002800370086
:104634002900070026003700502821001040780088
:104644008080fb00002621000080400070938800d9
:10465400809380000000a000809388002027210020
:1046640011c0b30001487800809380000070a0005e
:104674008093880016003700809380000070a000ab
:104684008093880050282100104078000080fb00af
:1046940031282100914078000226210000004100c9
:1046a400014878000a0037000001eb008000eb00ad
:1046b40020002000a51b07000500370000000000b3
:1046c4000300370000000000010037000000000074
:1046d4000080fa00000006000600fa0030282100dd
:1046e40010407800e14f500010003a0010282100db
:1046f400104078007f4060000004e0000b003a00a6
:10470400809380000070a0008093880020282100fe
:1047140010407800e34f500003003a0010c0b3008b
:104724003af0b700010037003a70ef00302821005a
:10473400104078000004e0005b013a0010282100da
:10474400104078007f406000e24f500056013a006c
:1047540050282100104078006f4060000004e00001
:104764005101320050282100904078006fc0600051
:104774000080fb00e20f50004b013c00718180007f
:1047840000022000808f500047013a00809380008f
:104794000070a00080938800502821009040780089
:1047a40000c8b30000c060000004e00011003a003b
:1047b40050282100104178006f4061000080fb0008
:1047c400800040002026210000804000100f780067
:1047d40050282100904078006fc060000080fb00ea
:1047e400e1272100008040001040780040479800f5
:1047f4001000370050282100104178006f406100fc
:104804000080fb00800040008026210000804000e2
:10481400100f780050282100904078006fc060008d
:104824000080fb00b1272100008040001040780088
:10483400404798004e409000614060000004e00052
:1048440004003a001e0078000030a100000f780038
:10485400030037001e0078000030a000000f78002d
:10486400502821009040780000c8b30000c06000c8
:104874000004e0000a003a005028210010417800aa
:104884006f4061000080fb009e0078000001400042
:1048940020262100000041000108780009003700ab
:1048a40050282100904078006fc060000080fb0019
:1048b4009e00780000014000802621000000410095
:1048c400010878002028210010407800e34f5000b0
:1048d40048003a001e0078009040780000c8b300f9
:1048e40000c060000004e0001900320050282100dc
:1048f4009040780000c8b30000c060000004e000ed
:104904000a003a0050282100104178006f406100ed
:104914008080fb00e0272100008040009040780068
:104924000114a00001487800090037005028210034
:10493400904078006fc060008080fb00b0272100a9
:1049440000804000904078000114a00001487800e5
:104954001e0078009080fb00104090000080fb0057
:104964004800dd0000807000800078000120a00075
:104974001e007800f20f2000028160009041780050
:10498400e0c1610002c1710002487800c808de007d
:104994001041900060416100814071001140980015
:1049a4001e0078009080fb00104090000080fb0007
:1049b4004800dd0000807000800078000170a000d5
:1049c4001e007800f20f2000028160009041780000
:1049d400e0c1610002c1710002487800c808de002d
:1049e40010419000604161008140710011409800c5
:1049f400ad0037001e0078000030a200000f7800e0
:104a04001e0078009040780000c8b30000c0600029
:104a14000004e0002d0032001e0078009080fb00ae
:104a2400104090000080fb004800dd000080700012
:104a3400800078000170a1001e007800f20f2000b1
:104a44000281600090417800e0c1610002c1710000
:104a540002487800c808de001041900060416100ff
:104a640081407100114098001e0078009080fb0086
:104a7400104090000080fb004800dd0000807000c2
:104a8400800078000160a0001e007800f20f200072
:104a94000281600090417800e0c1610002c17100b0
:104aa40002487800c808de001041900060416100af
:104ab4008140710011409800220020009e0078007f
:104ac40050002000a11a0700140037001e007800cf
:104ad4009080fb00104090000080fb004800dd0047
:104ae40000807000800078000160a0001e00780043
:104af400f20f20000281600090417800e0c1610063
:104b040002c1710002487800c808de00104190001c
:104b14006041610081407100114098001e007800de
:104b24000030a200000f78004e4090006240600008
:104b34000004e00006003a001e007800904078006f
:104b440000c8b30000c060000004e000330032007d
:104b5400502821009040780000c8b30000c06000d5
:104b64000004e0000a003a005028210010417800b7
:104b74006f4061008080fb00e0272100008040003e
:104b8400904078000114a100014878000900370022
:104b940050282100904078006fc060008080fb00a6
:104ba400b027210000804000904078000114a1004b
:104bb400014878001e0078009080fb0010409000af
:104bc4000080fb004800dd00008070008000780059
:104bd400b0f32f00808060001e007800f20f2000e8
:104be4000281600090417800e0c1610002c171005f
:104bf40002487800c808de0010419000604161005e
:104c04008140710011409800220020009e0078002d
:104c1400500020004d1a0700150037001e007800d0
:104c24009080fb00104090000080fb004800dd00f5
:104c34000080700080007800b0f32f008080600056
:104c44001e007800f20f200002816000904178007d
:104c5400e0c1610002c1710002487800c808de00aa
:104c64001041900060416100814071001140980042
:104c7400014e200050282100104178006f4061004f
:104c84000080fb00000040000080400010079800f6
:104c94001e00900010407800804078000114a100ac
:104ca4001e009000014878000080fa000000060011
:104cb4000000fa00308280004182800061004000e0
:104cc400e080480030828800418288003bd0bf00e9
:104cd4000004a2000004e000080032004ad0bf0033
:104ce4000040e8004af0b7004ad0bf000004e000ea
:104cf40002003a0000c0eb004af0b7000080fa005e
:104d0400000006000000fa0030828000418280002a
:104d14000080fa00000006000200fa00000f78008c
:104d24001e0078008000eb00e20020000300200059
:104d3400820f5000838f58002e003e0000060100b1
:104d44000e0037000f003700100037001100370045
:104d54001200370013003700140037001500370025
:104d64001600370017003700180037001900370005
:104d74001a0037001b0037001c00370001eba800a5
:104d84001d00370011eba8001b00370021eba80021
:104d94001900370031eba8001700370041eba800d9
:104da4001500370051eba8001300370061eba80091
:104db4001100370071eba8000f00370081eba80049
:104dc4000d00370091eba8000b003700a1eba80001
:104dd40009003700b1eba80007003700c1eba800b9
:104de40005003700d1eba80003003700e1eba80071
:104df40001003700000000000080fa0000000600f7
:104e04000400fa00000f7800110798001e007800d3
:104e14008000eb00e200200003002000820f50001d
:104e2400838f58004c003e00000601000e0037003e
:104e34001100370014003700170037001a0037003c
:104e44001d003700200037002300370026003700fc
:104e5400290037002c0037002f00370032003700bc
:104e640035003700380037009e0090002158880034
:104e7400062bef00390037009e009000a1588800ef
:104e8400162bef00350037009e0090002159880052
:104e9400262bef00310037009e009000a1598800b6
:104ea400362bef002d0037009e009000215a880019
:104eb400462bef00290037009e009000a15a88007d
:104ec400562bef00250037009e009000215b8800e0
:104ed400662bef00210037009e009000a15b880044
:104ee400762bef001d0037009e009000215c8800a7
:104ef400862bef00190037009e009000a15c88000b
:104f0400962bef00150037009e009000215d88006d
:104f1400a62bef00110037009e009000a15d8800d1
:104f2400b62bef000d0037009e009000215e880034
:104f3400c62bef00090037009e009000a15e880098
:104f4400d62bef00050037009e009000215f8800fb
:104f5400e62bef0001003700000000000080fa009b
:104f6400000006000400fa00000f78001107980002
:104f74001e0078008000eb00e20020000300200007
:104f8400820f5000838f58003d003e000006010050
:104f94000e003700100037001200370014003700ed
:104fa40016003700180037001a0037001c003700bd
:104fb4001e0037002000370022003700240037008d
:104fc40026003700280037002a0037009e00900092
:104fd400615888002b0037009e009000e15888003b
:104fe400280037009e009000615988002500370092
:104ff4009e009000e1598800220037009e00900036
:10500400615a88001f0037009e009000e15a880012
:105014001c0037009e009000615b88001900370077
:105024009e009000e15b8800160037009e0090000f
:10503400615c8800130037009e009000e15c8800ea
:10504400100037009e009000615d88000d0037005d
:105054009e009000e15d88000a0037009e009000e9
:10506400615e8800070037009e009000e15e8800c2
:10507400040037009e009000615f88000100370043
:10508400000000000080fa00000006004c00fa0056
:10509400889fbe008a9fbe008c9fbe00004f980070
:1050a400510798000000eb00100798000000eb0087
:1050b400000f78006000b8002007980031079800be
:1050c4000e4890000080fb004400dd006101b80040
:1050d40002f0a7000320200002279800132798005d
:1050e40003c02700232798000400200034279800d9
:1050f4000e2090009e2090002e219000be21900052
:105104000002d0008202d000050042004220a80024
:10511400838048004200a9004220ae004200a8005b
:105124000080d30000279800112798009301800085
:105134000e2090009e2090000101780002d0fe0015
:10514400000078001000780003d0fe0061006000c9
:10515400100798001e0090000000e0003a003a009a
:105164000e4890000080fb004400dd006100b800a0
:1051740000f0a7000120200006c02700070020003f
:105184000001d0008601d000030041004220a800a5
:10519400878048004200a9004220ae004200a800d7
:1051a4000080d300930180000101780002d0fe004a
:1051b400000078009000780003d0fe00c0ff2100ba
:1051c400008060004200de006101b8005e009000d3
:1051d4000288be00de009000210090000000a100c3
:1051e400a00098000e4890000080fb004400dd0001
:1051f4006100b80000f0a700012020000ac02700c9
:105204000b0020000002d0008a02d00005004200fa
:105214004220a8008b8048004200a9004220ae0032
:105224004200a8000080d3009301800001017800af
:1052340002d0fe00000078001000780003d0fe00c9
:10524400620f6000b20037000e4890000080fb003f
:105254004400dd006100b80000f0a7000120200038
:1052640006c0270046279800020020005227980015
:105274004e229000de2290000003d0000401d000f2
:10528400020043004220a800858048004200a90093
:105294004220ae004200a8000080d30093018000a9
:1052a4000101780002d0fe000000780010007800b0
:1052b40003d0fe008000eb00c2ff210003002000a9
:1052c40080027800010278008200780003007800f0
:1052d400818062000000620080047800010478008c
:1052e4000800be0020079800310798002e009000a7
:1052f400be009000c001dd00020020005e009000ae
:105304000288be005e0090001003780090039000b5
:105314000e4890000080fb004400dd000080e8009f
:105324006100b80000f0a700012020000cc0270095
:105334000d0020008001d0000c02d0000480410048
:105344004220a8008d8048004200a9004220ae00ff
:105354004200a8000080d30093018000010178007e
:1053640002d0fe00000078001000780003d0fe0098
:105374008000eb00f2ff2000030020008002780090
:1053840001027800820078000300780081806200c6
:105394000000620070079800610798006e0090009a
:1053a400fe0090004609dd00ca01de0083017100a1
:1053b4004601dd0006014100878149005e0090003e
:1053c4000288be005e0090001003780090039000f5
:1053d4000e4890000080fb004400dd0064004000a3
:1053e4006100b80000f0a7000120200005c02700dc
:1053f400050f980002002000120f98000e0a90007a
:105404009e0a90000001d0008401d00003004100f6
:105414004220a800858048004200a9004220ae0036
:105424004200a8000080d3009301800001017800ad
:1054340002d0fe00000078001000780003d0fe00c7
:105444004a00de008000eb00f2ff2f000300200082
:10545400800278000102780082007800030078005e
:105464008180620000006200300f9800210f9800d4
:105474002e089000be089000060140008781480075
:105484005e0090000288be00de00900021009000c3
:105494000000a000a00098000e4890000080fb00cf
:1054a4004400dd00640040006100b80000f0a70083
:1054b4000120200004c02700440f980005002000ac
:1054c400550f98004e099000de0990000002d000ac
:1054d4008202d000050042004220a80083804800d8
:1054e4004200a9004220ae004200a8000080d30080
:1054f400930180000101780002d0fe0000007800d2
:105504009000780003d0fe0000202000008f60008f
:105514001e0078000000e000050032005e009000ec
:10552400a00090000110a00021009800380137006d
:10553400de009000210090000010a100a00098005f
:105544005e009000300290000e4890000080fb0046
:105554004400dd00660040006100b80000f0a700d0
:105564000120200006c02700660f980002002000da
:10557400720f98006e099000fe0990008002d0001e
:105584000203d000068042004220a8008380480025
:105594004200a9004220ae004200a8000080d300cf
:1055a400930180000101780002d0fe000000780021
:1055b4001000780003d0fe0000407800004a780014
:1055c4005e009000300090000002e8000e48900059
:1055d4000080fb004400dd00660040006100b8006c
:1055e40000f0a7000120200002c027000217980045
:1055f40003002000131798000e1190009e119000d4
:105604008002d0000203d000068042004220a8009d
:10561400838048004200a9004220ae004200a80056
:105624000080d300930180000101780002d0fe00c5
:10563400000078001000780003d0fe004800de006f
:1056440000407800004a78005e009000300090002e
:105654000082e8000e4890000080fb004400dd005a
:10566400680040006100b80000f0a700012020009d
:1056740002c0270022179800030020003317980067
:105684002e119000be1190008002d0000203d000c1
:10569400068042004220a800838048004200a900fe
:1056a4004220ae004200a8000080d3009301800095
:1056b4000101780002d0fe0000007800100078009c
:1056c40003d0fe0000407800004a78005e0090009d
:1056d40030009000630240000e4890000080fb0000
:1056e4004400dd00680040006100b80000f0a7003d
