:020000040000fa
:080000002002040000000000d2
:020000040000fa
:0400080022030000cf
:020000040000fa
:04000c0022030000cb
:020000040000fa
:0400100022030000c7
:020000040000fa
:0400140022030000c3
:020000040000fa
:0400180022030000bf
:020000040000fa
:04001c0022030000bb
:020000040000fa
:0400200022030000b7
:020000040000fa
:0400240022030000b3
:020000040000fa
:0400280022030000af
:020000040000fa
:04002c0022030000ab
:020000040000fa
:0400300022030000a7
:020000040000fa
:0400340022030000a3
:020000040000fa
:04003800220300009f
:020000040000fa
:04003c00220300009b
:020000040000fa
:040040002203000097
:020000040000fa
:040044002203000093
:020000040000fa
:04004800220300008f
:020000040000fa
:04004c00220300008b
:020000040000fa
:040050002203000087
:020000040000fa
:040054002203000083
:020000040000fa
:04005800220300007f
:020000040000fa
:04005c00220300007b
:020000040000fa
:040060002203000077
:020000040000fa
:040064002203000073
:020000040000fa
:04006800220300006f
:020000040000fa
:04006c00220300006b
:020000040000fa
:040070002203000067
:020000040000fa
:040074002203000063
:020000040000fa
:04007800220300005f
:020000040000fa
:04007c00220300005b
:020000040000fa
:040080002203000057
:020000040000fa
:040084002203000053
:020000040000fa
:04008800220300004f
:020000040000fa
:04008c00220300004b
:020000040000fa
:040090002203000047
:020000040000fa
:040094002203000043
:020000040000fa
:04009800220300003f
:020000040000fa
:04009c00220300003b
:020000040000fa
:0400a0002203000037
:020000040000fa
:0400a4002203000033
:020000040000fa
:0400a800220300002f
:020000040000fa
:0400ac00220300002b
:020000040000fa
:0400b0002203000027
:020000040000fa
:0400b4002203000023
:020000040000fa
:0400b800220300001f
:020000040000fa
:0400bc00220300001b
:020000040000fa
:0400c0002203000017
:020000040000fa
:0400c4002203000013
:020000040000fa
:0400c800220300000f
:020000040000fa
:0400cc00220300000b
:020000040000fa
:0400d0002203000007
:020000040000fa
:0400d4002203000003
:020000040000fa
:0400d80022030000ff
:020000040000fa
:0400dc0022030000fb
:020000040000fa
:0400e00022030000f7
:020000040000fa
:0400e40022030000f3
:020000040000fa
:0400e80022030000ef
:020000040000fa
:0400ec0022030000eb
:020000040000fa
:0400f00022030000e7
:020000040000fa
:0400f40022030000e3
:020000040000fa
:0400f80022030000df
:020000040000fa
:0400fc0022030000db
:020000040000fa
:0401000022030000d6
:020000040000fa
:0401040022030000d2
:020000040000fa
:0401080022030000ce
:020000040000fa
:04010c0022030000ca
:020000040000fa
:0401100022030000c6
:020000040000fa
:0401140022030000c2
:020000040000fa
:0401180022030000be
:020000040000fa
:04011c0022030000ba
:020000040000fa
:0401200022030000b6
:020000040000fa
:0401240022030000b2
:020000040000fa
:0401280022030000ae
:020000040000fa
:04012c0022030000aa
:020000040000fa
:0401300022030000a6
:020000040000fa
:0401340022030000a2
:020000040000fa
:04013800220300009e
:020000040000fa
:04013c00220300009a
:020000040000fa
:040140002203000096
:020000040000fa
:040144002203000092
:020000040000fa
:04014800220300008e
:020000040000fa
:04014c00220300008a
:020000040000fa
:040150002203000086
:020000040000fa
:040154002203000082
:020000040000fa
:04015800220300007e
:020000040000fa
:04015c00220300007a
:020000040000fa
:040160002203000076
:020000040000fa
:040164002203000072
:020000040000fa
:04016800220300006e
:020000040000fa
:04016c00220300006a
:020000040000fa
:040170002203000066
:020000040000fa
:040174002203000062
:020000040000fa
:04017800220300005e
:020000040000fa
:04017c00220300005a
:020000040000fa
:040180002203000056
:020000040000fa
:040184002203000052
:020000040000fa
:04018800220300004e
:020000040000fa
:04018c00220300004a
:020000040000fa
:040190002203000046
:020000040000fa
:040194002203000042
:020000040000fa
:04019800220300003e
:020000040000fa
:04019c00220300003a
:020000040000fa
:0401a0002203000036
:020000040000fa
:0401a4002203000032
:020000040000fa
:0401a800220300002e
:020000040000fa
:0401ac00220300002a
:020000040000fa
:0401b0002203000026
:020000040000fa
:0401b4002203000022
:020000040000fa
:0401b800220300001e
:020000040000fa
:0401bc00220300001a
:020000040000fa
:0401c0002203000016
:020000040000fa
:0401c4002203000012
:020000040000fa
:0401c800220300000e
:020000040000fa
:0401cc00220300000a
:020000040000fa
:0401d0002203000006
:020000040000fa
:0401d4002203000002
:020000040000fa
:0401d80022030000fe
:020000040000fa
:0401dc0022030000fa
:020000040000fa
:0401e00022030000f6
:020000040000fa
:0401e40022030000f2
:020000040000fa
:0401e80022030000ee
:020000040000fa
:0401ec0022030000ea
:020000040000fa
:0401f00022030000e6
:020000040000fa
:0401f40022030000e2
:020000040000fa
:0401f80022030000de
:020000040000fa
:0401fc0022030000da
:020000040000fa
:0402000022030000d5
:020000040000fa
:0402040022030000d1
:020000040000fa
:0402080022030000cd
:020000040000fa
:04020c0022030000c9
:020000040000fa
:0402100022030000c5
:020000040000fa
:0402140022030000c1
:020000040000fa
:0402180022030000bd
:020000040000fa
:04021c0022030000b9
:020000040000fa
:0402200022030000b5
:020000040000fa
:0402240022030000b1
:020000040000fa
:0402280022030000ad
:020000040000fa
:04022c0022030000a9
:020000040000fa
:0402300022030000a5
:020000040000fa
:0402340022030000a1
:020000040000fa
:04023800220300009d
:020000040000fa
:04023c002203000099
:020000040000fa
:040240002203000095
:020000040000fa
:040244002203000091
:020000040000fa
:04024800220300008d
:020000040000fa
:04024c002203000089
:020000040000fa
:040250002203000085
:020000040000fa
:040254002203000081
:020000040000fa
:04025800220300007d
:020000040000fa
:04025c002203000079
:020000040000fa
:040260002203000075
:020000040000fa
:040264002203000071
:020000040000fa
:10040000efff0000ffff0000ffff0000ffff000004
:10041000ffff0000ffff0000ffff0000ffff0000e4
:10042000ffff0000ffff0000ffff0000ffff0000d4
:10043000ffff0000ffff0000ffff0000ffef0000d4
:020000040000fa
:10044000af6024000eff27000e01880000000000ae
:10045000000020000000e000020032000001200047
:100460002002880014000700780007000000e00068
:1004700003003a0040ff2100010020000200370085
:100480000000200001002000810f700001003200f8
:100490000f000700000020000000e0000200320012
:1004a0000000020000000000161f02000000000013
:1004b0000040da000000fe00c00f20000000e00055
:1004c0000200320000202000900188000000060099
:1004d000a1028800800478000000eb001f003700b4
:1004e000e284440054a0b4009905ba00e2844400b8
:1004f00054a0b4009906ba00e284440054a0b400a9
:100500000006eb00476fde00fd07b200ae01880079
:10051000636ce10003003a000ad801000000eb0020
:100520000e003700606ce10008003a00004deb005f
:100530000a05e800020039003420ec000af0a000af
:100540008b05e900f9ff3e00040037006168e10017
:10055000010032000086eb000b00070019c7ba004b
:100560000e04e0001905ba0003003a000a00e0009a
:10057000dbff3a0000000600fe07b200ae02880072
:100580008a047800f5ff37000cd0a300e20f4d007d
:100590001c003b0089027800354dba000a05e800ce
:1005a000020039003420ec000af0a0008b05e900bd
:1005b0000f003200254dba000a05e800020039009c
:1005c0003420ec000af0a0008b05e900080032009e
:1005d0000c00e0000600320015cdba000a05e80064
:1005e000020039003420ec000af0a0008b05e9007d
:1005f0008984e80054a0b4000b00e000e2ff3a0058
:10060000000006009902ba00055d78008b05e9003c
:10061000f7ff3200c82ade00055d78008b05e9008f
:10062000f3ff32000c00e000f1ff320019ddba00e8
:10063000eeff37000002040000000000e61e040088
:10064000000000000040da000000fe00000005008d
:100650006022b800060220000000d0008180d20095
:100660000482d2008582d2000000a0000202520063
:1006700083825a00030031000202420083824a0052
:100680000000a1000603e900f3ff3a0000000600a5
:10069000efff07000400be000000060080017800a4
:1006a00002003700b15978000201e9000200e000c1
:1006b000fcff3a0000000600889fbe008a9fbe0033
:1006c000800478000200e0005b0032000140780006
:1006d000814c780082814400f1f99f00e20f5100c3
:1006e0005500360091449800a1449800e1f99f001c
:1006f000d1f99f00e60f51004f003600b144980039
:10070000c1f99f00e80f51004b0036000905ea00cf
:10071000630565000a8444000a055100c1ff2f00eb
:10072000010565000080fb008000eb001210200036
:100730001310200044000700008cbe000a01440092
:1007400060b99f0071b99f00e80f55003a0036006c
:100750002004980031049800400498005104980047
:1007600020b99f0031b99f0040b99f0051b99f0047
:10077000f80f5500300036006004980071049800ae
:10078000000c9800110c9800200c9800310c980077
:10079000400c9800510c980020b19f0031b19f008f
:1007a00040b19f0051b19f0060b19f0071b19f00a7
:1007b00000b99f0011b99f006401640078014100f5
:1007c00002044400020555006011b8000203be0097
:1007d0000002be000403be006022b80000007200e8
:1007e0008180720002017300838173001000370062
:1007f000009cbe000294be00400498005104980082
:100800006204980073049800000c9800110c980082
:10081000220c9800330c9800400c9800510c980062
:10082000620c9800730c98000a02b1000802b00034
:10083000ff0f5500eeff3e00090078004f05be0097
:100840004f04be0000000600020ab900001bb900f8
:100850000200b80081004200810043000000060051
:020000040000fa
:10086000040300000904000014030000530000000a
:1008700075000000640000006f0000004d000000e3
:10088000610000006b0000006500000072000000c5
:100890002003000050000000490000004300000059
:1008a0006f000000420000006f0000006f000000b9
:1008b00074000000200000004c0000006f000000e9
:1008c000610000006400000065000000720000008c
:1008d0000403000030000000090200004300000093
:1008e0000201000000c00000320900000400000006
:1008f00000010000020200000100000005240000c9
:1009000000100000010400002402000000050000a7
:100910002406000000010000052400000100000082
:100920000107000005810000030a0000000200002a
:100930000904000001000000020a0000000000009d
:100940000007000005020000024000000000000057
:1009500007050000820200004000000000000000c7
:100960006c8400003084000034840000488400005f
:100970006884000000b40000c4040000005a0000b5
:100980006202000053750000646f00004d610000ba
:100990006b6500007200000043610000727400008b
:1009a000426f0000792000005257000020760000be
:1009b000320000004d690000637200006f630000a8
:1009c00068690000700000003333000045500000eb
:1009d00032350000364d000055380000303600003a
:1009e00000000000000400000000000000400000c3
:1009f0000000000000600000020000000002000093
:100a000000000000000400000004000000000000de
:100a1000ff3f00000000000000a8000002000000ee
:100a2000ffaf000002000000763000002e30000012
:100a300032000000ff010000000000000000000084
:100a40000004000002010000000500000911000080
:080a5000010400000100000098
:020000040000fa
:100a58000080fb008181fb00000140000281410011
:100a68004411dd0003202100030141001274a1009c
:100a78000104e00005003a000000400041032100a5
:100a880000804000020878000400370000004000a1
:100a98006107210000804000020878001264a1006c
:100aa800680141001264a000000006005181800026
:100ab80000c4b300f2032000828f50000e003e00f5
:100ac80001407800e1002100914078000104e00035
:100ad80004003a0013c0b300e20021000349780083
:100ae80005003700e1cf500003003a0023c0b300ef
:100af800e200210003497800a10221000081fb00e7
:100b080091081100b1838000a1419000a240980093
:100b1800b1419000c2cfb30002c16100b240980059
:100b28002112210081808800810221009100780033
:100b3800e180600004003200630221000004e0004c
:100b48000c003a00120037000004e00010003200e8
:100b58006302210013017800818080009258780098
:100b6800818088008209e8000040e900f9ff3a0026
:100b780007003700130178008180800092587800c0
:100b8800818088008209e8000040e900f9ff3a0006
:100b98000000060000c8b300a1112100914f100009
:100ba80035003a0001ccb3008002210001487800ea
:100bb800d011210010407800e24f500009003200a7
:100bc800e34f50001a003200e14f500028003a006d
:100bd800201a2100308188002001200050818800df
:100be80025003700c01121001004e0000d003a0074
:100bf8001080fb0000004000014b280000804000ee
:100c08001000780030818800a10221002041900066
:100c180082487800b1022100304090008048780076
:100c280015003700800221000048eb001200370051
:100c3800c011210031c0b30090cf100009003e0060
:100c48001080fb0000004000214b2800008040007d
:100c580010007800308188001080fb0050818800e7
:100c680005003700800221000048eb000200370031
:100c7800800221000048eb00000006000040eb0065
:100c88002112210080487800311221008048780024
:100c9800a0112100104078007f4060000080fb0018
:100ca800e10f50000b003200e20f50000c00320040
:100cb8000000e00026003a00800221001070a00029
:100cc8000350e20022003200201221001014a0007c
:100cd8001f003700800221001070a0001c003700a0
:100ce800800221001070a000e01121001004e00033
:100cf80008003500104078006f4060000080fb005d
:100d0800000040004103210000804000900078006e
:100d180008003700e0112100104078006f406000a3
:100d28000080fb00000040006107210000804000b7
:100d38009000780040c8b3009140600080cf500018
:100d480003003a0011c0b3002012210001487800c6
:100d58000008200081022100110060000700320015
:100d68002012210030818800010078001000a000c6
:100d780021c0b300a002210001487800000006004d
:100d8800e024ab0022003200508080009080fb00fd
:100d9800104190004811dd00028170000108200018
:100da800810f510019003a00b18380009181fb0046
:100db800114190004811dd000281710041082000b6
:100dc800810f510011003a0090407800c1c0b30073
:100dd80001487800904090008040eb001140980056
:100de800508080001081fb0090409000c808dd0012
:100df800810071000170a00010417800014878005e
:100e0800c808de001041900011409800e024a900b5
:100e1800000820000026880000000600881f7800cf
:100e280060072100900078001184fb004644de0032
:100e3800614464000130a20001087800308080001d
:100e4800e80f50000b003a00c01121001080fb0091
:100e5800f007b20060268800cc04e20003003200ec
:100e68000001200030808800020037004000200088
:100e7800308088000fd0bf00e14f500049003a0091
:100e8800b083800021122100404190004140980029
:100e9800c808de00504190005140980003ff070049
:100ea8000ed0bf00e24f500014003a006107210045
:100eb800110078001041780042c0b3000248780061
:100ec800104190000041eb0012409800110078009a
:100ed8009080fb00104190004811dd008280700076
:100ee8000170a0001041780001487800c808de00b1
:100ef8001041900011409800380037000804e000c5
:100f080014003a00610721001100780010417800b0
:100f180082c4b30002487800104190000041eb0001
:100f280012409800110078001081fb00904090005a
:100f3800c808dd00810071000170a0001041780030
:100f480001487800c808de00104190001140980060
:100f58002200370061072100110078001041780055
:100f680082c0b30002487800104190000041eb00b5
:100f780012409800110078001081fb00904090000a
:100f8800c808dd00810071000170a00010417800e0
:100f980001487800c808de00104190001140980010
:100fa8000e003700e00221001004e0000a003d00b6
:100fb800100321009080fb00200321001080fb001b
:100fc8004800dd00008070000100320000000100d0
:100fd800e00221001074a1000f70ef004f047800a8
:100fe800000006000470ef000001eb0082007800aa
:100ff800400720004e0c07008a84a9000001200049
:10100800402488000970ef00000006008a84a800c8
:10101800000120000026880010c0b30004f0b700cb
:101028000970ef000001eb008200780050072000f3
:101038003f0c070000000600889fbe00c011210079
:1010480011c0b30090cf10000e003a00a01121008b
:10105800104078007f4060000a003a0080022100ba
:101068001070a000b011210032c0b300904f1100e1
:1010780003003a000140780003f0b7000100370090
:101088000370ef00c01121001004e000b2003a0024
:10109800a0112100104078007f406000e24f50000e
:1010a800ad003a00e0112100104078006f40600068
:1010b800a9003200e0112100104078000002200051
:1010c8000610e300a4003a00800221001070a0007e
:1010d800e01121001004e0000e00350010417800f6
:1010e800ef4061008180fb008180400042032100c5
:1010f8008100410011047800104078006f406000c2
:101108000080fb00910f210000804000904478008f
:101118000e003700e011210010417800ef40610017
:101128008180fb008180400062072100810041002e
:1011380011047800104078006f4060000080fb00c8
:10114800810d210000804000904478000908a30028
:1011580002003a000830a100010037000830a00062
:10116800e01121001004e00008003500104078006c
:101178006f4060000080fb00000040004103210038
:10118800008040000808780008003700e0112100be
:10119800104078006f4060000080fb0000004000b5
:1011a800610721000080400008087800b011210084
:1011b80031c0b30090cf10001c003a001804e000c2
:1011c80011003d00e01121001004e0000700350087
:1011d800104078006f4060000080fb00910f2100f4
:1011e800008040001014a00007003700e011210023
:1011f800104078006f4060000080fb00810d2100e6
:10120800008040001014a0001880fb009840900057
:10121800c808dd00010070004008b300004c7800e9
:101228004800de00104498004b0037008800780022
:101238000130a2001104e0000d003d001180fb0008
:10124800114190004811dd00020070000070a100fb
:101258000060a000804878004800de0090409800b8
:101268002200200050002000b10b070008003700c2
:101278001180fb00114190004811dd000200700050
:101288000060a000804878004800de009040980088
:101298000918a30002003a001804e0001e003d00ef
:1012a800e01121001004e00007003500104078002c
:1012b8006f4060000080fb00910f2100008040001b
:1012c8001014a10007003700e01121001040780039
:1012d8006f4060000080fb00810d2100008040000d
:1012e8001014a1001880fb0098409000c808dd0089
:1012f800b003b20000807000004c78004800de00a7
:101308001044980022002000880078005000200037
:10131800870b0700080037001880fb0098409000f2
:10132800c808dd00b003b20000807000004c7800ef
:101338004800de0010449800e011210010407800b9
:101348006f4060000080fb0000004000014e20005c
:10135800010040001014a1004f04be000000060068
:10136800800221001070a000020420008000eb0021
:10137800204e2000cefc0700024220008000eb0037
:1013880000202100cafc0700ca24a800700d210013
:10139800820f2100830f21008040eb000168780054
:1013a80001697800830f5000fcff3a00800b210090
:1013b8001f0009000058eb00ca24a90000212100e1
:1013c800b083880000202100508088006080880059
:1013d800c01121001040780008f0b7000004e000b8
:1013e80003003a0000012000308088000600370022
:1013f8001200200081002100020078004c0b070039
:10140800000220003080880000000600a0112100a2
:1014180001c6b30010c0600045003a00b0112100b9
:101428001080fb008000eb00eb0f5000e08f5800ad
:101438003f003e00000601001e0037001f00370075
:101448003b0037001d003700390037000600370021
:101458000a003700320037000c0037000900370057
:101468001800370024003700800221001070a00007
:1014780080002000308088002d003700c5fd07005f
:101488002b003700b6ff0700290037008000210035
:1014980030818800800221009000780013c0b300da
:1014a800a2022100034978001108b300010878005e
:1014b8001f003700f1fd07001d003700defe0700a2
:1014c8001b003700e01121001081fb00810b210077
:1014d800600221000108410080022100900078008c
:1014e80013c0b300a2022100034978001108b30019
:1014f800010878000e003700800221001070a0005b
:10150800e0112100104078000080fb00810b2100d1
:1015180000804000c1112100114878000400370004
:101528000001eb008200780020002000000b07007b
:10153800000006002ac8a9000080eb0020268800c9
:1015480000268800e024ef00020420008000eb0061
:10155800204e200056fc0700dc24ef00de24ef00bc
:101568008e44a900f0092000302688001026880043
:101578008ac4a8009004a800002021004800de00ca
:10158800702688000000eb00032021006022b800cc
:1015980042082000c300dd00818041008488be002d
:1015a8000000e800820f5000faff3a00ca24a800a1
:1015b800cc24ef00caa4a900ca24a90080002000f6
:1015c80000268800c064ab00fdff3a000040eb0035
:1015d8008102210080487800e102210080487800db
:1015e800f10221008048780001032100804878003a
:1015f80010c0b30016f0b70017f0b7000270ef0084
:101608000070ef000470ef0045072100240321005b
:10161800730d2100820f21008040eb000000eb00d9
:101628008143780016c2b300802a7800002a780027
:1016380080697800076978008140e80086cf50000b
:10164800f9ff3a0000212100b0838800d000200073
:1016580000278800a0112100209088002020210068
:1016680001c02f00908060000160a0000108780090
:101678000020210041002000010878001070a0001f
:101688000870ef001830ef001a30ef000970ef0013
:101698000630ef0000000600889fbe008a1f780011
:1016a80000457800814478000984fb000838a300cd
:1016b800030032008040eb000a407800e4fc070099
:1016c8000828a3000300320011c0b3000a407800c4
:1016d800dffc07000a85fb000a054500004e2000d4
:1016e8000a054000094d78004f0578004f04be00f8
:1016f800000006000104e000060032000082fb0042
:1017080004024200650721000482420014027800a6
:10171800050037000082fb00040242004503210057
:1017280004824200140278008002eb000400e0000a
:1017380038003200c4429000424298004811de004e
:10174800d4429000524298008381fb00f20f20009f
:10175800a442900023429800b4429000c3cfb30043
:1017680083c16200334298009481fb009442900048
:101778000304b2009442780002ca6100c819de006e
:1017880094429000134298009482fb009441900088
:10179800c819dd00838172000330a00094427800ec
:1017a80002ca6100c819de009442900013429800f2
:1017b8009482fb0094419000c819dd008381720077
:1017c8000370a0009442780002ca6100c819de00c4
:1017d80014419000134298000104e0000700320011
:1017e8000080fb00000040006107210000804000ed
:1017f8001030a20084027800060037000080fb0049
:101808000000400041032100008040001030a20089
:101818008402780005007800000006000004e0005b
:1018280035003a0060808000a04090008041eb00c5
:1018380001c4b3002140980030419000c1cfb300eb
:10184800814061003140980060808000a111210032
:10185800f20f20004042900041409800c808de0086
:10186800504290005140980060808000904078007d
:10187800c1c0b30001487800904090001340980020
:10188800608080001082fb0090409000c808dd0056
:10189800810072000170a0001042780002c8600048
:1018a800c808de001042900011409800610721002e
:1018b800110078001042780044c0b3000448780052
:1018c8001042900013409800110078009081fb00ae
:1018d80090409000c808dd00818071000170a00070
:1018e8009041780002c86000c808de0010419000ee
:1018f800114098001b0037008180fb000080fb002e
:1019080000004000008040004400dd000420210069
:10191800840040001181fb0091429000c82add003c
:10192800850271004308200085827100f20f2000b3
:1019380082c86200c82ade0095409800680040000e
:10194800040040001082fb0090409000c808dd00b1
:10195800810072008180710002c86000c808de0042
:101968001140980000000600889fbe00caa4ab0082
:10197800480032008080fb00818040006007210021
:1019880081004000110078001081fb009041900018
:10199800c819dd000304710020419000b041900097
:1019a8000604200007002000860278000801630072
:1019b800f40f200010447800044861004814de0049
:1019c80090449000184098002044900027409800c8
:1019d8004839de00b041900032409800110078008c
:1019e8001084fb0090449000c84cdd00090174008d
:1019f800204490000884fb00b0449000c84cdd00ef
:101a08008901740006016900878169001043780024
:101a1800044861004813de00904390001640980087
:101a280020439000234098004819de00b041900000
:101a380032409800110078000030a2008008780039
:101a48009081fb00104190004811dd000281710077
:101a58000501610090417800044861004811de00ea
:101a68009041900012409800110078001081fb000e
:101a780090409000c808dd008100710085826800f0
:101a88009040780004c86200c82ade0090409000a8
:101a9800154098004f04be0000000600881f78001b
:101aa8001650e2005c003a0010c0b30016f0b70010
:101ab8001750e20058003a0017f0b7000fd0bf00e7
:101ac800e24f50001b003a00610721001100780026
:101ad800204190000041eb002240980030429000e5
:101ae800c3cfb300834162003340980011007800ef
:101af8009041780083c4b300034878009041900077
:101b080012409800110078001081fb00904090006e
:101b1800c808dd00810071000170a0001041780044
:101b280001487800c808de00104190001140980074
:101b380039003700e14f500037003a001470ef00c9
:101b480050808000a04090008040eb0005c4b300a6
:101b58002540980030419000c4cfb3000441610093
:101b68003240980050808000a2112100f70f200019
:101b78008701610040439000434098004811de000f
:101b880050439000524098005080800010437800e5
:101b980046c0b300064878001043900011409800f2
:101ba800508080001083fb00104490004844dd0002
:101bb800080373000670a00010447800074863000b
:101bc8004833de00904390001640980010c0b300e0
:101bd80014f0b700608080002043900025409800f2
:101be800b042900004c262003440980060808000d7
:101bf8004042900043409800d041900052409800e5
:101c0800608080001041780002c8b3000248780064
:101c180010419000114098004f0478000000060021
:101c2800881f78005080800020439000304090004a
:101c3800f00221001080fb00010321009180fb00cd
:101c4800c808dd00010070008680fb00808f50000e
:101c580001003600004378008680fb000100500038
:101c6800f1022100804878004800de0001032100cd
:101c7800804878000604e000110032008000eb0084
:101c8800c3022100d202210028122100f70f2000f0
:101c98009382fb001280fb004800dd000102440033
:101ca8000080720014587800874960004800de0000
:101cb800004978008100e800814f5300f4ff3e009e
:101cc800f00221001080fb00010321009180fb003d
:101cd800c808dd0001007000390032006080800013
:101ce800a040900001c4b30021409800304190000a
:101cf800c1cfb3008140610031409800608080000e
:101d0800211221004041900041409800c808de009f
:101d180050419000514098005080800001c4b300a9
:101d280010c0600013003a00608080009040780086
:101d380081c4b30001487800904090008040eb00d7
:101d480011409800608080009080fb001041900056
:101d58004811dd00828070000170a00010417800f9
:101d680001487800c808de00104190001140980032
:101d780041003700608080009040780081c0b30047
:101d880001487800904090008040eb001140980096
:101d9800608080009080fb00104190004811dd00b9
:101da800828070000170a00010417800014878001e
:101db800c808de0010419000114098002e0037003e
:101dc80060808000a040900001c4b30021409800ca
:101dd80030419000c1cfb30081406100314098008c
:101de80060808000a111210040419000414098008e
:101df800c808de0050419000514098006080800083
:101e08009040780041c0b3000148780090409000ad
:101e18008040eb0011409800608080009080fb00bb
:101e2800104190004811dd00828070000170a00010
:101e38001041780001487800c808de001041900081
:101e480011409800100321001080fb00210321009d
:101e58009180fb00c808dd0001007000010032001d
:101e680000000100e00221001074a1000150e2000e
:101e780001003a0009ff07004f047800000006003f
:101e88000fd0bf00e24f500002003a0064ff070085
:101e9800260037000f70ef001450e20022003a00cd
:101ea80060808000a040900001c4b30021409800e9
:101eb80030419000c1cfb3008140610031409800ab
:101ec80060808000a11121004041900041409800ad
:101ed800c808de00504190005140980060808000a2
:101ee80090407800c1c0b30001487800904090004d
:101ef8008040eb0011409800608080001081fb005a
:101f080090409000c808dd00810071000170a000b9
:101f18001041780001487800c808de0010419000a0
:101f280011409800010037001470ef00000006000f
:101f38000270ef000070ef000fd0bf00e24f5000ba
:101f480022003a0060808000a040900001c4b300e5
:101f58002140980030419000c1cfb300814061001a
:101f6800314098006080800021122100404190009b
:101f780041409800c808de00504190005140980048
:101f8800608080009040780081c4b30001487800e8
:101f9800904090008040eb001140980060808000e5
:101fa8001081fb0090409000c808dd00810071009e
:101fb8000170a0001041780001487800c808de00d0
:101fc80010419000114098002b00370000122100aa
:101fd8001080fb00111221009180fb00c808dd0071
:101fe80081007000a0022100908f5000070031008e
:101ff800001221009080fb00101221001081fb00cc
:102008004811dd00a002210001087100a7fa0700ad
:10201800610721001100780022122100c0419000c0
:10202800424098004811de00d0419000524098008c
:10203800110078001041780082c4b300024878008b
:10204800104190000041eb00124098001100780008
:102058001081fb0090409000c808dd0081007100ed
:102068000170a0001041780001487800c808de001f
:10207800104190001140980000000600caa4a90071
:1020880000082000810221001100600040003a0091
:10209800e00221001004e00008003d0020c0b30069
:1020a8000ff0b7000050e20001003a00a0ff07005f
:1020b8001770ef001670ef006b003700608080002b
:1020c800a04090008041eb0001c4b300214098007b
:1020d80030419000c1cfb300814061003140980089
:1020e80060808000a1112100f20f20004042900082
:1020f80041409800c808de005042900051409800c6
:102108006080800090407800c1c0b300014878002a
:102118009040900013409800608080001082fb007f
:1021280090409000c808dd00810072000170a00096
:102138001042780002c86000c808de001042900013
:1021480011409800610721001100780010427800c2
:1021580044c0b3000448780010429000134098002f
:10216800110078009081fb0090409000c808dd00c5
:10217800818071000170a0009041780002c8600061
:10218800c808de0010419000114098003600370062
:10219800a01121001004e0000b003d0010c0b300a6
:1021a8000ff0b7000250e20001003a0060ff07009c
:1021b8001770ef001670ef000150e2002a003a0095
:1021c80036fe07002800370020c0b3000ff0b70024
:1021d80060808000a040900001c4b30021409800b6
:1021e80030419000c1cfb300814061003140980078
:1021f80060808000a111210040419000414098007a
:10220800c808de005041900051409800608080006e
:102218009040780041c0b300014878009040900099
:102228008040eb0011409800608080001081fb0026
:1022380090409000c808dd00810071000170a00086
:102248001041780001487800c808de00104190006d
:10225800114098001770ef001670ef000150e2006f
:1022680001003a000dfe0700000006000e70ef00a6
:102278000170ef000270ef000070ef001470ef00c3
:102288000f70ef0061072100110078001081fb003a
:10229800104290004822dd00040271000470a10081
:1022a800f30f2000104178000041eb000348620062
:1022b8004822de00904290001440980011007800f7
:1022c8000030a200800878009082fb001042900045
:1022d8004822dd00048272000470a1009042780058
:1022e800034862004822de009042900014409800a3
:1022f8001130a200608080001082fb0090409000a6
:10230800c808dd00810072000170a1001042780049
:1023180003c86000c808de00904190001140980092
:1023280080022100024878000000eb0050818800fc
:10233800e102210080487800f0022100024878007c
:10234800000321000248780030fc07000001eb0080
:1023580082007800300020007507070047ff07005b
:1023680000000600d0c2b30015f0b700210121001b
:102378009140780001007800b00fb2001a003a00ce
:102388008100d000811fb200002021008080400021
:1023980051808800010078000030a2006080880029
:1023a800c0c3b3001141600040c3b300804f510067
:1023b8000b003a00414190000281fb00514090001f
:1023c8004800dd0000007100a1112100070009008c
:1023d800b05878008000b100a4ff0700050037005e
:1023e800a7fe070003003700e80f500001003a007d
:1023f8008afa070000000600c0808000d1808000b3
:1024080061004000e0804800c0808800d1808800da
:102418000450e20004003a000950ec0009f0b7004b
:1024280001003a0009f0ef0000000600889fbe0096
:102438008a1f7800308080000000e00011003a0018
:10244800ca24ef00c224ef00dc24ef00de24ef00f2
:102458008e44a900f0092000302688001026880044
:102468008ac4a800ca04ab0003003a00ca04a80042
:10247800ca04ab00fdff3200100020003080880045
:1024880002003700e10f500009003a00cac4ab004f
:1024980007003a00f0fe2f0000268800c224ef0053
:1024a800c204a800c284a800200020003080880050
:1024b8008884ab00050032008a84ab000300320038
:1024c8000001200040248800c6fa07009024ab00d1
:1024d800020032000ac8a9006b003700c004ab0034
:1024e80007003200c204ab000500320011fc0700ef
:1024f800400020003080880010002000002688005e
:10250800c084ab0003003200c284ab00010032007b
:10251800befa070088c4ab000300320000042000a4
:1025280040248800b4ff0700c044ab000e0032000e
:10253800c244ab0004003200120020008000eb000f
:1025480030072000fa060700400020000026880017
:1025580015d0bf00030032000040e90015f0b700b5
:1025680001003a004dfd0700c0e4ab000300320053
:10257800c2e4ab000100320001fa0700c024ab003e
:1025880009003200c224ab0007003200120020000c
:102598008000eb00f0ff2700e5060700c4a4ef0069
:1025a800200020000026880030808000e30f5000c3
:1025b80002003e000ac8a90033003700c264ab001d
:1025c8003000320048c0b300c064ab0004003a00d9
:1025d8002c003700c064ab0003003a002900370024
:1025e800990f21008a0d2100412680002001210039
:1025f800014878000181fb004411de0002407800a8
:1026080002427800330121008449780082002000ca
:10261800022688000138a30008003a008080fb00e9
:10262800818044009141780061c161000204a200e8
:102638000304a10082c87100080037008080fb00f5
:102648008100450011427800614162000204a20045
:10265800844178000304a10082c871000004e000ee
:1026680002003a003fff0700040037000001eb00ba
:102678002101210020072000ad0607000844e900d9
:10268800d4ff3a000ac8a9004f0578004f04be00dd
:1026980000000600c0808000d18080000000060095
:1026a8008001eb00810f5000050039008280400056
:1026b80013002000810f5000010039008001eb0059
:1026c800030078000000060081762100114178009f
:1026d8008281fb00847421008301420080497800d4
:1026e8000240e800804878000080fb0000000600f7
:1026f8000040eb0081762100804878006174210059
:1027080080487800000006000a00fa00889fbe0092
:102718008a1f780080447800010578000244780018
:10272800e84f540004003e000881fb008a0078004e
:1027380070805700d7f707000980fb008000eb0086
:1027480061005000e0805800ef0f5000e08f580003
:1027580013013e00000601000f0037001400370087
:10276800130037001200370011003700100037003f
:10277800a6003700b0003700ba003700b5003700b0
:10278800f0003700f7003700fe0037000800370078
:102798000a0037008e003700b07e21008ff09700c6
:1027a80001487800c20407000000fe00fc00370062
:1027b8000077210009487800f90037000040eb0055
:1027c80080ff9f003100200080742100c6050700ab
:1027d800b1742100914f50000300320010c0b300c3
:1027e80080ff9f00750037009074210090447800a6
:1027f800a074210010457800807421001004e000c6
:102808004b003a000984fb002077210000044400b3
:10281800420020006177210008007800a0ff07002f
:102828000000e00014003200e27a21001281fb006f
:10283800f37a21009381fb00c819dd0003007100c1
:10284800027b21001281fb00137b21009381fb0096
:10285800c819dd0083007100525525005355250025
:10286800820f5000838f58004a00320030c0b300f6
:1028780080ff9f005100370042002000a17721000f
:102888000800780086ff07000000e000140032000e
:10289800227b21001281fb00337b21009381fb0006
:1028a800c819dd0003007100427b21001281fb0082
:1028b800537b21009381fb00c819dd008300710060
:1028c8005255250053552500820f5000838f58001c
:1028d8003200320030c0b30080ff9f00370037005d
:1028e8000201200061792100080078006cff0700d0
:1028f800710320000000e00029003200e07c210084
:102908001004e00003003a00d17d21005004e000eb
:102918000300320030c0b30080ff9f00270037005b
:10292800810f5000f9ff3a00710320001c003700a6
:102938000984fb00207e21000004440012002000ce
:10294800a17e21000800780055ff07000000e00084
:102958000d003a0012002000217e210008007800b6
:102968004fff07000000e00007003a0012002000b7
:10297800617e21000800780049ff070091002000cf
:102988000000e0000600320030c0b30080ff9f0066
:102998000a0037007103200001003700710320008e
:1029a8008984fb00898f50000300310040c0b300c8
:1029b80080ff9f00010037000a4c780012002000b9
:1029c800e880570000622100e60407007400370021
:1029d8000040eb0080ff9f000ff097000084fb0091
:1029e8000808a300010032001f0207000818a3000e
:1029f800010032002e04070012002000e880570072
:102a080000622100d7040700650037000fb897005f
:102a18009fb897008100d1000080d30050bb880088
:102a280061bb88000881fb008a00780000622100f1
:102a3800cc0407005a0037008fb8970071bb880094
:102a48000881fb008a00780000622100c5040700a5
:102a580053003700a1c0b300007721000148780077
:102a68004f0037000040eb0080ff9f000ff09700f9
:102a7800e14f50001a003a00227b21001281fb002e
:102a8800337b21009381fb00c819dd00030071002e
:102a9800427b21001281fb00537b21009381fb00c4
:102aa800c819dd00830071005255250053552500d3
:102ab800820f5000838f58000300320030c0b300eb
:102ac80080ff9f001a003700d2278400e327840084
:102ad800b0278400c127840065020700140037006e
:102ae8000004e00012003a00d2278400e3278400a3
:102af800b0278400c12784005d02070020772100e9
:102b0800f1ff2f0037000900015878008003b10059
:102b1800f1ceb30001487800d301070011c0b3001b
:102b2800b07e210001487800e10307000000fe00a4
:102b380012002000e8805700006221008904070085
:102b48001700370040002000e202070080ff9f00c6
:102b580012002000e880570000622100810407006d
:102b68000f00370080002000da02070080ff9f0076
:102b780012002000e8805700006221007904070055
:102b88000700370000012000d202070080ff9f00e5
:102b980012002000e880570000622100710407003d
:102ba8004f0578004f04be000080fa0000000600c0
:102bb8000600fa00881f780000047800e8805700b3
:102bc800006221005a0407000000e00011003a00ea
:102bd80001c2b3005fb89700014878004fb897006a
:102be800184878001804e0000a003200100020009d
:102bf80002022000cfb9970080804100d8487800b1
:102c08001804e000030032000000e800820f5000c2
:102c1800f8ff3a00007721000048eb004f047800e5
:102c28000080fa0000000600ec874700889fbe007d
:102c38008a9fbe008c9fbe008e1f780000772100ff
:102c4800104078000004e000b1003200542ea800c3
:102c5800e54f50001700320006003e00e34f5000d9
:102c68000e00320010003e00e24f5000a7003a006c
:102c780007003700ea4f500035003200ee4f500091
:102c880012003200e64f5000a0003a000c00370056
:102c980040512800c6ff07009c003700c04c2800a0
:102ca800c3ff070099003700204c2800c0ff070029
:102cb80096003700404e2800bdff070093003700fc
:102cc800a04d2800baff07009000370070bb8000b5
:102cd8000000e00015003a00201621003f0009001e
:102ce8000058eb00807421001004e00005003a0051
:102cf800211621002277210037000900b2587800f8
:102d08000400370023162100207e21000900090055
:102d1800b05978000202200072bb880021162100f9
:102d2800006221000f04070078003700020220002b
:102d380021182100006221000a0407000000eb00ae
:102d480070bb880001772100804878006f00370049
:102d580078bb8000f880570000622100f403070068
:102d68000000e00064003a006141b800f2b79f003b
:102d780083bf9f0000042000800f5100e08f59009e
:102d8800040036000204200003002000f2b79f0070
:102d980083bf9f007fb097008fb89700e00f500067
:102da800e08f5800510032002a002000180020004f
:102db8006066b800a9762100eb7a2100fe7a21002e
:102dc8001900780099009000820107000000e000d7
:102dd8000f003a001b81fb009e81fb00c819dd0033
:102de80003007100037b21001381fb00137b21008a
:102df8009381fb00c819dd0083007100525525003e
:102e080053552500820f5000838f5800110032005f
:102e1800cfb197000c80410031c6b300014878005b
:102e2800cfb097000880400011c6b3000148780071
:102e38004fb197000a00410061c6b300014878000d
:102e4800cfb197000880410051c6b30021409800d7
:102e5800160037001900780099009000ce0207008c
:102e6800cfb197000c81410000497800cfb197009d
:102e780008814100c80ade00c809dd004802de00fa
:102e88000482710004497800cfb197000a8141009b
:102e9800400ade000500200004497800cfb1970001
:102ea800088141004808de002041980020002000e9
:102eb80001002000990c4000d9944800e0762100d8
:102ec800900078006488500064064600e0864e0052
:102ed80064044400640545007fb197008fb99700ea
:102ee8008c0f51008d8f5900b5ff3e005fb09700e1
:102ef800efe997000348780070bb80000000e0000d
:102f080002003a00007721000048eb00542ea90087
:102f18004f0778004f06be004f05be004f04be00a5
:102f2800cf00b10000000600889fbe008a9fbe0047
:102f38008c9fbe008e1f7800810578000b00e00092
:102f480027003200800478000004eb006a74210036
:102f5800ac5128008d7621008e742100394078000c
:102f6800542ea8001a04e0000d003a008080fb00ef
:102f780081004600914078000104e00004003a0016
:102f88000041eb008000eb00dffd07001000370078
:102f9800e1cf40000e003200004d78000c003700f1
:102fa800c9fd07009a4178008380fb008100460034
:102fb8009100fb00810f500005003a001d41780088
:102fc8008e00780003407800cffd0700c8fd070099
:102fd800542ea9000804e800888f5500dfff3e0042
:102fe8004f0778004f06be004f05be004f04be00d5
:102ff80000000600881f78000004780041032000c4
:1030080008007800cd030700407498004801de00ee
:1030180052749800617498004808de007074980033
:103028004f04780000000600889fbe00c070900022
:103038008180fb00507190004811dd00028470000f
:10304800e07090008180fb00707190004811dd00f5
:103058008284700041032000b803070000046c005c
:1030680081846c000884740008f0a7000804ea0052
:103078000800ea004f00de004f04be000000060012
:10308800889fbe008a1f7800f027840001288400ea
:1030980050bb880061bb880028772100aa7a2100ec
:1030a800a976210019007800990090003a020700db
:1030b800004c78004809dd004800de00000071007f
:1030c800c808de00104498002000200001002000fd
:1030d800990c4000d99448000884e8008a0f5400ed
:1030e800f0ff3a006000b80050bb880061bb880060
:1030f80020772100f1ceb30090cf100020003a00d5
:1031080011c0b300014878000041eb00317721007d
:1031180082487800417721008248780051c5b30081
:10312800637721008149780073772100814978000d
:1031380083772100814978009377210081497800bd
:10314800a377210081497800b3772100814978006d
:10315800c377210081497800d3772100814978001d
:10316800e177210082487800e178210082487800e0
:10317800627921000f0009000059eb009dff07004c
:1031880020772100a8ff07000000e00011003200ae
:10319800a0cab300617721008048780071772100c8
:1031a8008048780081772100804878009177210055
:1031b80080487800a177210080487800b177210005
:1031c80080487800c177210080487800d1772100b5
:1031d80080487800a07a2100217721003700090073
:1031e800315878004f0578004f04be0000000600f3
:1031f8000001be00f4278400052884008000eb004d
:10320800820f5200838f5a0007003e008403b000eb
:103218000580b00011002000840f5100858f5900ef
:10322800010039008000eb00010078000000060072
:103238002177210001004000104290000482fb0029
:103248008002eb004829dd00c821de0083017100ff
:103258004821dd001080fb008000eb0000007100b9
:1032680081807100000006000800fa00889fbe00f7
:103278008a9fbe008c9fbe000f0f7800182884001c
:103288008800d10011079800fa2784000b288400d1
:103298006141b8000a00be00ebf407008889b90054
:1032a8000804b8008904410058bb880069bb88003d
:1032b8001e0190004210dd000080e8008087470072
:1032c8001e0078000200e0003d0032002007980050
:1032d800300798000006eb00ad7621001d0078004d
:1032e8009d009000ac0107003e0190000099be00cf
:1032f8003207980020002000010020009d0e4000a9
:10330800dd9648000c06e8009e0090008c8f500067
:10331800f2ff3e000800be00ac0107002077210044
:1033280034ff070058bb880069bb88000006eb0023
:10333800ad7621001d0478009d0490000800be00b1
:10334800abff07000000e000040032000a00540050
:10335800b7ff07000001be00030037002e009000f1
:1033680010017800900190000800be00af0107002e
:1033780020002000010020009d0e4000dd9648003e
:103388000c06e800ae009000e48040002107980099
:103398001e0190008c0f5100e6ff3e006000b8004f
:1033a80050bb880061bb88009e0778004f06be00ae
:1033b8004f05be004f04be000080fa000000060062
:1033c8000800be00810107002077210009ff0700df
:1033d800f2ff370042502800b20f5000a28f580069
:1033e800050039001200200083502800b30f500058
:1033f800a38f58000b0036006228840073288400cd
:10340800800f5100818f590005003e0012002000f6
:1034180003512800b30f5000a38f58000100360055
:103428000001eb000200780000000600889fbe0043
:103438000004be0065010700e00f5400e08f5c0047
:1034480009003a0092278400a32784000320a000e3
:103458006000b800750107006011b8002000200066
:1034680001002000710107004f04be0000000600a3
:10347800ea874700889fbe008a9fbe008c9fbe00d7
:103488008e1f7800d0b79f00e1b79f000206be00ec
:10349800e00f5100e08f5900220032006000b800b0
:1034a800f0b79f0081bf9f00ae7621001a288400e4
:1034b8008005eb007fb197008fb997005fb2970046
:1034c800efb297000204420083844a00088fbe00ce
:1034d8000800be00bfff07000000e00008003a0037
:1034e8000a01be000800be0067f40700e00f5000a4
:1034f800e08f580002003a000800be00cbff07002a
:103508007fb097008fb8970062004000e0804800c5
:10351800f0b79f0081bf9f00800f5600818f5e002b
:10352800e4ff3e006011b80052bb880063bb88000e
:103538004f0778004f06be004f05be004f04be007f
:10354800af00b10000000600e6874700889fbe0074
:103558008a9fbe008c9fbe008e1f78000004be00ac
:10356800020778009bff070041c0b3000000e0009d
:1035780051003a001c2884008006eb000c01be00b4
:103588000800be0040f40700e00f5000e08f58002c
:103598001d003a000800be00a4ff0700fa278400b7
:1035a8000b2884000c01be000800be0026f40700aa
:1035b800f0b79f0081bf9f000c01be000a00be004b
:1035c80021f407007fb197008fb99700800f510051
:1035d800818f59000c003a000006eb008d03200093
:1035e8000c00780012ff07000001be000a00be00b0
:1035f8000e0107000c86e80062054500e0854d00d5
:103608008d0f5600f6ff3a008040eb00e00f5400a3
:10361800e08f5c0028003200e20f5400e08f5c006d
:10362800250032000800be00f1fe07008040eb00d4
:103638000000e00020003a001e80fb008000eb0044
:103648001e4190000281fb008001eb00481ddd0057
:10365800c815de008b0575004815dd002e41900069
:103668008281fb0002002000020575008385750039
:1036780000057500818575003e409000c800dd009a
:103688000000200000057500818575000a01be0054
:103698000800be00e50007000800be00be000700e5
:1036a8000001be0021c0b3008a0f51008b8f590062
:1036b80001003a008040eb00014078004f07780095
:1036c8004f06be004f05be004f04be006f00b1009c
:1036d80000000600889fbe008a9fbe000005780093
:1036e800207b21001080fb00317b21009180fb00b2
:1036f800c808dd0001017000407b21001080fb003c
:10370800517b21009180fb00c808dd008101700019
:1037180030c0b3005455250055552500840f51007d
:10372800858f59001e003a008a00780080742100b5
:10373800ed010700004178008174210081004500f7
:1037480010c0b300914f510015003a000040eb0043
:103758000a00e000120032000004eb008b74210024
:10376800a976210008814500190078009900900089
:1037780075ff07000004e00002003200e44f50002b
:1037880007003a002200200003002000990c4100a5
:10379800d994490064044400880f5500f1ff3e00a5
:1037a8004f05be004f04be00000006004000200088
:1037b800a0708800242eef00342eef00442eef0076
:1037c800542eef00642eef00b09f2f008070880009
:1037d800000027000071880090fd2000807188009b
:1037e800f00f200000728800b10320008172880069
:1037f800013c2000017388001c2eef002c2eef00e6
:103808003c2eef004c2eef005c2eef006c2eef00ec
:103818001a2eef002a2eef003a2eef004a2eef0064
:103828005a2eef006a2eef00362eef00562eef00cc
:10383800662eef00b1932f00f1708800010026007a
:1038480071718800010c2000f17188007072880085
:103858000034200070738800000006002000230058
:10386800203a88004827ef0000302800703a880086
:1038780060022000303a8800304c2a00c03a8800a4
:1038880070002000d03a88006027ef006227ef0020
:103898006427ef006627ef006827ef006a27ef002c
:1038a8006c27ef00a10920003200200080072000cb
:1038b8003374200080497800814978008249780073
:1038c80071052000120020006004200023742000ed
:1038d8008049780081497800824978000000eb002f
:1038e800042020000302200080004200914078005c
:1038f800e1c06000e1806000a27280000200a100c7
:1039080002817000a2728800540ea9000000e8002d
:10391800830f5000f4ff3a004207ab00feff3a0065
:1039280001022000123a800002806000fdff320090
:1039380000000600a0002000e1010700b07e210081
:1039480011c0b30090cf100003003a000048eb000c
:10395800100020000f003700407721001040780049
:103968000004e000080032000081fb008001eb0049
:103978001000200034bf800045bf8000820f520035
:10398800838f5a000300310090708000610060004e
:103998000000a20000000600a40280000181fb00d4
:1039a800a20288001001ba008001eb001080ba0062
:1039b800a40288008000eb00c000dd0000002000a9
:1039c80002007000838070000000060022042400ba
:1039d80042398800a20280008181fb00a30288008e
:1039e8008001eb000308bb00c3e8a9000000000049
:1039f800000000005005200070398800a00a20004f
:103a08007039880029e7a8000000000000000000c5
:103a1800010028004339800003806000fdff3a0060
:103a2800a202880029c7a90000000600340024006b
:103a380044398800a5028000f40f200001036200c9
:103a4800a60288000208bb00030262000488bb00cb
:103a5800c3e8a90000000000000000005005200095
:103a680070398800a00a20007039880029e7a8006a
:103a7800000000000000000001002800423980001a
:103a880002806000fdff3a00a502880029c7a9004e
:103a980000000600f05f2400217e210092602400cf
:103aa800d0587800820f5000fdff3a000000060051
:103ab800207e2100f15f2400c27e2100b0687800da
:103ac800820f5000fdff3a0000000600889fbe00ec
:103ad800920009000018eb006012b1000600e00037
:103ae80008003200160478009604900058009900e7
:103af8006900990026049000b604900078009900a7
:103b0800090899004100990022509a0033509a0000
:103b180044509a0055509a004f04be000000060019
:103b2800881f78000004780058509200d1c1b30073
:103b3800d9f607005850920003c4b3000801780072
:103b48008040eb00ebf60700101499000000eb0032
:103b5800001499004f04780000000600a11121000c
:103b680091407800ffc06000e1cf500019003a0092
:103b7800a111210003c6b30011c1610001c2b30045
:103b8800814f510013003a00a0509200e211210029
:103b980092cf10000400320030509200820078006a
:103ba800914f10000b003a00b011210011c0b30072
:103bb80090cf100007003e00401b21003081880094
:103bc800800020005081880001ccb30080022100d1
:103bd8000148780000000600889fbe008a9fbe004a
:103be80000047800181091000000e0000200320084
:103bf8001004e00020003500e8449200a040900046
:103c08008180fb0030459000630565004855dd0064
:103c18000a8570000941e8006141610062449a0028
:103c28000281fb004611dd00020144005850920059
:103c380003c4b3008040eb00aef6070010149900ef
:103c48000980fb00000044000a4099002008b000e9
:103c58000048eb00d80191000300e00006003200a4
:103c68000a81fb008980fb00c608dd008100440052
:103c780048009100030001004f05be004f04be003c
:103c880000000600881f7800000478008810910062
:103c98000100e0000300320020c0b3001104e0007e
:103ca80019003500f84092000180fb000000440034
:103cb800c04192000040eb000304e0001200320013
:103cc80042082000080141008180fb00c608dd0091
:103cd800010141005850920011c0b30085f6070059
:103ce80000149900784092000040e80061406000ac
:103cf80070449a000080fb00000444004810b000a3
:103d0800004ceb0010c0b3004f0478000000060020
:103d1800881f78000004780008007800d9ff0700a1
:103d280008007800acff07004f0478000000060088
:103d38004308200080814100704192000281fb000d
:103d48004611dd0082884100704192000281fb002b
:103d58004210b00002004000900098000000eb0004
:103d6800000006000600fa00889fbe008104780063
:103d780002047800ea805700edff07008000780011
:103d88000080eb00808f50000b0032000004200000
:103d9800800f540001003600000478000801780004
:103da800890078003fb897003af207004fb89700ab
:103db80008487800080078004f04be000080fa0028
:103dc80000000600010078008200780056fc070019
:103dd800000006002410ec0020818800f111260064
:103de800810f5000010036002430ef002081800050
:103df8004401de00414922000111b800b13929000f
:103e08000100b8004608de00034068006100600059
:103e1800a17280000100a10081007000a1728800d9
:103e280000000600881f780060fe07004007ab000e
:103e3800020032004007a9001100370015ff0700f3
:103e4800207e2100120020000300200010084100fd
:103e58005090490011c0b300a07e210001487800ad
:103e68004087ab00060032004087a90021c0b3009c
:103e780001487800607e21001008410050904900f8
:103e88007ffc0700abfe07000004780008ff07006e
:103e98000800e00005003a00b0278400ae000700e3
:103ea800100020004f047800000006006bfe070099
:103eb800c601210025c0b30014c0b30084417800b6
:103ec8000041eb008000eb0000622100fffe0700cc
:103ed8006b000700a200070054f9070070000700f4
:103ee800bcff0700fbff370000c1eb000100e0004a
:103ef800100032000002eb008600200015c3b3005a
:103f080030416900860178000204e00003003d00aa
:103f180002414100054169000100370002414100aa
:103f28008301e900f8ff3a000402e800848f50009a
:103f3800f3ff3e000240780000000600889fbe00a4
:103f48008a9fbe008c9fbe000003780001064300d4
:103f58000080eb008080eb008c0f53001a003100ca
:103f68000080eb008080eb008d00200008322800e4
:103f780089db2e0088057800090578003684fb0067
:103f88008004eb0008006800898068008d037800d1
:103f98008104d1000084d3008001eb00610160003e
:103fa80060001100e0801900810265000082650050
:103fb80008006a0089806a008703e900f4ff3a0074
:103fc800860f5600edff3e000080ea008180ea007f
:103fd8004f06be004f05be004f04be00000006009d
:020000040000fa
:103fe800b411000008000000800000002610000046
:103ff8003c01000080000000001000001c000000d0
:104008008000000000120000200400008000000072
:10401800a21100001200000082000000120100003e
:1040280002ef02000140d8000466e9000100010027
:104038000203010046170000a600000080000000ef
:1040480062110000400000008000000020160000ff
:1040580026010000800000001c100000080000007d
:1040680082000000e61e00000000000000000000c2
:104078002410000002000000800000000000000082
:020000040000fa
:104088002cf507000000060000622100a4fe0700ce
:104098000000060000622100b0fe070000000600d4
:1040a80030808000ff0f5000040036009024ab00e1
:1040b80002003a000062210015ff07000000060018
:1040c800881f78008a9fbe00000478000800e0007e
:1040d800060032000ae823000b0020000a00be0098
:1040e800050007000804e900fcff3a004f05be0080
:0840f8004f04780000000600ef
:020000040000fa
:10410000f03fb1000180b10006003500ee03090068
:1041100000000000403fb1000180b100fbff3d0006
:104120001000b000203fb000020035000080090000
:08413000000000000000060081
:020000040000fa
:10413800e10f500003003200e30f500004003a0082
:1041480002003700d0ff070001003700d1ff070049
:1041580010c0b300000006000004010000000600c3
:08416800b1fa07000000060097
:020000040000fa
:0200000401f009
:04000800cfffff0027
:020000040000fa
:0200000401f009
:04000c0078ffff007a
:020000040000fa
:0200000401f009
:040010007affff0074
:020000040000fa
:0200000401f009
:040014007fffff006b
:020000040000fa
:0200000401f009
:04001800efffff00f7
:020000040000fa
:0200000401f009
:04001c00dfffff0003
:020000040000fa
:0200000401f009
:04002000cfffff000f
:00000001FF
