:020000040000fa
:080000000004040000000000f0
:020000040000fa
:04000800d004000020
:020000040000fa
:04000c00d00400001c
:020000040000fa
:04001000d004000018
:020000040000fa
:04001400d004000014
:020000040000fa
:04001800d004000010
:020000040000fa
:04001c00d00400000c
:020000040000fa
:04002000d004000008
:020000040000fa
:04002400d004000004
:020000040000fa
:04002800d004000000
:020000040000fa
:04002c00d0040000fc
:020000040000fa
:04003000d0040000f8
:020000040000fa
:04003400d0040000f4
:020000040000fa
:04003800d0040000f0
:020000040000fa
:04003c00d0040000ec
:020000040000fa
:04004000d0040000e8
:020000040000fa
:04004400d0040000e4
:020000040000fa
:04004800d0040000e0
:020000040000fa
:04004c00d0040000dc
:020000040000fa
:04005000d0040000d8
:020000040000fa
:04005400d0040000d4
:020000040000fa
:04005800d0040000d0
:020000040000fa
:04005c00d0040000cc
:020000040000fa
:04006000d0040000c8
:020000040000fa
:04006400d0040000c4
:020000040000fa
:04006800d0040000c0
:020000040000fa
:04006c00d0040000bc
:020000040000fa
:04007000d0040000b8
:020000040000fa
:04007400d0040000b4
:020000040000fa
:04007800d0040000b0
:020000040000fa
:04007c00d0040000ac
:020000040000fa
:04008000d0040000a8
:020000040000fa
:04008400d0040000a4
:020000040000fa
:04008800d0040000a0
:020000040000fa
:04008c00d00400009c
:020000040000fa
:04009000d004000098
:020000040000fa
:04009400d004000094
:020000040000fa
:04009800d004000090
:020000040000fa
:04009c00d00400008c
:020000040000fa
:0400a000d004000088
:020000040000fa
:0400a400d004000084
:020000040000fa
:0400a800d004000080
:020000040000fa
:0400ac00d00400007c
:020000040000fa
:0400b000d004000078
:020000040000fa
:0400b400d004000074
:020000040000fa
:0400b800d004000070
:020000040000fa
:0400bc00d00400006c
:020000040000fa
:0400c000d004000068
:020000040000fa
:0400c400d004000064
:020000040000fa
:0400c800d004000060
:020000040000fa
:0400cc00d00400005c
:020000040000fa
:0400d000d004000058
:020000040000fa
:0400d400d004000054
:020000040000fa
:0400d800d004000050
:020000040000fa
:0400dc00d00400004c
:020000040000fa
:0400e000d004000048
:020000040000fa
:0400e400d004000044
:020000040000fa
:0400e800d004000040
:020000040000fa
:0400ec00d00400003c
:020000040000fa
:0400f000d004000038
:020000040000fa
:0400f400d004000034
:020000040000fa
:0400f800d004000030
:020000040000fa
:0400fc00d00400002c
:020000040000fa
:04010000d004000027
:020000040000fa
:04010400d004000023
:020000040000fa
:04010800d00400001f
:020000040000fa
:04010c00d00400001b
:020000040000fa
:04011000d004000017
:020000040000fa
:04011400d004000013
:020000040000fa
:04011800d00400000f
:020000040000fa
:04011c00d00400000b
:020000040000fa
:04012000d004000007
:020000040000fa
:04012400d004000003
:020000040000fa
:04012800d0040000ff
:020000040000fa
:04012c00d0040000fb
:020000040000fa
:04013000d0040000f7
:020000040000fa
:04013400d0040000f3
:020000040000fa
:04013800d0040000ef
:020000040000fa
:04013c00d0040000eb
:020000040000fa
:04014000d0040000e7
:020000040000fa
:04014400d0040000e3
:020000040000fa
:04014800d0040000df
:020000040000fa
:04014c00d0040000db
:020000040000fa
:04015000d0040000d7
:020000040000fa
:04015400d0040000d3
:020000040000fa
:04015800d0040000cf
:020000040000fa
:04015c00d0040000cb
:020000040000fa
:04016000d0040000c7
:020000040000fa
:04016400d0040000c3
:020000040000fa
:04016800d0040000bf
:020000040000fa
:04016c00d0040000bb
:020000040000fa
:04017000d0040000b7
:020000040000fa
:04017400d0040000b3
:020000040000fa
:04017800d0040000af
:020000040000fa
:04017c00d0040000ab
:020000040000fa
:04018000d0040000a7
:020000040000fa
:04020800d00400001e
:020000040000fa
:04020c00d00400001a
:020000040000fa
:04021000d004000016
:020000040000fa
:04021400d004000012
:020000040000fa
:04021800d00400000e
:020000040000fa
:04021c00d00400000a
:020000040000fa
:04022000d004000006
:020000040000fa
:04022400d004000002
:020000040000fa
:04022800d0040000fe
:020000040000fa
:04022c00d0040000fa
:020000040000fa
:04023000d0040000f6
:020000040000fa
:04023400d0040000f2
:020000040000fa
:04023800d0040000ee
:020000040000fa
:04023c00d0040000ea
:020000040000fa
:04024000d0040000e6
:020000040000fa
:04024400d0040000e2
:020000040000fa
:04024800d0040000de
:020000040000fa
:04024c00d0040000da
:020000040000fa
:04025000d0040000d6
:020000040000fa
:04025400d0040000d2
:020000040000fa
:04025800d0040000ce
:020000040000fa
:04025c00d0040000ca
:020000040000fa
:04026000d0040000c6
:020000040000fa
:04026400d0040000c2
:020000040000fa
:04026800d0040000be
:020000040000fa
:04026c00d0040000ba
:020000040000fa
:04027000d0040000b6
:020000040000fa
:04027400d0040000b2
:020000040000fa
:04027800d0040000ae
:020000040000fa
:04027c00d0040000aa
:020000040000fa
:04028000d0040000a6
:020000040000fa
:04028400d0040000a2
:020000040000fa
:04028800d00400009e
:020000040000fa
:04028c00d00400009a
:020000040000fa
:04029000d004000096
:020000040000fa
:04029400d004000092
:020000040000fa
:04029800d00400008e
:020000040000fa
:04029c00d00400008a
:020000040000fa
:0402a000d004000086
:020000040000fa
:0402a400d004000082
:020000040000fa
:0402a800d00400007e
:020000040000fa
:0402ac00d00400007a
:020000040000fa
:0402b000d004000076
:020000040000fa
:0402b400d004000072
:020000040000fa
:0402b800d00400006e
:020000040000fa
:0402bc00d00400006a
:020000040000fa
:0402c000d004000066
:020000040000fa
:0402c400d004000062
:020000040000fa
:0402c800d00400005e
:020000040000fa
:0402cc00d00400005a
:020000040000fa
:0402d000d004000056
:020000040000fa
:0402d400d004000052
:020000040000fa
:0402d800d00400004e
:020000040000fa
:0402dc00d00400004a
:020000040000fa
:0402e000d004000046
:020000040000fa
:0402e400d004000042
:020000040000fa
:0402e800d00400003e
:020000040000fa
:0402ec00d00400003a
:020000040000fa
:0402f000d004000036
:020000040000fa
:0402f400d004000032
:020000040000fa
:0402f800d00400002e
:020000040000fa
:0402fc00d00400002a
:020000040000fa
:04030000d004000025
:020000040000fa
:04030400d004000021
:020000040000fa
:04030800d00400001d
:020000040000fa
:04030c00d004000019
:020000040000fa
:04031000d004000015
:020000040000fa
:04031400d004000011
:020000040000fa
:04031800d00400000d
:020000040000fa
:04031c00d004000009
:020000040000fa
:04032000d004000005
:020000040000fa
:04032400d004000001
:020000040000fa
:04032800d0040000fd
:020000040000fa
:04032c00d0040000f9
:020000040000fa
:04033000d0040000f5
:020000040000fa
:04033400d0040000f1
:020000040000fa
:04033800d0040000ed
:020000040000fa
:04033c00d0040000e9
:020000040000fa
:04034000d0040000e5
:020000040000fa
:04034400d0040000e1
:020000040000fa
:04034800d0040000dd
:020000040000fa
:04034c00d0040000d9
:020000040000fa
:04035000d0040000d5
:020000040000fa
:04035400d0040000d1
:020000040000fa
:04035800d0040000cd
:020000040000fa
:04035c00d0040000c9
:020000040000fa
:04036000d0040000c5
:020000040000fa
:04036400d0040000c1
:020000040000fa
:04036800d0040000bd
:020000040000fa
:04036c00d0040000b9
:020000040000fa
:04037000d0040000b5
:020000040000fa
:04037400d0040000b1
:020000040000fa
:04037800d0040000ad
:020000040000fa
:04037c00d0040000a9
:020000040000fa
:04038000d0040000a5
:020000040000fa
:10040000efff0000ffff0000ffff0000ffff000004
:10041000ffff0000ffff0000ffff0000ffff0000e4
:10042000ffff0000ffff0000ffff0000ffff0000d4
:10043000ffff0000ffff0000ffff0000ffef0000d4
:020000040000fa
:100800000f0121000e5f22000e0188000000000091
:10081000000020000000e000020032000001200083
:1008200020028800140007005f0007000000e000bd
:1008300003003a00c0d92100010020000200370067
:100840000000200001002000810f70000100320034
:1008500014000700000020000000e0000200320049
:100860000000020000000000be1c020000000000aa
:100870000040da000000fe004440a90020102000e3
:100880000000e0000300320000002000a00188000a
:100890004440a800000006008a1f78008b1f7800e3
:1008a0000000060091018800800478000000eb0041
:1008b0001a003700e284440032a0b4009905ba005f
:1008c000e284440032a0b4009906ba00e2844400f5
:1008d00032a0b4000006eb00476fde00fd07b20057
:1008e000636ce10003003a00ebff07000000eb003f
:1008f0000a003700606ce10004003a00005deb0084
:100900008b05e900fdff3e00040037006168e1004f
:10091000010032000086eb000b00070019c7ba0087
:100920001905ba000e04e00003003a000a00e000d6
:10093000e0ff3a0000000600fe07b2009e018800ba
:100940008a047800f5ff3700395dba008b05e900ad
:100950000c003200295dba008b05e9000800320066
:100960000c00e00003003a00e284440032a0b4002e
:10097000f5ff370019ddba008b05e900faff3a00f0
:100980008904e800e184440032a0b40000000600bd
:100990000000000000000000000000000000000057
:1009a0000040da000000fe00000005006022b800f0
:1009b000060220000000d0008180d2000482d20014
:1009c0008582d2000000a0000202520083825a00f9
:1009d000030031000202420083824a000000a100ad
:1009e0000603e900f3ff3a0000000600efff0700ee
:1009f0000400be00000006008001780002003700fd
:100a0000b15978000201e9000200e000fcff3a0061
:100a100000000600889fbe008a9fbe008004780008
:100a20000200e0005b00320001407800814c780059
:100a300082814400f1f99f00e20f51005500360019
:100a400091449800a1449800e1f99f00d1f99f00da
:100a5000e60f51004f003600b1449800c1f99f00e5
:100a6000e80f51004b0036000905ea0063056500f8
:100a70000a8444000a055100c1ff2f0001056500ea
:100a80000080fb008000eb001210200013102000fb
:100a900044000700008cbe000a01440060b99f00ba
:100aa00071b99f00e80f55003a0036002004980005
:100ab00031049800400498005104980020b99f0028
:100ac00031b99f0040b99f0051b99f00f80f550000
:100ad000300036006004980071049800000c980003
:100ae000110c9800200c9800310c9800400c9800d4
:100af000510c980020b19f0031b19f0040b19f0080
:100b000051b19f0060b19f0071b19f0000b99f007b
:100b100011b99f006401640078014100020444009f
:100b2000020555006011b8000203be000002be00bd
:100b30000403be006022b8000000720081807200d1
:100b4000020173008381730010003700009cbe0017
:100b50000294be004004980051049800620498007a
:100b600073049800000c9800110c9800220c980057
:100b7000330c9800400c9800510c9800620c9800bf
:100b8000730c98000a02b1000802b000ff0f550074
:100b9000eeff3e00090078004f05be004f04be0086
:100ba00000000600020ab900001bb9000200b800ec
:0c0bb000810042008100430000000600ac
:020000040000fa
:100bbc0004030000090400001403000053000000ab
:100bcc0075000000640000006f0000004d00000084
:100bdc00610000006b000000650000007200000066
:100bec0020030000500000004900000043000000fa
:100bfc006f000000420000006f0000006f0000005a
:100c0c0074000000200000004c0000006f00000089
:100c1c00610000006400000065000000720000002c
:100c2c000403000030000000090200004300000033
:100c3c000201000000c000003209000004000000a6
:100c4c000001000002020000010000000524000069
:100c5c000010000001040000240200000005000048
:100c6c002406000000010000052400000100000023
:100c7c000107000005810000030a000000020000cb
:100c8c000904000001000000020a0000000000003e
:100c9c0000070000050200000240000000000000f8
:100cac000705000082020000400000000000000068
:100cbc001a860000de850000e2850000f685000043
:100ccc001686000000480000e80100000024000027
:100cdc00f400000053750000646f00004d610000cb
:100cec006b65000072000000506f00007461000022
:100cfc00746f000043680000697000002050000011
:100d0c00494300006f320000340000004d690000c0
:100d1c00637200006f6300006869000070000000df
:100d2c005049000043320000344600004a360000af
:100d3c003447000042300000303200000000000058
:100d4c000004000000000000004000000000000053
:100d5c000084000000000000000200000000000001
:100d6c00000400000004000000000000ff2300004d
:100d7c000000000000b000000a000000ffbf0000ef
:100d8c000a000000763000002e3000003200000017
:100d9c00ff01000000000000000000000004000043
:100dac000201000000050000091100000104000010
:040dbc000100000032
:020000040000fa
:100dc0000080fb008181fb000001400002814100a6
:100dd0004311dd0003a020000301410012f0a10037
:100de0000104e00004003a000000400041832000bc
:100df0008230780003003700000040006187200047
:100e00008230780012e0a1006401410012e0a000ed
:100e1000000006005141800000c4b300f20320002e
:100e2000828f50000e003e0001407800e1802000db
:100e3000914078000104e00004003a0013c0b300c0
:100e4000e28020000349780005003700e1cf500020
:100e500003003a0023c0b300e28020000349780079
:100e6000a18220000081fb0091081100b1438000a5
:100e700080487800219220008140880081822000f3
:100e800091007800e180600004003200638220005d
:100e90000004e0000c003a00120037000004e000fb
:100ea000100032006382200013017800814080002e
:100eb00092587800814088008209e8000040e900eb
:100ec000f9ff3a00070037001301780081408000e5
:100ed00092587800814088008209e8000040e900cb
:100ee000f9ff3a000000060000c8b300a1912000fd
:100ef000914f100033003a0001ccb30080822000f3
:100f000001487800d091200010407800e24f500056
:100f100009003200e34f500019003200e14f500049
:100f200026003a00607d2200304188002001200028
:100f30005041880023003700c09120001004e000d9
:100f40000c003a001080fb0000004000e165280022
:100f50006100780030418800a1822000204190008b
:100f600082487800b18220003040900080487800ac
:100f700014003700808220000048eb001100370089
:100f8000c091200031c0b30090cf100008003e0097
:100f90001080fb000000400001662800610078001e
:100fa000304188001080fb00504188000500370068
:100fb000808220000048eb00020037008082200081
:100fc0000048eb00000006000040eb0021922000ea
:100fd000804878003192200080487800a09120005d
:100fe000104078007f4060000080fb00e10f50005f
:100ff0000b003200e20f50000c0032000000e00055
:1010000024003a00808220001070a0000348e20013
:1010100020003200209220001014a0001d00370094
:10102000808220001070a0001a003700808220000b
:101030001070a000e09120001004e00007003500cf
:10104000104078006f4060000080fb00000040000e
:1010500041832000e100780007003700e091200084
:10106000104078006f4060000080fb0000004000ee
:1010700061872000e10078000040280091006000b6
:10108000808f500003003a0011c0b300209220006e
:1010900001487800000820008182200011006000d3
:1010a00007003200209220003041880001007800c3
:1010b0001000a00021c0b300a082200001487800e9
:1010c00000000600aa24ab0011003200504080004e
:1010d0001041900001c8b300814f51000b003a004d
:1010e000b14380001141900041c8b300814f5100cd
:1010f00006003a00c1c0b300114098005040800083
:10110000904090000174a00011409800aa24a9000a
:10111000000820005024880000000600881f780086
:101120006087200090007800110478004e44de00b3
:10113000614464000120a200010878003040800072
:10114000e80f50000b003a00c09120001080fb0017
:10115000f007b200b02488009604e20003003200d9
:1011600000012000304088000200370040002000cd
:10117000304088000fc8bf00e14f500024003a0003
:1011800021922000b04380001100980021ff070049
:101190000ec8bf00e24f500009003a0060872000ef
:1011a0009000780042c0b300924098001000780090
:1011b000904090000174a000114098002200370078
:1011c0000804e00009003a006087200090007800e1
:1011d00082c4b300924098001000780090409000c4
:1011e0000174a000114098001700370060872000ac
:1011f0009000780082c0b300924098001000780000
:10120000904090000174a000114098000e0037003b
:10121000e08220001004e0000a003d00108320005e
:101220009080fb00208320001080fb004800dd0040
:10123000008070000100320000000100e082200008
:101240001074a1000f68ef004f0478000000060042
:101250000468ef000001eb008200780040072000e6
:10126000890a07008284a900000120000024880068
:101270000968ef00000006008284a8000001200039
:101280005024880010c0b30004e8b7000968ef00dc
:101290000001eb0082007800500720007a0a070066
:1012a00000000600889fbe00c091200011c0b3005e
:1012b00090cf10000e003a00a0912000104078005e
:1012c0007f4060000a003a00808220001070a00079
:1012d000b091200032c0b300904f110003003a00db
:1012e0000140780003e8b700010037000368ef0011
:1012f000c09120001004e00098003a00a091200066
:10130000104078007f406000e24f500093003a00a8
:10131000e0912000104078006f4060008f003200a4
:10132000e091200010407800000220000608e30051
:101330008a003a00808220001070a000e091200016
:101340001004e0000c00350010417800ef4061000f
:101350008180fb008180400042832000628478000d
:10136000104078006f4060000080fb00918f2000eb
:10137000e14478000c003700e09120001041780033
:10138000ef4061008180fb00818040006287200087
:1013900062847800104078006f4060000080fb009d
:1013a000818d2000e14478000908a30002003a0082
:1013b0000820a100010037000820a000e0912000d3
:1013c0001004e00007003500104078006f40600016
:1013d0000080fb000000400041832000883078003e
:1013e00007003700e0912000104078006f40600057
:1013f0000080fb00000040006187200088307800fa
:10140000b091200031c0b30090cf10001a003a0014
:101410001800e00013003d00e09120001004e000ff
:1014200008003500104078006f4060000080fb002d
:10143000918f2000614178000214a0008270780032
:1014400008003700e0912000104078006f406000f5
:101450000080fb00818d2000614178000214a00013
:10146000827078009840900040c8b30000c07000bf
:101470001044980039003700880078000120a2004d
:101480001100e00008003d00114090000074a10030
:101490000064a0009040980022002000500020002e
:1014a000f909070003003700114090000064a00014
:1014b000904098000918a30002003a001800e000cc
:1014c0001b003d00e09120001004e0000800350002
:1014d000104078006f4060000080fb00918f20007a
:1014e000614178000214a100827078000800370082
:1014f000e0912000104078006f4060000080fb0009
:10150000818d2000614178000214a1008270780072
:1015100018409000b043b200104498002200200010
:101520008800780050002000d7090700030037002a
:1015300018409000b043b20010449800e0912000a1
:10154000104078006f4060000080fb000000400009
:10155000a14a2000010040001014a1004f04be0069
:1015600000000600808220001070a000020420000d
:101570008000eb00c04a200026fd07000221200069
:101580008000eb0000a0200022fd07009424a800aa
:10159000708d2000828f2000838f20008040eb0020
:1015a0000168780001697800830f5000fcff3a0061
:1015b000808b20001f0009000058eb009424a90034
:1015c00080a02000b043880000a020005040880088
:1015d00060408800c09120001040780008e8b70003
:1015e0000004e00003003a000001200030408800c1
:1015f00006003700120020008180200002007800e1
:10160000a109070000022000304088000000060009
:10161000a091200001c6b30010c0600043003a0052
:10162000b09120001080fb008000eb00eb0f500019
:10163000e08f58003d003e00006001001e003700b2
:101640001f003700390037001d0037003700370012
:10165000060037000a003700300037000c00370062
:10166000090037001800370024003700808220006e
:101670001070a00080002000304088002b00370050
:1016800019fe070029003700b6ff070027003700c2
:101690008080200030418800808220009000780007
:1016a00013c0b300a2822000034978001108b300e0
:1016b000010878001d00370043fe07001b003700bb
:1016c000f8fe070019003700e09120001081fb00b0
:1016d000818b200060822000010841008082200070
:1016e0009000780013c0b300a28220000349780064
:1016f0001108b300010878000c0037008082200038
:101700001070a000e09120009080fb00808b2000f2
:10171000c291200092707800040037000001eb00b5
:101720008200780020002000570907000000060012
:101730009ec0a9000080eb0070248800502488001f
:10174000aa24ef00020420008000eb00c04a200021
:10175000b0fc07002000200030258800a824ef00fe
:101760008644a900f00920008024880060248800b5
:1017700082c4a8008804a80000a020004800de0061
:10178000c02488000000eb0003a020006022b80005
:1017900042082000c200dd00818041008488be0034
:1017a0000000e800820f5000faff3a009424a800dd
:1017b0009624ef0094a4a9009424a900800020009e
:1017c000502488008a64ab00fdff3a000040eb0023
:1017d0008182200080487800e182200080487800e3
:1017e000f182200080487800018320008048780042
:1017f00010c0b30016e8b70017e8b7000268ef00a2
:101800000068ef000468ef00458720002483200073
:10181000738d2000828f20008040eb000000eb00e1
:101820008143780016c2b300802a7800002a78002d
:1018300080697800076978008140e80086cf500011
:10184000f9ff3a0080a02000b0438800d0002000bb
:1018500050258800a09120001050880001c4b300da
:1018600000a020000148780010a0200041c0b30073
:10187000014878001074a0000868ef001828ef00f5
:101880001a28ef000968ef000628ef0000000600a4
:10189000889fbe008a1f7800004578008144780048
:1018a0000984fb000838a300030032008040eb00ed
:1018b0000a40780042fd07000828a3000300320018
:1018c00011c0b3000a4078003dfd07000a85fb0007
:1018d0000a054500a04a200009707d004f057800e8
:1018e0004f04be00000006000104e00005003200c5
:1018f0000082fb00040242006587200065027a0036
:10190000040037000082fb000402420045832000ef
:1019100065027a008002eb000400e0001e00320045
:1019200012029800034a7800144190000244b20069
:1019300012429800144190000234a0001242980014
:10194000144190000274a000124298000104e000cb
:10195000090032000080fb00618720000000400089
:1019600000814000610078000020a200000978009a
:1019700084027800080037000080fb0041832000cb
:101980000000400000814000610078000020a200bb
:101990000009780084027800050078000000060045
:1019a0000004e00015003a0001c4b300604080006c
:1019b0000148780060408000a1912000110098004b
:1019c000c1c0b3001140980060408000904090007a
:1019d0000174a000114098006087200090007800fa
:1019e00042c0b300924098001000780090409000f0
:1019f0000174a00011409800100037008180fb00a6
:101a00000080fb0000004000008040004300dd003b
:101a100002a02000820140001342900041c8b300a0
:101a200001427200944198006400400002004000ae
:101a300010419000814071001140980000000600a4
:101a4000889fbe0094a4ab00190032000080fb0008
:101a50000000400061872000e10378001704be0009
:101a600002042000030020000203780083027800b3
:101a700008026100848bbe00610278001404be007d
:101a8000021a6c0003926c00610178000220a2002f
:101a900082307800924190000344b20013419800d4
:101aa000610078009040900006c3680016409800de
:101ab0004f04be00000006001648e2002b003a006a
:101ac00010c0b30016e8b7001748e20027003a003c
:101ad00017e8b7000fc8bf00e24f50000b003a00f4
:101ae00060872000900078008048eb00900078002c
:101af00082c4b3009240980010007800904090009b
:101b00000174a0001140980018003700e14f500008
:101b100016003a001468ef0000c4b3005140800082
:101b20008048780052408000a19120001101980067
:101b300043c0b3001341980052408000924190008e
:101b40000374a0001341980014c0b3004381200027
:101b5000844978006240800000497800604080003d
:101b60001100980001c8b300114098000000060061
:101b70005040800090427800f08220001080fb00ee
:101b8000018320009180fb00c808dd000100700087
:101b90008580fb00808f5000010036008042780075
:101ba0008580fb0001005000f18220008048780011
:101bb0004800de0001832000804878000504e00032
:101bc000100032008000eb00c3822000d28220008f
:101bd00027922000f60f20001382fb001280fb00ea
:101be0004800dd000000720067d878008649600078
:101bf0004800de00004978008100e80081cf5200f3
:101c0000f5ff3e00f08220001080fb0001832000e1
:101c10009180fb00c808dd0001007000190032004f
:101c200001c4b30060408000014878002192200088
:101c300060408000110098005040800010e8a30030
:101c400008003a0081c4b300604080001140980051
:101c500060408000904090000174a0001140980006
:101c60002100370081c0b30060408000114098001f
:101c700060408000904090000174a00011409800e6
:101c80001900370001c4b3006040800001487800ab
:101c900060408000a19120001100980041c0b30075
:101ca0001140980060408000904090000174a000b6
:101cb00011409800108320001080fb002183200039
:101cc0009180fb00c808dd000100700001003200b7
:101cd00000000100e08220001074a1000148e20031
:101ce00001003a0074ff0700000006000fc8bf00a3
:101cf000e24f500002003a009dff0700110037003c
:101d00000f68ef001448e2000d003a0001c4b30070
:101d1000604080000148780060408000a191200070
:101d200011009800c1c0b3001140980060408000cd
:101d3000904090000174a00011409800010037000d
:101d40001468ef00000006000268ef000068ef0072
:101d50000fc8bf00e24f50000d003a0001c4b300ad
:101d6000604080000148780060408000219220009f
:101d70001100980081c4b3001140980060408000b9
:101d8000904090000174a000114098001c003700a2
:101d9000009220001080fb00119220009180fb0037
:101da000c808dd0081007000a0822000908f5000e4
:101db00007003100009220009080fb00109220006c
:101dc0001081fb004811dd00a08220000108710095
:101dd00010fc07006087200090007800229220000d
:101de000920098009000780082c4b300924098005e
:101df00010007800904090000174a00011409800fd
:101e00000000060094a4a9000008200081822000a0
:101e10001100600020003a00e08220001004e00081
:101e200008003d0020c0b3000fe8b7000048e20002
:101e300001003a00c4ff07001768ef001668ef00c2
:101e40003600370001c4b3006040800001487800cc
:101e500060408000a191200011009800c1c0b30033
:101e60001140980060408000904090000174a000f4
:101e700011409800608720009000780042c0b300b5
:101e80009240980010007800904090000174a000eb
:101e90001140980021003700a09120001004e000bc
:101ea0000b003d0010c0b3000fe8b7000248e2008d
:101eb00001003a00a4ff07001768ef001668ef0062
:101ec0000148e20015003a00fbfe0700130037004e
:101ed00020c0b3000fe8b70001c4b3006040800029
:101ee0000148780060408000a19120001100980016
:101ef00041c0b300114098006040800090409000c5
:101f00000174a000114098001768ef001668ef00f8
:101f10000148e20001003a00e7fe07000000060069
:101f20000e68ef000168ef000268ef000068ef0044
:101f30001468ef000f68ef006087200090007800c1
:101f4000114190000274a100924098009000780026
:101f50000120a20001087800114190000274a10044
:101f6000924098001020a2006040800090409000b5
:101f70000174a100114098000040eb008182200014
:101f8000804878008000eb0051418800e282200008
:101f900001497800f1822000804878000183200008
:101fa000804878009afd07000001eb00820078006d
:101fb000300020003407070092ff070000000600f1
:101fc000d0c2b30015e8b70021812000914078000d
:101fd00001007800b00fb20015003a00c10fb20046
:101fe00000a020008080400051408800010078005f
:101ff0000020a2006040880002c02300110161009f
:1020000000402300800f510007003a0011009000ab
:10201000a191200007000900b05878008000b100ad
:10202000bfff07000500370030ff0700030037003f
:10203000e80f500001003a0038fc070000000600dd
:10204000c0408000d140800061004000e080480036
:10205000c0408800d14088000448e20004003a00f3
:102060000948ec0009e8b70001003a0009e8ef0070
:1020700000000600889fbe008a1f78003040800064
:102080000000e00012003a009424ef008c24ef00de
:102090002000200030258800a824ef008644a900f5
:1020a000f0092000802488006024880082c4a800f1
:1020b0009404ab0003003a009404a8009404ab001d
:1020c000fdff320010002000304088000200370081
:1020d000e10f500008003a0094c4ab0006003a003b
:1020e0008aa4ef008c24ef008c04a8008c84a80044
:1020f00020002000304088008084ab0005003200c2
:102100008284ab000300320000012000002488001c
:102110004ffc07008824ab00020032008ec0a900eb
:102120006a0037008a04ab00070032008c04ab0061
:10213000050032007efd070040002000304088008e
:1021400010002000502488008a84ab000300320075
:102150008c84ab000100320047fc070080c4ab0058
:10216000030032000004200000248800b4ff0700b0
:102170008a44ab000e0032008c44ab0004003200f5
:10218000120020008000eb0030072000be06070090
:10219000400020005024880015c8bf000300320012
:1021a0000040e90015e8b70001003a0042fe0700d0
:1021b0008ae4ab00030032008ce4ab000100320083
:1021c000c0fb07008a24ab00090032008c24ab005e
:1021d00007003200120020008000eb00f0ff270013
:1021e000a90607008ea4ef002000200050248800dc
:1021f00030408000e30f500002003e008ec0a90076
:10220000320037008c64ab002f00320048c0b300ae
:102210008a64ab0004003a002b0037008a64ab00ec
:1022200003003a0028003700998f20008a8d200093
:102230009124800020812000014878000181fb006a
:102240004411de0002407800024278003381200011
:102250008449780082002000522488000138a300bd
:1022600008003a008080fb0069c17800e14161000c
:102270000304a2000204a1000341710082f478006b
:10228000070037008080fb006ac17800e1416100ef
:102290000304a2000204a1000341710002f57800ca
:1022a0000004e00002003a0045ff07000400370088
:1022b0000001eb00218120002007200072060700aa
:1022c0000844e900d5ff3a008ec0a9004f05780008
:1022d0004f04be0000000600c0408000d1408000d6
:1022e000000006008001eb00810f5000050039005e
:1022f0008280400013002000810f5000010039004f
:102300008001eb0003007800000006002175220028
:10231000114178008281fb002473220000f27900d1
:102320000240e800804878000080fb0000000600c2
:102330000040eb00217522008048780001732200e4
:1023400080487800000006000a00fa00889fbe005e
:102350008a1f7800804478000105780002447800e4
:10236000e84f540004003e000881fb008a0078001a
:1023700070805700a0f907000980fb008000eb0087
:1023800061005000e0805800ef0f5000e08f5800cf
:1023900013013e00006001000f00370014003700f9
:1023a000130037001200370011003700100037000b
:1023b000a6003700b0003700ba003700b50037007c
:1023c000f0003700f7003700fe0037000800370044
:1023d0000a0037008e003700507d22008ff09700f2
:1023e00001487800450507000000fe00fc003700aa
:1023f000a075220009487800f90037000040eb0082
:1024000080ff9f0031002000207322008c05070010
:1024100051732200914f50000300320010c0b300ee
:1024200080ff9f00750037003073220090447800d1
:102430004073220010457800207322001004e00051
:102440004b003a000984fb00c075220000044400e0
:10245000420020000176220008007800a1ff07005a
:102460000000e00014003200827922001281fb009b
:10247000937922009381fb00c819dd0003007100ed
:10248000a27922001281fb00b37922009381fb0024
:10249000c819dd00830071005255250053552500f1
:1024a000820f5000838f58004a00320030c0b300c2
:1024b00080ff9f005100370042002000417622003b
:1024c0000800780087ff07000000e00014003200d9
:1024d000c27922001281fb00d37922009381fb0094
:1024e000c819dd0003007100e27922001281fb00af
:1024f000f37922009381fb00c819dd00830071008d
:102500005255250053552500820f5000838f5800e7
:102510003200320030c0b30080ff9f003700370028
:102520000201200001782200080078006dff0700fa
:10253000710320000000e00029003200807b2200af
:102540001004e00003003a00717c22005004e00017
:102550000300320030c0b30080ff9f002700370027
:10256000810f5000f9ff3a00710320001c00370072
:102570000984fb00c07c22000004440012002000fb
:10258000417d22000800780056ff07000000e000af
:102590000d003a0012002000c17c220008007800e3
:1025a00050ff07000000e00007003a001200200082
:1025b000017d2200080078004aff070091002000fa
:1025c0000000e0000600320030c0b30080ff9f0032
:1025d0000a0037007103200001003700710320005a
:1025e0008984fb00898f50000300310040c0b30094
:1025f00080ff9f00010037000a4c78001200200085
:10260000e8805700a06022000c0407007400370027
:102610000040eb0080ff9f000ff097000084fb005c
:102620000808a300010032000c0307000818a300eb
:1026300001003200b104070012002000e8805700ba
:10264000a0602200fd030700650037000fb8970067
:102650009fb897008100d1000080d300a03a890084
:10266000b13a89000881fb008a007800a06022004e
:10267000f20307005a0037008fb89700c13a89006b
:102680000881fb008a007800a0602200eb030700ad
:1026900053003700a1c0b300a075220001487800a4
:1026a0004f0037000040eb0080ff9f000ff09700c5
:1026b000e14f50001a003a00c27922001281fb005b
:1026c000d37922009381fb00c819dd00030071005b
:1026d000e27922001281fb00f37922009381fb0052
:1026e000c819dd008300710052552500535525009f
:1026f000820f5000838f58000300320030c0b300b7
:1027000080ff9f001a0037007235840083358400f3
:1027100050358400613584006501070014003700de
:102720000004e00012003a00723584008335840012
:1027300050358400613584005d010700c0752200ba
:10274000f1ff2f0037000900015878008003b10025
:10275000f1ceb30001487800c002070011c0b300f9
:10276000507d220001487800640407000000fe004c
:1027700012002000e8805700a0602200af0307008d
:102780001700370040002000e201070080ff9f0093
:1027900012002000e8805700a0602200a703070075
:1027a0000f00370080002000da01070080ff9f0043
:1027b00012002000e8805700a06022009f0307005d
:1027c0000700370000012000d201070080ff9f00b2
:1027d00012002000e8805700a06022009703070045
:1027e0004f0578004f04be000080fa00000006008c
:1027f0000600fa00881f780000047800e88057007f
:10280000a0602200800307000000e00010003a00f2
:1028100001c2b3005fb89700014878004fb8970035
:10282000184878001804e000090032001000200069
:1028300002022000cfb89700d87078001804e0009a
:10284000030032000000e800820f5000f9ff3a0058
:10285000a07522000048eb004f0478000080fa00c9
:1028600000000600ec874700889fbe008a9fbe00dc
:102870008c9fbe008e1f7800a0752200104078004b
:102880000004e000ab003200c442a800e54f500055
:102890001700320006003e00e34f50000e003200e9
:1028a00010003e00e24f5000a1003a000700370040
:1028b000ea4f500035003200ee4f50001200320057
:1028c000e64f50009a003a000c003700806c280058
:1028d000c7ff070096003700a0672800c4ff070065
:1028e0009300370000672800c1ff07009000370001
:1028f00060692800beff07008d003700c06828000f
:10290000bbff07008a003700c03a81000000e000ea
:1029100015003a00209620003f0009000058eb0007
:10292000207322001004e00005003a0021962000e8
:10293000c275220037000900b25878000400370041
:1029400023962000c07c220009000900b0597800bd
:1029500002022000c23a890021962000a0602200d5
:102960003603070072003700020220002198200081
:10297000a0602200310307000000eb00c03a89008c
:10298000a17522008048780069003700c83a8100ac
:10299000f8805700a06022001b0307000000e00041
:1029a0005e003a006141b800f2b79f0083bf9f000c
:1029b00000042000800f5100e08f59000400360011
:1029c0000204200003002000f2b79f0083bf9f0095
:1029d0007fb097008fb89700e00f5000e08f58004d
:1029e0004b0032002a002000180020006066b8006a
:1029f000497522008b7922009e7922001900be00c1
:102a0000840007000000e0000f003a001b81fb007b
:102a10009e81fb00c819dd0003007100a37922002c
:102a20001381fb00b37922009381fb00c819dd00fc
:102a3000830071005255250053552500820f500028
:102a4000838f58000f003200cfb197000c804100f7
:102a500031c6b3000148780011c6b3004fb09700eb
:102a600001707c0061c6b3004fb0970001707d001b
:102a7000cfb097000880400051c6b30021409800b5
:102a8000130037001900be0056030700cfb19700ae
:102a90000c81410000497800c80ade004809dd00c9
:102aa0004802de00040271004fb1970004717c00ff
:102ab000400ade00050020004fb1970004717d0040
:102ac000cfb19700088141004808de0020419800fe
:102ad0002000200001002000990c4000d9944800fb
:102ae00080752200900078006488500064064600db
:102af000e0864e0064044400640545007fb1970001
:102b00008fb997008c0f51008d8f5900bbff3e008d
:102b10005fb09700efe9970003487800c03a810062
:102b20000000e00002003a00a07522000048eb001f
:102b3000c442a9004f0778004f06be004f05be00f3
:102b40004f04be00cf00b10000000600889fbe0009
:102b50008a9fbe008c9fbe008e1f78008105780082
:102b60000b00e00026003200800478000004eb0037
:102b70000a732200ec6c28002d7522002e732200af
:102b800039407800c442a8001a04e0000c003a0062
:102b90008080fb00ecc078000104e00004003a00f3
:102ba0000041eb008000eb00e7fd0700100037005c
:102bb000e1cf40000e003200004d78000c003700dd
:102bc000d2fd07009a4178008380fb00ecc07800ba
:102bd0008100fb00810f500005003a001d41780084
:102be0008e00780003407800d7fd0700d0fd070075
:102bf000c442a9000804e800888f5500e0ff3e00a9
:102c00004f0778004f06be004f05be004f04be00c0
:102c100000000600826b2800b20f5000a28f5800ff
:102c20000500390012002000c36b2800b30f5000cc
:102c3000a38f58000b003600023684001336840040
:102c4000800f5100818f590005003e0012002000c6
:102c5000436c2800b30f5000a38f580001003600ca
:102c60000001eb000200780000000600889fbe0013
:102c70000004be00e8020700e00f5400e08f5c0093
:102c800009003a0032358400433584000320a00057
:102c90006000b800f80207006011b80020002000b2
:102ca00001002000f40207004f04be0000000600ef
:102cb000ea874700889fbe008a9fbe008c9fbe00a7
:102cc0008e1f7800d0b79f00e1b79f000206be00bc
:102cd000e00f5100e08f5900220032006000b80080
:102ce000f0b79f0081bf9f004e752200ba35840067
:102cf0008005eb007fb197008fb997005fb2970016
:102d0000efb297000204420083844a00088fbe009d
:102d10000800be00bfff07000000e00008003a0006
:102d20000a01be000800be0030f70700e00f5000a7
:102d3000e08f580002003a000800be00cbff0700f9
:102d40007fb097008fb8970062004000e080480095
:102d5000f0b79f0081bf9f00800f5600818f5e00fb
:102d6000e4ff3e006011b800a23a8900b33a89003e
:102d70004f0778004f06be004f05be004f04be004f
:102d8000af00b10000000600e6874700889fbe0044
:102d90008a9fbe008c9fbe008e1f78000004be007c
:102da000020778009bff070041c0b3000000e0006d
:102db00051003a00bc3584008006eb000c01be00d7
:102dc0000800be0009f70700e00f5000e08f580030
:102dd0001d003a000800be00a4ff07009a358400d9
:102de000ab3584000c01be000800be00eff6070002
:102df000f0b79f0081bf9f000c01be000a00be001b
:102e0000eaf607007fb197008fb99700800f510055
:102e1000818f59000c003a000006eb008d03200062
:102e20000c007800ff0007000001be000a00be0091
:102e3000910207000c86e80062054500e0854d0020
:102e40008d0f5600f6ff3a008040eb00e00f540073
:102e5000e08f5c0028003200e20f5400e08f5c003d
:102e6000250032000800be00de0007008040eb00b5
:102e70000000e00020003a001e80fb008000eb0014
:102e80001e4190000281fb008001eb00481ddd0027
:102e9000c815de008b0575004815dd002e41900039
:102ea0008281fb0002002000020575008385750009
:102eb00000057500818575003e409000c800dd006a
:102ec0000000200000057500818575000a01be0024
:102ed0000800be00680207000800be0041020700ab
:102ee0000001be0021c0b3008a0f51008b8f590032
:102ef00001003a008040eb00014078004f07780065
:102f00004f06be004f05be004f04be006f00b1006b
:102f100000000600889fbe008a9fbe000005780062
:102f2000c07922001080fb00d17922009180fb0043
:102f3000c808dd0001017000e07922001080fb006c
:102f4000f17922009180fb00c808dd00810170004a
:102f500030c0b3005455250055552500840f51004d
:102f6000858f59001e003a008a00780020732200e5
:102f7000b3020700004178000a80e80001732200d4
:102f8000e140780010c0b300814f510014003a00b6
:102f90000040eb000a00e000110032000004eb00ea
:102fa0002b73220049752200088145001900be00dc
:102fb00075ff07000004e00002003200e44f5000fb
:102fc00007003a002200200003002000990c410075
:102fd000d994490064044400880f5500f2ff3e0074
:102fe0004f05be004f04be0000000600881f780099
:102ff000000478004103200008007800a5020700c3
:10300000407498004801de00527498006174980082
:103010004808de00707498004f0478000000060035
:10302000889fbe00c07090008180fb0050719000ae
:103030004811dd0002847000e07090008180fb0088
:10304000707190004811dd008284700041032000ff
:103050009002070000046c0081846c0008847400f6
:1030600008f0a7000804ea000800ea004f00de00ac
:103070004f04be0000000600889fbe008a1f780033
:1030800090358400a1358400a03a8900b13a8900c6
:10309000c87522004a792200497522001900be0035
:1030a000d0010700004c78004809dd004800de0030
:1030b00000007100c808de001044980020002000c5
:1030c00001002000990c4000d99448000884e800d1
:1030d0008a0f5400f1ff3a006000b800a03a89005e
:1030e000b13a8900c0752200f1ceb30090cf100034
:1030f00020003a0011c0b300014878000041eb0005
:10310000d175220082487800e1752200824878005b
:1031100051c5b3000376220081497800137622005e
:103120008149780023762200814978003376220095
:103130008149780043762200814978005376220045
:1031400081497800637622008149780073762200f5
:1031500081497800817622008248780081772200b8
:1031600082487800027822000f0009000059eb0025
:103170009eff0700c0752200a9ff07000000e000c5
:1031800011003200a0cab300017622008048780006
:10319000117622008048780021762200804878004d
:1031a00031762200804878004176220080487800fd
:1031b00051762200804878006176220080487800ad
:1031c000717622008048780040792200c175220083
:1031d00037000900315878004f0578004f04be00d1
:1031e000000006000001be0094358400a53584006f
:1031f0008000eb00820f5200838f5a0007003e00d0
:103200008403b0000580b00011002000840f51003d
:10321000858f5900010039008000eb000100780023
:1032200000000600c175220001004000104290001d
:103230000482fb008002eb004829dd00c821de008b
:10324000830171004821dd001080fb008000eb004d
:103250000000710081807100000006000800fa0083
:10326000889fbe008a9fbe008c9fbe000f0f780013
:10327000b83584008800d100110798009a35840081
:10328000ab3584006141b8000a00be00c7f50700f5
:103290000889b9000804b80089044100a83a8900e7
:1032a000b93a89001e0190004210dd000080e8005c
:1032b000808747001e0078000200e0003a003200dc
:1032c00020079800300798000006eb004d7522009b
:1032d0001d00be00430107003e0190000099be00a2
:1032e0003207980020002000010020009d0e4000c1
:1032f000dd9648000c06e8009e0090008c8f500080
:10330000f3ff3e000800be0043010700c075220025
:1033100036ff0700a83a8900b93a89000006eb0099
:103320004d7522001d04be000800be00adff070061
:103330000000e000040032000a005400b9ff07005a
:103340000001be00020037002e0090001001be00f8
:103350000800be00480107002000200001002000f6
:103360009d0e4000dd9648000c06e800ae0090007f
:10337000e4804000210798001e0190008c0f51004e
:10338000e8ff3e006000b800a03a8900b13a890029
:103390009e0778004f06be004f05be004f04be00da
:1033a0000080fa00000006000800be001a010700b5
:1033b000c07522000dff0700f2ff3700889fbe0096
:1033c000920009000018eb006012b1000600e00056
:1033d000070032001604be005800990069009900e9
:1033e00026049000b604900078009900090899001e
:1033f0004100990022509a0033509a0044509a009c
:1034000055509a004f04be0000000600881f780047
:103410000004780058509200d1c1b3001cf9070095
:103420005850920003c4b300080178008040eb00bc
:103430002df90700101499000000eb00001499000a
:103440004f04780000000600a19120009140780010
:10345000ffc06000e1cf500019003a00a1912000a8
:1034600003c6b30011c1610001c2b300814f510016
:1034700013003a00a0509200e291200092cf100079
:10348000040032003050920082007800914f10000a
:103490000b003a00b091200011c0b30090cf100093
:1034a00007003e00807e220030418800800020001e
:1034b0005041880001ccb300808220000148780090
:1034c00000000600889fbe008a1f78000004780074
:1034d000181091000000e000020032001000e0002f
:1034e0001b003500e8449200104578000941e800cf
:1034f0006141610062449a000281fb004611dd00d7
:10350000020144005850920003c4b3008040eb0015
:10351000f5f80700101499000980fb000000440032
:103520000a4099008040eb0021409900d8019100a9
:103530000300e000060032000a81fb008980fb00e6
:10354000c608dd008100440048009100030001002e
:103550004f0578004f04be0000000600881f780069
:1035600000047800881091000100e00003003200a0
:1035700020c0b3001100e00019003500f8409200af
:103580000180fb004010b000e84178000040eb00f3
:103590000304e0001200320042082000080141004c
:1035a0008180fb00c608dd000101410058509200f7
:1035b00011c0b300ccf807000014990078409200c5
:1035c0000040e8006140600070449a000080fb0009
:1035d000000444000040eb0040449a0010c0b300d7
:1035e0004f04780000000600881f7800000478006f
:1035f00008007800d9ff070008007800b1ff070035
:103600004f0478000000060043082000808141003c
:10361000704192000281fb004611dd00828841006a
:10362000704192000281fb004210b0000200400095
:10363000900098000000eb00000006000600fa0071
:10364000889fbe008104780002047800ea80570059
:10365000edff0700800078000080eb00808f5000b5
:103660000b00320000042000800f540001003600df
:103670000004780008017800890078003fb89700be
:10368000ddf407004fb8970008487800080078007c
:103690004f04be000080fa0000000600c422ef00c4
:1036a000cc22ef003001200000168800f0fb2e0035
:1036b0004016880000082000400388006a20ef00c0
:1036c000c622ef00ce22ef003000200060198800f3
:1036d0000000060000002300203a88004827ef0081
:1036e0004e27ef007027ef007227ef007427ef00de
:1036f0007627ef0010002000a2092000810720009b
:10370000337420008149780082497800804978002c
:103710007205200061042000237420008149780094
:1037200082497800804978000000eb0004202000e6
:1037300003022000e4407800e1806000c308dd005f
:10374000221680000230a10002817000221688003b
:10375000c462a9000000e800830f5000f5ff3a00a2
:103760004207ab00feff3a0001022000123a80003f
:1037700002806000fdff320000000600a000200073
:1037800025010700507d220011c0b30090cf10002a
:1037900003003a000048eb00100020001000370042
:1037a000e0752200104078000004e00008003200bc
:1037b0000081fb008001eb0010002000843e8100ae
:1037c000953e8100820f5200838f5a000400310021
:1037d00000082000ca02b6000000e9004f00de0029
:1037e00000000600940180000181fb009201880026
:1037f0001001ba008001eb001080ba00940188002b
:103800008000eb00c000dd0000002000020070001e
:10381000838070000000060022042400023b880020
:10382000920180008181fb00930188008001eb0000
:103830000308bb000400fc00000e20004220b7007b
:1038400050052000303b8800a00a2000303b880053
:1038500061e7a8000000000000000000010028004f
:10386000033b800003806000fdff3a009201880066
:1038700061c7a9000000060034002400043b880052
:1038800095018000f40f200001036200960188007a
:103890000208bb00030262000488bb000400fc00b5
:1038a000000e20004220b70050052000303b880069
:1038b000a00a2000303b880061e7a800000000005b
:1038c0000000000001002800023b80000280600030
:1038d000fdff3a009501880061c7a90000000600bd
:1038e000f05f2200c17c220092602200d058780054
:1038f000820f5000fdff3a0000000600c07c22004d
:10390000f15f2200627d2200b0687800820f5000d3
:10391000fdff3a00000006000100780082007800f8
:103920008afc0700000006002408ec002041880003
:10393000f1112600810f5000010036002428ef000d
:10394000204180004401de00414922000111b800fd
:10395000b13929000100b8004608de0003406800c4
:10396000610060004300dd00211680000130a100ed
:10397000810070002116880000000600881f780072
:1039800046ff07004007ab00020032004007a900d5
:1039900011003700d2ff0700c07c22001200200077
:1039a00003002000100841005090490011c0b300ee
:1039b000407d2200014878004087ab0006003200bd
:1039c0004087a90021c0b30001487800007d220093
:1039d0001008410050904900a7fd070067ff07004d
:1039e00000047800c5ff07000800e00005003a0069
:1039f00050358400ae000700100020004f0478000e
:103a00000000060033ff0700c681200025c0b30078
:103a100014c0b300844178000041eb008000eb004b
:103a2000a060220065fe07006b000700a2000700ef
:103a300090f9070070000700bbff0700fbff37008d
:103a400000c1eb000100e000100032000002eb00ba
:103a50008600200015c3b30030416900860178005c
:103a60000204e00003003d000241410005416900fd
:103a700001003700024141008301e900f8ff3a00ec
:103a80000402e800848f5000f3ff3e0002407800fb
:103a900000000600889fbe008a9fbe008c9fbe006b
:103aa00000037800010643000080eb008080eb00fb
:103ab0008c0f53001a0031000080eb008080eb0077
:103ac0008d0020000832280089db2e008805780050
:103ad000090578003684fb008004eb0008006800cc
:103ae000898068008d0378008104d1000084d300b0
:103af0008001eb006101600060001100e0801900ae
:103b0000810265000082650008006a0089806a0001
:103b10008703e900f4ff3a00860f5600edff3e00f0
:103b20000080ea008180ea004f06be004f05be001b
:083b30004f04be000000060076
:020000040000fa
:103b3800e827000008000000000000002608000038
:103b48003c01000000000000000800001c0000000c
:103b580000000000000a0000100200000000000041
:103b6800d627000012000000020000001201000029
:103b780002ef02000140d8000466e90001000100dc
:103b88000203010030270000a6000000000000002a
:103b98006209000040000000000000000a26000042
:103ba80026010000000000001c08000008000000ba
:103bb800020000008c1c0000000000000000000053
:103bc80024080000020000000000000000000000bf
:020000040000fa
:103bd800d5f6070000000600a060220009fe0700d5
:103be80000000600a060220015fe07000000060085
:103bf80030408000ff0f5000040036008824ab00de
:103c080002003a00a060220075fe070000000600ce
:103c1800881f78008a9fbe00000478000800e00032
:103c2800060032000ae823000b0020000a00be004c
:103c3800050007000804e900fcff3a004f05be0034
:083c48004f04780000000600a3
:020000040000fa
:103c5000f03fb1000180b10006003500ee0309001d
:103c600000000000403fb1000180b100fbff3d00bb
:103c70001000b000203fb0000200350000800900b5
:083c8000000000000000060036
:020000040000fa
:103c8800e10f500003003200e30f500004003a0037
:103c980002003700d0ff070001003700d1ff0700fe
:103ca80010c0b3000000060000400100000006003c
:083cb800eafa07000000060013
:020000040000fa
:020000040001f9
:0457f000ffff0000b7
:020000040000fa
:020000040001f9
:0457f400fffc0000b6
:020000040000fa
:020000040001f9
:0457f8004f18000046
:020000040000fa
:020000040001f9
:0457fc007f3d0000ed
:00000001FF
