:020000040000fa
:080000000004040000000000f0
:020000040000fa
:04000800d004000020
:020000040000fa
:04000c00d00400001c
:020000040000fa
:04001000d004000018
:020000040000fa
:04001400d004000014
:020000040000fa
:04001800d004000010
:020000040000fa
:04001c00d00400000c
:020000040000fa
:04002000d004000008
:020000040000fa
:04002400d004000004
:020000040000fa
:04002800d004000000
:020000040000fa
:04002c00d0040000fc
:020000040000fa
:04003000d0040000f8
:020000040000fa
:04003400d0040000f4
:020000040000fa
:04003800d0040000f0
:020000040000fa
:04003c00d0040000ec
:020000040000fa
:04004000d0040000e8
:020000040000fa
:04004400d0040000e4
:020000040000fa
:04004800d0040000e0
:020000040000fa
:04004c00d0040000dc
:020000040000fa
:04005000d0040000d8
:020000040000fa
:04005400d0040000d4
:020000040000fa
:04005800d0040000d0
:020000040000fa
:04005c00d0040000cc
:020000040000fa
:04006000d0040000c8
:020000040000fa
:04006400d0040000c4
:020000040000fa
:04006800d0040000c0
:020000040000fa
:04006c00d0040000bc
:020000040000fa
:04007000d0040000b8
:020000040000fa
:04007400d0040000b4
:020000040000fa
:04007800d0040000b0
:020000040000fa
:04007c00d0040000ac
:020000040000fa
:04008000d0040000a8
:020000040000fa
:04008400d0040000a4
:020000040000fa
:04008800d0040000a0
:020000040000fa
:04008c00d00400009c
:020000040000fa
:04009000d004000098
:020000040000fa
:04009400d004000094
:020000040000fa
:04009800d004000090
:020000040000fa
:04009c00d00400008c
:020000040000fa
:0400a000d004000088
:020000040000fa
:0400a400d004000084
:020000040000fa
:0400a800d004000080
:020000040000fa
:0400ac00d00400007c
:020000040000fa
:0400b000d004000078
:020000040000fa
:0400b400d004000074
:020000040000fa
:0400b800d004000070
:020000040000fa
:0400bc00d00400006c
:020000040000fa
:0400c000d004000068
:020000040000fa
:0400c400d004000064
:020000040000fa
:0400c800d004000060
:020000040000fa
:0400cc00d00400005c
:020000040000fa
:0400d000d004000058
:020000040000fa
:0400d400d004000054
:020000040000fa
:0400d800d004000050
:020000040000fa
:0400dc00d00400004c
:020000040000fa
:0400e000d004000048
:020000040000fa
:0400e400d004000044
:020000040000fa
:0400e800d004000040
:020000040000fa
:0400ec00d00400003c
:020000040000fa
:0400f000d004000038
:020000040000fa
:0400f400d004000034
:020000040000fa
:0400f800d004000030
:020000040000fa
:0400fc00d00400002c
:020000040000fa
:04010000d004000027
:020000040000fa
:04010400d004000023
:020000040000fa
:04010800d00400001f
:020000040000fa
:04010c00d00400001b
:020000040000fa
:04011000d004000017
:020000040000fa
:04011400d004000013
:020000040000fa
:04011800d00400000f
:020000040000fa
:04011c00d00400000b
:020000040000fa
:04012000d004000007
:020000040000fa
:04012400d004000003
:020000040000fa
:04012800d0040000ff
:020000040000fa
:04012c00d0040000fb
:020000040000fa
:04013000d0040000f7
:020000040000fa
:04013400d0040000f3
:020000040000fa
:04013800d0040000ef
:020000040000fa
:04013c00d0040000eb
:020000040000fa
:04014000d0040000e7
:020000040000fa
:04014400d0040000e3
:020000040000fa
:04014800d0040000df
:020000040000fa
:04014c00d0040000db
:020000040000fa
:04015000d0040000d7
:020000040000fa
:04015400d0040000d3
:020000040000fa
:04015800d0040000cf
:020000040000fa
:04015c00d0040000cb
:020000040000fa
:04016000d0040000c7
:020000040000fa
:04016400d0040000c3
:020000040000fa
:04016800d0040000bf
:020000040000fa
:04016c00d0040000bb
:020000040000fa
:04017000d0040000b7
:020000040000fa
:04017400d0040000b3
:020000040000fa
:04017800d0040000af
:020000040000fa
:04017c00d0040000ab
:020000040000fa
:04018000d0040000a7
:020000040000fa
:04018400d0040000a3
:020000040000fa
:04018800d00400009f
:020000040000fa
:04018c00d00400009b
:020000040000fa
:04019000d004000097
:020000040000fa
:04019400d004000093
:020000040000fa
:04019800d00400008f
:020000040000fa
:04019c00d00400008b
:020000040000fa
:04020800d00400001e
:020000040000fa
:04020c00d00400001a
:020000040000fa
:04021000d004000016
:020000040000fa
:04021400d004000012
:020000040000fa
:04021800d00400000e
:020000040000fa
:04021c00d00400000a
:020000040000fa
:04022000d004000006
:020000040000fa
:04022400d004000002
:020000040000fa
:04022800d0040000fe
:020000040000fa
:04022c00d0040000fa
:020000040000fa
:04023000d0040000f6
:020000040000fa
:04023400d0040000f2
:020000040000fa
:04023800d0040000ee
:020000040000fa
:04023c00d0040000ea
:020000040000fa
:04024000d0040000e6
:020000040000fa
:04024400d0040000e2
:020000040000fa
:04024800d0040000de
:020000040000fa
:04024c00d0040000da
:020000040000fa
:04025000d0040000d6
:020000040000fa
:04025400d0040000d2
:020000040000fa
:04025800d0040000ce
:020000040000fa
:04025c00d0040000ca
:020000040000fa
:04026000d0040000c6
:020000040000fa
:04026400d0040000c2
:020000040000fa
:04026800d0040000be
:020000040000fa
:04026c00d0040000ba
:020000040000fa
:04027000d0040000b6
:020000040000fa
:04027400d0040000b2
:020000040000fa
:04027800d0040000ae
:020000040000fa
:04027c00d0040000aa
:020000040000fa
:04028000d0040000a6
:020000040000fa
:04028400d0040000a2
:020000040000fa
:04028800d00400009e
:020000040000fa
:04028c00d00400009a
:020000040000fa
:04029000d004000096
:020000040000fa
:04029400d004000092
:020000040000fa
:04029800d00400008e
:020000040000fa
:04029c00d00400008a
:020000040000fa
:0402a000d004000086
:020000040000fa
:0402a400d004000082
:020000040000fa
:0402a800d00400007e
:020000040000fa
:0402ac00d00400007a
:020000040000fa
:0402b000d004000076
:020000040000fa
:0402b400d004000072
:020000040000fa
:0402b800d00400006e
:020000040000fa
:0402bc00d00400006a
:020000040000fa
:0402c000d004000066
:020000040000fa
:0402c400d004000062
:020000040000fa
:0402c800d00400005e
:020000040000fa
:0402cc00d00400005a
:020000040000fa
:0402d000d004000056
:020000040000fa
:0402d400d004000052
:020000040000fa
:0402d800d00400004e
:020000040000fa
:0402dc00d00400004a
:020000040000fa
:0402e000d004000046
:020000040000fa
:0402e400d004000042
:020000040000fa
:0402e800d00400003e
:020000040000fa
:0402ec00d00400003a
:020000040000fa
:0402f000d004000036
:020000040000fa
:0402f400d004000032
:020000040000fa
:0402f800d00400002e
:020000040000fa
:0402fc00d00400002a
:020000040000fa
:04030000d004000025
:020000040000fa
:04030400d004000021
:020000040000fa
:04030800d00400001d
:020000040000fa
:04030c00d004000019
:020000040000fa
:04031000d004000015
:020000040000fa
:04031400d004000011
:020000040000fa
:04031800d00400000d
:020000040000fa
:04031c00d004000009
:020000040000fa
:04032000d004000005
:020000040000fa
:04032400d004000001
:020000040000fa
:04032800d0040000fd
:020000040000fa
:04032c00d0040000f9
:020000040000fa
:04033000d0040000f5
:020000040000fa
:04033400d0040000f1
:020000040000fa
:04033800d0040000ed
:020000040000fa
:04033c00d0040000e9
:020000040000fa
:04034000d0040000e5
:020000040000fa
:04034400d0040000e1
:020000040000fa
:04034800d0040000dd
:020000040000fa
:04034c00d0040000d9
:020000040000fa
:04035000d0040000d5
:020000040000fa
:04035400d0040000d1
:020000040000fa
:04035800d0040000cd
:020000040000fa
:04035c00d0040000c9
:020000040000fa
:04036000d0040000c5
:020000040000fa
:04036400d0040000c1
:020000040000fa
:04036800d0040000bd
:020000040000fa
:04036c00d0040000b9
:020000040000fa
:04037000d0040000b5
:020000040000fa
:04037400d0040000b1
:020000040000fa
:04037800d0040000ad
:020000040000fa
:04037c00d0040000a9
:020000040000fa
:04038000d0040000a5
:020000040000fa
:04038400d0040000a1
:020000040000fa
:04038800d00400009d
:020000040000fa
:04038c00d004000099
:020000040000fa
:04039000d004000095
:020000040000fa
:04039400d004000091
:020000040000fa
:04039800d00400008d
:020000040000fa
:04039c00d004000089
:020000040000fa
:10040000efff0000ffff0000ffff0000ffff000004
:10041000ffff0000ffff0000ffff0000ffff0000e4
:10042000ffff0000ffff0000ffff0000ffff0000d4
:10043000ffff0000ffff0000ffff0000ffef0000d4
:020000040000fa
:100800000f0121000e5f24000e018800000000008f
:10081000000020000000e000020032000001200083
:1008200020028800140007005f0007000000e000bd
:1008300003003a0080de21000100200002003700a2
:100840000000200001002000810f70000100320034
:1008500014000700000020000000e0000200320049
:1008600000000200000000000a1d0200000000005d
:100870000040da000000fe004440a900e00f200024
:100880000000e0000300320000002000a00188000a
:100890004440a800000006008a1f78008b1f7800e3
:1008a0000000060091018800800478000000eb0041
:1008b0001a003700e284440032a0b4009905ba005f
:1008c000e284440032a0b4009906ba00e2844400f5
:1008d00032a0b4000006eb00476fde00fd07b20057
:1008e000636ce10003003a00ebff07000000eb003f
:1008f0000a003700606ce10004003a00005deb0084
:100900008b05e900fdff3e00040037006168e1004f
:10091000010032000086eb000b00070019c7ba0087
:100920001905ba000e04e00003003a000a00e000d6
:10093000e0ff3a0000000600fe07b2009e018800ba
:100940008a047800f5ff3700395dba008b05e900ad
:100950000c003200295dba008b05e9000800320066
:100960000c00e00003003a00e284440032a0b4002e
:10097000f5ff370019ddba008b05e900faff3a00f0
:100980008904e800e184440032a0b40000000600bd
:100990000002040000000000d81c04000000000059
:1009a0000040da000000fe00000005006022b800f0
:1009b000060220000000d0008180d2000482d20014
:1009c0008582d2000000a0000202520083825a00f9
:1009d000030031000202420083824a000000a100ad
:1009e0000603e900f3ff3a0000000600efff0700ee
:1009f0000400be00000006008001780002003700fd
:100a0000b15978000201e9000200e000fcff3a0061
:100a100000000600889fbe008a9fbe008004780008
:100a20000200e0005b00320001407800814c780059
:100a300082814400f1f99f00e20f51005500360019
:100a400091449800a1449800e1f99f00d1f99f00da
:100a5000e60f51004f003600b1449800c1f99f00e5
:100a6000e80f51004b0036000905ea0063056500f8
:100a70000a8444000a055100c1ff2f0001056500ea
:100a80000080fb008000eb001210200013102000fb
:100a900044000700008cbe000a01440060b99f00ba
:100aa00071b99f00e80f55003a0036002004980005
:100ab00031049800400498005104980020b99f0028
:100ac00031b99f0040b99f0051b99f00f80f550000
:100ad000300036006004980071049800000c980003
:100ae000110c9800200c9800310c9800400c9800d4
:100af000510c980020b19f0031b19f0040b19f0080
:100b000051b19f0060b19f0071b19f0000b99f007b
:100b100011b99f006401640078014100020444009f
:100b2000020555006011b8000203be000002be00bd
:100b30000403be006022b8000000720081807200d1
:100b4000020173008381730010003700009cbe0017
:100b50000294be004004980051049800620498007a
:100b600073049800000c9800110c9800220c980057
:100b7000330c9800400c9800510c9800620c9800bf
:100b8000730c98000a02b1000802b000ff0f550074
:100b9000eeff3e00090078004f05be004f04be0086
:100ba00000000600020ab900001bb9000200b800ec
:0c0bb000810042008100430000000600ac
:020000040000fa
:100bbc0004030000090400001403000053000000ab
:100bcc0075000000640000006f0000004d00000084
:100bdc00610000006b000000650000007200000066
:100bec0020030000500000004900000043000000fa
:100bfc006f000000420000006f0000006f0000005a
:100c0c0074000000200000004c0000006f00000089
:100c1c00610000006400000065000000720000002c
:100c2c000403000030000000090200004300000033
:100c3c000201000000c000003209000004000000a6
:100c4c000001000002020000010000000524000069
:100c5c000010000001040000240200000005000048
:100c6c002406000000010000052400000100000023
:100c7c000107000005810000030a000000020000cb
:100c8c000904000001000000020a0000000000003e
:100c9c0000070000050200000240000000000000f8
:100cac000705000082020000400000000000000068
:100cbc001a860000de850000e2850000f685000043
:100ccc001686000000480000e80100000024000027
:100cdc00f400000053750000646f00004d610000cb
:100cec006b6500007200000043610000727400002c
:100cfc00426f00007920000052570000207600005f
:100d0c00320000004d690000637200006f63000048
:100d1c006869000070000000504900004332000078
:100d2c00344600004a3200003536000047420000cd
:100d3c00313000003800000000040000000000000a
:100d4c0000400000000000000060000002000000f5
:100d5c00000200000000000000040000000400007d
:100d6c0000000000ff3f00000000000000a8000091
:100d7c0002000000ffaf000002000000763000000f
:100d8c002e30000032000000ff01000000000000c7
:100d9c00000000000004000002010000000500003b
:0c0dac000911000001040000010000001b
:020000040000fa
:100db8000080fb008181fb000001400002814100ae
:100dc8004311dd0003a020000301410012f0a1003f
:100dd8000104e00004003a000000400041832000c4
:100de800823078000300370000004000618720004f
:100df8008230780012e0a1006401410012e0a000f6
:100e0800000006005141800000c4b300f203200036
:100e1800828f50000e003e0001407800e1802000e3
:100e2800914078000104e00004003a0013c0b300c8
:100e3800e28020000349780005003700e1cf500028
:100e480003003a0023c0b300e28020000349780081
:100e5800a18220000081fb0091081100b1438000ad
:100e680080487800219220008140880081822000fb
:100e780091007800e1806000040032006382200065
:100e88000004e0000c003a00120037000004e00003
:100e98001000320063822000130178008140800036
:100ea80092587800814088008209e8000040e900f3
:100eb800f9ff3a00070037001301780081408000ed
:100ec80092587800814088008209e8000040e900d3
:100ed800f9ff3a000000060000c8b300a191200005
:100ee800914f100033003a0001ccb30080822000fb
:100ef80001487800d091200010407800e24f50005f
:100f080009003200e34f500019003200e14f500051
:100f180026003a00607d240030418800200120002e
:100f28005041880023003700c09120001004e000e1
:100f38000c003a001080fb0000004000e16528002a
:100f48006100780030418800a18220002041900093
:100f580082487800b18220003040900080487800b4
:100f680014003700808220000048eb001100370091
:100f7800c091200031c0b30090cf100008003e009f
:100f88001080fb0000004000016628006100780026
:100f9800304188001080fb00504188000500370070
:100fa800808220000048eb00020037008082200089
:100fb8000048eb00000006000040eb0021922000f2
:100fc800804878003192200080487800a091200065
:100fd800104078007f4060000080fb00e10f500067
:100fe8000b003200e20f50000c0032000000e0005d
:100ff80024003a00808220001070a0000348e2001c
:1010080020003200209220001014a0001d0037009c
:10101800808220001070a0001a0037008082200013
:101028001070a000e09120001004e00007003500d7
:10103800104078006f4060000080fb000000400016
:1010480041832000e100780007003700e09120008c
:10105800104078006f4060000080fb0000004000f6
:1010680061872000e10078000040280091006000be
:10107800808f500003003a0011c0b3002092200076
:1010880001487800000820008182200011006000db
:1010980007003200209220003041880001007800cb
:1010a8001000a00021c0b300a082200001487800f1
:1010b80000000600aa24ab00110032005040800056
:1010c8001041900001c8b300814f51000b003a0055
:1010d800b14380001141900041c8b300814f5100d5
:1010e80006003a00c1c0b30011409800504080008b
:1010f800904090000174a00011409800aa24a90013
:10110800000820005024880000000600881f78008e
:101118006087200090007800110478004e44de00bb
:10112800614464000120a20001087800304080007a
:10113800e80f50000b003a00c09120001080fb001f
:10114800f007b200b02488009604e20003003200e1
:1011580000012000304088000200370040002000d5
:10116800304088000fc8bf00e14f500024003a000b
:1011780021922000b04380001100980021ff070051
:101188000ec8bf00e24f500009003a0060872000f7
:101198009000780042c0b300924098001000780098
:1011a800904090000174a000114098002200370080
:1011b8000804e00009003a006087200090007800e9
:1011c80082c4b300924098001000780090409000cc
:1011d8000174a000114098001700370060872000b4
:1011e8009000780082c0b300924098001000780008
:1011f800904090000174a000114098000e00370044
:10120800e08220001004e0000a003d001083200066
:101218009080fb00208320001080fb004800dd0048
:10122800008070000100320000000100e082200010
:101238001074a1000f68ef004f047800000006004a
:101248000468ef000001eb008200780040072000ee
:10125800b10a07008284a900000120000024880048
:101268000968ef00000006008284a8000001200041
:101278005024880010c0b30004e8b7000968ef00e4
:101288000001eb008200780050072000a20a070046
:1012980000000600889fbe00c091200011c0b30066
:1012a80090cf10000e003a00a09120001040780066
:1012b8007f4060000a003a00808220001070a00081
:1012c800b091200032c0b300904f110003003a00e3
:1012d8000140780003e8b700010037000368ef0019
:1012e800c09120001004e00098003a00a09120006e
:1012f800104078007f406000e24f500093003a00b1
:10130800e0912000104078006f4060008f003200ac
:10131800e091200010407800000220000608e30059
:101328008a003a00808220001070a000e09120001e
:101338001004e0000c00350010417800ef40610017
:101348008180fb0081804000428320006284780015
:10135800104078006f4060000080fb00918f2000f3
:10136800e14478000c003700e0912000104178003b
:10137800ef4061008180fb0081804000628720008f
:1013880062847800104078006f4060000080fb00a5
:10139800818d2000e14478000908a30002003a008a
:1013a8000820a100010037000820a000e0912000db
:1013b8001004e00007003500104078006f4060001e
:1013c8000080fb0000004000418320008830780046
:1013d80007003700e0912000104078006f4060005f
:1013e8000080fb0000004000618720008830780002
:1013f800b091200031c0b30090cf10001a003a001d
:101408001800e00013003d00e09120001004e00007
:1014180008003500104078006f4060000080fb0035
:10142800918f2000614178000214a000827078003a
:1014380008003700e0912000104078006f406000fd
:101448000080fb00818d2000614178000214a0001b
:10145800827078009840900040c8b30000c07000c7
:101468001044980039003700880078000120a20055
:101478001100e00008003d00114090000074a10038
:101488000064a00090409800220020005000200036
:10149800210a070003003700114090000064a000f3
:1014a800904098000918a30002003a001800e000d4
:1014b8001b003d00e09120001004e000080035000a
:1014c800104078006f4060000080fb00918f200082
:1014d800614178000214a10082707800080037008a
:1014e800e0912000104078006f4060000080fb0011
:1014f800818d2000614178000214a100827078007b
:1015080018409000b043b200104498002200200018
:101518008800780050002000ff090700030037000a
:1015280018409000b043b20010449800e0912000a9
:10153800104078006f4060000080fb000000400011
:10154800a14a2000010040001014a1004f04be0071
:1015580000000600808220001070a0000204200015
:101568008000eb00c04a200028fd0700022120006f
:101578008000eb0000a0200024fd07009424a800b0
:10158800708d2000828f2000838f20008040eb0028
:101598000168780001697800830f5000fcff3a0069
:1015a800808b20001f0009000058eb009424a9003c
:1015b80080a02000b043880000a020005040880090
:1015c80060408800c09120001040780008e8b7000b
:1015d8000004e00003003a000001200030408800c9
:1015e80006003700120020008180200002007800e9
:1015f800c9090700000220003040880000000600ea
:10160800a091200001c6b30010c0600043003a005a
:10161800b09120001080fb008000eb00eb0f500021
:10162800e08f58003d003e00006001001e003700ba
:101638001f003700390037001d003700370037001a
:10164800060037000a003700300037000c0037006a
:101658000900370018003700240037008082200076
:101668001070a00080002000304088002b00370058
:1016780019fe070029003700b6ff070027003700ca
:10168800808020003041880080822000900078000f
:1016980013c0b300a2822000034978001108b300e8
:1016a800010878001d00370043fe07001b003700c3
:1016b800f8fe070019003700e09120001081fb00b8
:1016c800818b200060822000010841008082200078
:1016d8009000780013c0b300a2822000034978006c
:1016e8001108b300010878000c0037008082200040
:1016f8001070a000e09120009080fb00808b2000fb
:10170800c291200092707800040037000001eb00bd
:1017180082007800200020007f09070000000600f2
:101728009ec0a9000080eb00702488005024880027
:10173800aa24ef00020420008000eb00c04a200029
:10174800b2fc07002000200030258800a824ef0004
:101758008644a900f00920008024880060248800bd
:1017680082c4a8008804a80000a020004800de0069
:10177800c02488000000eb0003a020006022b8000d
:1017880042082000c200dd00818041008488be003c
:101798000000e800820f5000faff3a009424a800e5
:1017a8009624ef0094a4a9009424a90080002000a6
:1017b800502488008a64ab00fdff3a000040eb002b
:1017c8008182200080487800e182200080487800eb
:1017d800f18220008048780001832000804878004a
:1017e80010c0b30016e8b70017e8b7000268ef00aa
:1017f8000068ef000468ef0045872000248320007c
:10180800738d2000828f20008040eb000000eb00e9
:101818008143780016c2b300802a7800002a780035
:1018280080697800076978008140e80086cf500019
:10183800f9ff3a0080a02000b0438800d0002000c3
:1018480050258800a09120001050880001c4b300e2
:1018580000a020000148780010a0200041c0b3007b
:10186800014878001074a0000868ef001828ef00fd
:101878001a28ef000968ef000628ef0000000600ac
:10188800889fbe008a1f7800004578008144780050
:101898000984fb000838a300030032008040eb00f5
:1018a8000a40780042fd07000828a3000300320020
:1018b80011c0b3000a4078003dfd07000a85fb000f
:1018c8000a054500a04a200009707d004f057800f0
:1018d8004f04be00000006000104e00005003200cd
:1018e8000082fb00040242006587200065027a003e
:1018f800040037000082fb000402420045832000f8
:1019080065027a008002eb000400e0001e0032004d
:1019180012029800034a7800144190000244b20071
:1019280012429800144190000234a000124298001c
:10193800144190000274a000124298000104e000d3
:10194800090032000080fb00618720000000400091
:1019580000814000610078000020a20000097800a2
:1019680084027800080037000080fb0041832000d3
:101978000000400000814000610078000020a200c3
:10198800000978008402780005007800000006004d
:101998000004e00015003a0001c4b3006040800074
:1019a8000148780060408000a19120001100980053
:1019b800c1c0b30011409800604080009040900082
:1019c8000174a00011409800608720009000780002
:1019d80042c0b300924098001000780090409000f8
:1019e8000174a00011409800100037008180fb00ae
:1019f8000080fb0000004000008040004300dd0044
:101a080002a02000820140001342900041c8b300a8
:101a180001427200944198006400400002004000b6
:101a280010419000814071001140980000000600ac
:101a3800889fbe0094a4ab00190032000080fb0010
:101a48000000400061872000e10378001704be0011
:101a580002042000030020000203780083027800bb
:101a680008026100848bbe00610278001404be0085
:101a7800021a6c0003926c00610178000220a20037
:101a880082307800924190000344b20013419800dc
:101a9800610078009040900006c3680016409800e6
:101aa8004f04be00000006001648e2002b003a0072
:101ab80010c0b30016e8b7001748e20027003a0044
:101ac80017e8b7000fc8bf00e24f50000b003a00fc
:101ad80060872000900078008048eb009000780034
:101ae80082c4b300924098001000780090409000a3
:101af8000174a0001140980018003700e14f500011
:101b080016003a001468ef0000c4b300514080008a
:101b18008048780052408000a1912000110198006f
:101b280043c0b30013419800524080009241900096
:101b38000374a0001341980014c0b300438120002f
:101b48008449780062408000004978006040800045
:101b58001100980001c8b300114098000000060069
:101b68005040800090427800f08220001080fb00f6
:101b7800018320009180fb00c808dd00010070008f
:101b88008580fb00808f500001003600804278007d
:101b98008580fb0001005000f18220008048780019
:101ba8004800de0001832000804878000504e0003a
:101bb800100032008000eb00c3822000d282200097
:101bc80027922000f60f20001382fb001280fb00f2
:101bd8004800dd000000720067d878008649600080
:101be8004800de00004978008100e80081cf5200fb
:101bf800f5ff3e00f08220001080fb0001832000ea
:101c08009180fb00c808dd00010070001900320057
:101c180001c4b30060408000014878002192200090
:101c280060408000110098005040800010e8a30038
:101c380008003a0081c4b300604080001140980059
:101c480060408000904090000174a000114098000e
:101c58002100370081c0b300604080001140980027
:101c680060408000904090000174a00011409800ee
:101c78001900370001c4b3006040800001487800b3
:101c880060408000a19120001100980041c0b3007d
:101c98001140980060408000904090000174a000be
:101ca80011409800108320001080fb002183200041
:101cb8009180fb00c808dd000100700001003200bf
:101cc80000000100e08220001074a1000148e20039
:101cd80001003a0074ff0700000006000fc8bf00ab
:101ce800e24f500002003a009dff07001100370044
:101cf8000f68ef001448e2000d003a0001c4b30079
:101d0800604080000148780060408000a191200078
:101d180011009800c1c0b3001140980060408000d5
:101d2800904090000174a000114098000100370015
:101d38001468ef00000006000268ef000068ef007a
:101d48000fc8bf00e24f50000d003a0001c4b300b5
:101d580060408000014878006040800021922000a7
:101d68001100980081c4b3001140980060408000c1
:101d7800904090000174a000114098001c003700aa
:101d8800009220001080fb00119220009180fb003f
:101d9800c808dd0081007000a0822000908f5000ec
:101da80007003100009220009080fb001092200074
:101db8001081fb004811dd00a0822000010871009d
:101dc80010fc070060872000900078002292200015
:101dd800920098009000780082c4b3009240980066
:101de80010007800904090000174a0001140980005
:101df8000000060094a4a9000008200081822000a9
:101e08001100600020003a00e08220001004e00089
:101e180008003d0020c0b3000fe8b7000048e2000a
:101e280001003a00c4ff07001768ef001668ef00ca
:101e38003600370001c4b3006040800001487800d4
:101e480060408000a191200011009800c1c0b3003b
:101e58001140980060408000904090000174a000fc
:101e680011409800608720009000780042c0b300bd
:101e78009240980010007800904090000174a000f3
:101e88001140980021003700a09120001004e000c4
:101e98000b003d0010c0b3000fe8b7000248e20095
:101ea80001003a00a4ff07001768ef001668ef006a
:101eb8000148e20015003a00fbfe07001300370056
:101ec80020c0b3000fe8b70001c4b3006040800031
:101ed8000148780060408000a1912000110098001e
:101ee80041c0b300114098006040800090409000cd
:101ef8000174a000114098001768ef001668ef0001
:101f08000148e20001003a00e7fe07000000060071
:101f18000e68ef000168ef000268ef000068ef004c
:101f28001468ef000f68ef006087200090007800c9
:101f3800114190000274a10092409800900078002e
:101f48000120a20001087800114190000274a1004c
:101f5800924098001020a2006040800090409000bd
:101f68000174a100114098000040eb00818220001c
:101f7800804878008000eb0051418800e282200010
:101f880001497800f1822000804878000183200010
:101f9800804878009afd07000001eb008200780075
:101fa800300020005c07070092ff070000000600d1
:101fb800d0c2b30015e8b700218120009140780015
:101fc80001007800b00fb20015003a00c10fb2004e
:101fd80000a0200080804000514088000100780067
:101fe8000020a2006040880002c0230011016100a7
:101ff80000402300800f510007003a0011009000b4
:10200800a191200007000900b05878008000b100b5
:10201800bfff07000500370030ff07000300370047
:10202800e80f500001003a0038fc070000000600e5
:10203800c0408000d140800061004000e08048003e
:10204800c0408800d14088000448e20004003a00fb
:102058000948ec0009e8b70001003a0009e8ef0078
:1020680000000600889fbe008a1f7800304080006c
:102078000000e00012003a009424ef008c24ef00e6
:102088002000200030258800a824ef008644a900fd
:10209800f0092000802488006024880082c4a800f9
:1020a8009404ab0003003a009404a8009404ab0025
:1020b800fdff320010002000304088000200370089
:1020c800e10f500008003a0094c4ab0006003a0043
:1020d8008aa4ef008c24ef008c04a8008c84a8004c
:1020e80020002000304088008084ab0005003200ca
:1020f8008284ab0003003200000120000024880025
:102108004ffc07008824ab00020032008ec0a900f3
:102118006a0037008a04ab00070032008c04ab0069
:10212800050032007efd0700400020003040880096
:1021380010002000502488008a84ab00030032007d
:102148008c84ab000100320047fc070080c4ab0060
:10215800030032000004200000248800b4ff0700b8
:102168008a44ab000e0032008c44ab0004003200fd
:10217800120020008000eb0030072000e606070070
:10218800400020005024880015c8bf00030032001a
:102198000040e90015e8b70001003a0042fe0700d8
:1021a8008ae4ab00030032008ce4ab00010032008b
:1021b800c0fb07008a24ab00090032008c24ab0066
:1021c80007003200120020008000eb00f0ff27001b
:1021d800d10607008ea4ef002000200050248800bc
:1021e80030408000e30f500002003e008ec0a9007e
:1021f800320037008c64ab002f00320048c0b300b7
:102208008a64ab0004003a002b0037008a64ab00f4
:1022180003003a0028003700998f20008a8d20009b
:102228009124800020812000014878000181fb0072
:102238004411de0002407800024278003381200019
:102248008449780082002000522488000138a300c5
:1022580008003a008080fb0069c17800e141610014
:102268000304a2000204a1000341710082f4780073
:10227800070037008080fb006ac17800e1416100f7
:102288000304a2000204a1000341710002f57800d2
:102298000004e00002003a0045ff07000400370090
:1022a8000001eb0021812000200720009a0607008a
:1022b8000844e900d5ff3a008ec0a9004f05780010
:1022c8004f04be0000000600c0408000d1408000de
:1022d800000006008001eb00810f50000500390066
:1022e8008280400013002000810f50000100390057
:1022f8008001eb000300780000000600217524002f
:10230800114178008281fb002473240000f27900d7
:102318000240e800804878000080fb0000000600ca
:102328000040eb00217524008048780001732400e8
:1023380080487800000006000a00fa00889fbe0066
:102348008a1f7800804478000105780002447800ec
:10235800e84f540004003e000881fb008a00780022
:1023680070805700a2f907000980fb008000eb008d
:1023780061005000e0805800ef0f5000e08f5800d7
:1023880013013e00006001000f0037001400370001
:102398001300370012003700110037001000370013
:1023a800a6003700b0003700ba003700b500370084
:1023b800f0003700f7003700fe003700080037004c
:1023c8000a0037008e003700507d24008ff09700f8
:1023d80001487800b50407000000fe00fc00370043
:1023e800a075240009487800f90037000040eb0088
:1023f80080ff9f003100200020732400b4050700ef
:1024080051732400914f50000300320010c0b300f4
:1024180080ff9f00750037003073240090447800d7
:102428004073240010457800207324001004e00055
:102438004b003a000984fb00c075240000044400e6
:10244800420020000176240008007800a1ff070060
:102458000000e00014003200827924001281fb00a1
:10246800937924009381fb00c819dd0003007100f3
:10247800a27924001281fb00b37924009381fb0028
:10248800c819dd00830071005255250053552500f9
:10249800820f5000838f58004a00320030c0b300ca
:1024a80080ff9f0051003700420020004176240041
:1024b8000800780087ff07000000e00014003200e1
:1024c800c27924001281fb00d37924009381fb0098
:1024d800c819dd0003007100e27924001281fb00b5
:1024e800f37924009381fb00c819dd008300710093
:1024f8005255250053552500820f5000838f5800f0
:102508003200320030c0b30080ff9f003700370030
:102518000201200001782400080078006dff070000
:10252800710320000000e00029003200807b2400b5
:102538001004e00003003a00717c24005004e0001d
:102548000300320030c0b30080ff9f00270037002f
:10255800810f5000f9ff3a00710320001c0037007a
:102568000984fb00c07c2400000444001200200001
:10257800417d24000800780056ff07000000e000b5
:102588000d003a0012002000c17c240008007800e9
:1025980050ff07000000e00007003a00120020008a
:1025a800017d2400080078004aff07009100200000
:1025b8000000e0000600320030c0b30080ff9f003a
:1025c8000a00370071032000010037007103200062
:1025d8008984fb00898f50000300310040c0b3009c
:1025e80080ff9f00010037000a4c7800120020008d
:1025f800e8805700a0602400d30407007400370067
:102608000040eb0080ff9f000ff097000084fb0064
:102618000808a300010032000c0307000818a300f3
:10262800010032002104070012002000e880570052
:10263800a0602400c4040700650037000fb89700a5
:102648009fb897008100d1000080d300a03a8a008b
:10265800b13a8a000881fb008a007800a060240053
:10266800b90407005a0037008fb89700c13a8a00aa
:102678000881fb008a007800a0602400b2040700eb
:1026880053003700a1c0b300a075240001487800aa
:102698004f0037000040eb0080ff9f000ff09700cd
:1026a800e14f50001a003a00c27924001281fb0061
:1026b800d37924009381fb00c819dd000300710061
:1026c800e27924001281fb00f37924009381fb0056
:1026d800c819dd00830071005255250053552500a7
:1026e800820f5000838f58000300320030c0b300bf
:1026f80080ff9f001a00370052358400633584003c
:102708003035840041358400650107001400370026
:102718000004e00012003a0052358400633584005a
:1027280030358400413584005d010700c075240000
:10273800f1ff2f0037000900015878008003b1002d
:10274800f1ceb30001487800c002070011c0b30001
:10275800507d240001487800d40307000000fe00e3
:1027680012002000e8805700a060240076040700cb
:102778001700370040002000e201070080ff9f009b
:1027880012002000e8805700a06024006e040700b3
:102798000f00370080002000da01070080ff9f004b
:1027a80012002000e8805700a0602400660407009b
:1027b8000700370000012000d201070080ff9f00ba
:1027c80012002000e8805700a06024005e04070083
:1027d8004f0578004f04be000080fa000000060094
:1027e8000600fa00881f780000047800e880570087
:1027f800a0602400470407000000e00010003a0031
:1028080001c2b3005fb89700014878004fb897003d
:10281800184878001804e000090032001000200071
:1028280002022000cfb89700d87078001804e000a2
:10283800030032000000e800820f5000f9ff3a0060
:10284800a07524000048eb004f0478000080fa00cf
:1028580000000600ec874700889fbe008a9fbe00e4
:102868008c9fbe008e1f7800a07524001040780051
:102878000004e000ab003200cd82a800e54f500014
:102888001700320006003e00e34f50000e003200f1
:1028980010003e00e24f5000a1003a000700370048
:1028a800ea4f500035003200ee4f5000120032005f
:1028b800e64f50009a003a000c003700406c2800a0
:1028c800c7ff070096003700a0672800c4ff07006d
:1028d8009300370000672800c1ff07009000370009
:1028e80020692800beff07008d0037008068280097
:1028f800bbff07008a003700c03a82000000e000f2
:1029080015003a00209620003f0009000058eb000f
:10291800207324001004e00005003a0021962000ee
:10292800c275240037000900b25878000400370047
:1029380023962000c07c240009000900b0597800c3
:1029480002022000c23a8a0021962000a0602400da
:10295800fd030700720037000202200021982000c2
:10296800a0602400f80307000000eb00c03a8a00ca
:10297800a17524008048780069003700c83a8200b1
:10298800f8805700a0602400e20307000000e00080
:102998005e003a006141b800f2b79f0083bf9f0014
:1029a80000042000800f5100e08f59000400360019
:1029b8000204200003002000f2b79f0083bf9f009d
:1029c8007fb097008fb89700e00f5000e08f580055
:1029d8004b0032002a002000180020006066b80072
:1029e800497524008b7924009e7924001900be00c3
:1029f800840007000000e0000f003a001b81fb0084
:102a08009e81fb00c819dd0003007100a379240032
:102a18001381fb00b37924009381fb00c819dd0002
:102a2800830071005255250053552500820f500030
:102a3800838f58000f003200cfb197000c804100ff
:102a480031c6b3000148780011c6b3004fb09700f3
:102a580001707c0061c6b3004fb0970001707d0023
:102a6800cfb097000880400051c6b30021409800bd
:102a7800130037001900be00b4020700cfb1970059
:102a88000c81410000497800c80ade004809dd00d1
:102a98004802de00040271004fb1970004717c0007
:102aa800400ade00050020004fb1970004717d0048
:102ab800cfb19700088141004808de002041980006
:102ac8002000200001002000990c4000d994480003
:102ad80080752400900078006488500064064600e1
:102ae800e0864e0064044400640545007fb1970009
:102af8008fb997008c0f51008d8f5900bbff3e0096
:102b08005fb09700efe9970003487800c03a820069
:102b18000000e00002003a00a07524000048eb0025
:102b2800cd82a9004f0778004f06be004f05be00b2
:102b38004f04be00cf00b10000000600889fbe0011
:102b48008a9fbe008c9fbe008e1f7800810578008a
:102b58000b00e00026003200800478000004eb003f
:102b68000a732400ac6c28002d7524002e732400f1
:102b780039407800cd82a8001a04e0000c003a0021
:102b88008080fb00ecc078000104e00004003a00fb
:102b98000041eb008000eb00e7fd07001000370064
:102ba800e1cf40000e003200004d78000c003700e5
:102bb800d2fd07009a4178008380fb00ecc07800c2
:102bc8008100fb00810f500005003a001d4178008c
:102bd8008e00780003407800d7fd0700d0fd07007d
:102be800cd82a9000804e800888f5500e0ff3e0068
:102bf8004f0778004f06be004f05be004f04be00c9
:102c080000000600426b2800b20f5000a28f580047
:102c18000500390012002000836b2800b30f500014
:102c2800a38f58000b003600e2358400f33584008a
:102c3800800f5100818f590005003e0012002000ce
:102c4800036c2800b30f5000a38f58000100360012
:102c58000001eb000200780000000600889fbe001b
:102c68000004be004c020700e00f5400e08f5c0037
:102c780009003a0012358400233584000320a0009f
:102c88006000b800610207006011b8002000200051
:102c9800010020005d0207004f04be00000006008e
:102ca800ea874700889fbe008a9fbe008c9fbe00af
:102cb8008e1f7800d0b79f00e1b79f000206be00c4
:102cc800e00f5100e08f5900220032006000b80088
:102cd800f0b79f0081bf9f004e7524009a3584008d
:102ce8008005eb007fb197008fb997005fb297001e
:102cf800efb297000204420083844a00088fbe00a6
:102d08000800be00bfff07000000e00008003a000e
:102d18000a01be000800be0032f70700e00f5000ad
:102d2800e08f580002003a000800be00cbff070001
:102d38007fb097008fb8970062004000e08048009d
:102d4800f0b79f0081bf9f00800f5600818f5e0003
:102d5800e4ff3e006011b800a23a8a00b33a8a0044
:102d68004f0778004f06be004f05be004f04be0057
:102d7800af00b10000000600e6874700889fbe004c
:102d88008a9fbe008c9fbe008e1f78000004be0084
:102d9800020778009bff070041c0b3000000e00075
:102da80051003a009c3584008006eb000c01be00ff
:102db8000800be000bf70700e00f5000e08f580036
:102dc8001d003a000800be00a4ff07007a35840001
:102dd8008b3584000c01be000800be00f1f6070028
:102de800f0b79f0081bf9f000c01be000a00be0023
:102df800ecf607007fb197008fb99700800f51005c
:102e0800818f59000c003a000006eb008d0320006a
:102e18000c007800ff0007000001be000a00be0099
:102e2800fa0107000c86e80062054500e0854d00c0
:102e38008d0f5600f6ff3a008040eb00e00f54007b
:102e4800e08f5c0028003200e20f5400e08f5c0045
:102e5800250032000800be00de0007008040eb00bd
:102e68000000e00020003a001e80fb008000eb001c
:102e78001e4190000281fb008001eb00481ddd002f
:102e8800c815de008b0575004815dd002e41900041
:102e98008281fb0002002000020575008385750011
:102ea80000057500818575003e409000c800dd0072
:102eb8000000200000057500818575000a01be002c
:102ec8000800be00d10107000800be009f010700ee
:102ed8000001be0021c0b3008a0f51008b8f59003a
:102ee80001003a008040eb00014078004f0778006d
:102ef8004f06be004f05be004f04be006f00b10074
:102f080000000600889fbe008a9fbe00000578006a
:102f1800c07924001080fb00d17924009180fb0047
:102f2800c808dd0001017000e07924001080fb0072
:102f3800f17924009180fb00c808dd008101700050
:102f480030c0b3005455250055552500840f510055
:102f5800858f59001e003a008a00780020732400eb
:102f6800db020700004178000a80e80001732400b2
:102f7800e140780010c0b300814f510014003a00be
:102f88000040eb000a00e000110032000004eb00f2
:102f98002b73240049752400088145001900be00e0
:102fa80075ff07000004e00002003200e44f500003
:102fb80007003a002200200003002000990c41007d
:102fc800d994490064044400880f5500f2ff3e007c
:102fd8004f05be004f04be0000000600881f7800a1
:102fe800000478004103200008007800cd020700a3
:102ff800407498004801de0052749800617498008b
:103008004808de00707498004f047800000006003d
:10301800889fbe00c07090008180fb0050719000b6
:103028004811dd0002847000e07090008180fb0090
:10303800707190004811dd00828470004103200007
:10304800b802070000046c0081846c0008847400d6
:1030580008f0a7000804ea000800ea004f00de00b4
:103068004f04be0000000600889fbe008a1f78003b
:103078007035840081358400a03a8a00b13a8a000c
:10308800c87524004a792400497524001900be0037
:103098002e010700004c78004809dd004800de00da
:1030a80000007100c808de001044980020002000cd
:1030b80001002000990c4000d99448000884e800d9
:1030c8008a0f5400f1ff3a006000b800a03a8a0065
:1030d800b13a8a00c0752400f1ceb30090cf100039
:1030e80020003a0011c0b300014878000041eb000d
:1030f800d175240082487800e17524008248780060
:1031080051c5b30003762400814978001376240062
:103118008149780023762400814978003376240099
:103128008149780043762400814978005376240049
:1031380081497800637624008149780073762400f9
:1031480081497800817624008248780081772400bc
:1031580082487800027824000f0009000059eb002b
:103168009eff0700c0752400a9ff07000000e000cb
:1031780011003200a0cab30001762400804878000c
:103188001176240080487800217624008048780051
:103198003176240080487800417624008048780001
:1031a80051762400804878006176240080487800b1
:1031b800717624008048780040792400c175240085
:1031c80037000900315878004f0578004f04be00d9
:1031d800000006000001be007435840085358400b7
:1031e8008000eb00820f5200838f5a0007003e00d8
:1031f8008403b0000580b00011002000840f510046
:10320800858f5900010039008000eb00010078002b
:1032180000000600c1752400010040001042900023
:103228000482fb008002eb004829dd00c821de0093
:10323800830171004821dd001080fb008000eb0055
:103248000000710081807100000006000800fa008b
:10325800889fbe008a9fbe008c9fbe000f0f78001b
:10326800983584008800d100110798007a358400c9
:103278008b3584006141b8000a00be00c9f507001b
:103288000889b9000804b80089044100a83a8a00ee
:10329800b93a8a001e0190004210dd000080e80063
:1032a800808747001e0078000200e0003a003200e4
:1032b80020079800300798000006eb004d752400a1
:1032c8001d00be00a10007003e0190000099be004d
:1032d8003207980020002000010020009d0e4000c9
:1032e800dd9648000c06e8009e0090008c8f500088
:1032f800f3ff3e000800be00a7000700c0752400c9
:1033080036ff0700a83a8a00b93a8a000006eb009f
:103318004d7524001d04be000800be00adff070067
:103328000000e000040032000a005400b9ff070062
:103338000001be00020037002e0090001001be0000
:103348000800be00b1000700200020000100200096
:103358009d0e4000dd9648000c06e800ae00900087
:10336800e4804000210798001e0190008c0f510056
:10337800e8ff3e006000b800a03a8a00b13a8a002f
:103388009e0778004f06be004f05be004f04be00e2
:103398000080fa00000006000800be007e0007005a
:1033a800c07524000dff0700f2ff3700c422ef00ac
:1033b800cc22ef00d422ef00dc22ef00e422ef0061
:1033c800ec22ef00f422ef0000602c0000168800c9
:1033d800f07f2c0040168800a00027008016880087
:1033e800d822ef00003020000017880000122000cb
:1033f80040178800f03c2000801788005420ef0018
:103408005620ef005820ef005a20ef005c20ef0014
:103418006c20ef006c40a8006e20ef007020ef00d9
:103428007220ef007420ef002a23ef0030002700fd
:10343800601988000000060000102300203a880068
:103448004827ef007027ef007227ef007427ef007e
:103458007627ef007827ef007a27ef00a1092000f0
:103468003200200080072000337420008049780053
:1034780081497800824978007105200012002000f7
:103488006004200023742000804978008149780076
:10349800824978000000eb0004202000030220008d
:1034a800e4407800e1806000cc08dd00621680000e
:1034b80002c0a1000281700062168800cd82a900b6
:1034c8000000e800830f5000f5ff3a004207ab0008
:1034d800feff3a0001022000123a800002806000dc
:1034e800fdff320000000600a0002000ee010700ea
:1034f800507d240011c0b30090cf100003003a00a3
:103508000048eb00100020000f003700e075240091
:10351800104078000004e000080032000081fb0041
:103528008001eb0010002000843e8200953e82005e
:10353800820f5200838f5a0003003100501680001a
:10354800610060000000a2000000060024032000c3
:10355800144278004009de0003002000024378008e
:1035680025032000864a78001001ba008001eb008c
:103578001080ba0084427800210320008548780032
:103588008000eb00c000dd00000020000200700099
:10359800838070000000060022042400023b88009b
:1035a8002203200012417800400ade0005002000b6
:1035b8000443780023032000864978008001eb004b
:1035c8000308bb000400fc00000e20004220b700e6
:1035d80050052000303b8800a00a2000303b8800be
:1035e80061e7a800000000000000000001002800ba
:1035f800033b800003806000fdff3a000240780032
:1036080032e0b70061c7a90000000600881f7800f3
:1036180034002400043b880024032000144278006e
:10362800400bde0007002000064478002503200038
:10363800884a78000208bb008380fb000188bb0031
:103648000400fc00000e20004220b70050052000b6
:10365800303b8800a00a2000303b880061e7a800c2
:10366800000000000000000001002800023b80006c
:1036780002806000fdff3a00044478002503200022
:10368800884a780061c7a9004f0478000000060046
:10369800f05f2400c17c240092602400d058780098
:1036a800820f5000fdff3a0000000600c07c240095
:1036b800f15f2400627d2400b0687800820f50001a
:1036c800fdff3a0000000600889fbe009200090036
:1036d8000018eb006012b1000600e000070032009d
:1036e8001604be005800990069009900260490004d
:1036f800b6049000780099000908990041009900e3
:1037080022509a0033509a0044509a0055509a001b
:103718004f04be0000000600881f780000047800ef
:1037280058509200d1c1b30055f807005850920084
:1037380003c4b300080178008040eb0066f8070076
:10374800101499000000eb00001499004f04780051
:1037580000000600a191200091407800ffc06000a1
:10376800e1cf500019003a00a191200003c6b30030
:1037780011c1610001c2b300814f510013003a002a
:10378800a0509200e291200092cf10000400320075
:103798003050920082007800914f10000b003a00e0
:1037a800b091200011c0b30090cf100007003e0078
:1037b800807e24003041880080002000504188002d
:1037c80001ccb30080822000014878000000060088
:1037d800889fbe008a1f78000004780018109100a6
:1037e8000000e000020032001000e0001b0035007d
:1037f800e8449200104578000941e8006141610001
:1038080062449a000281fb004611dd000201440077
:103818005850920003c4b3008040eb002ef8070014
:10382800101499000980fb00000044000a40990028
:103838008040eb0021409900d80191000300e0008e
:10384800060032000a81fb008980fb00c608dd0003
:103858008100440048009100030001004f057800f2
:103868004f04be0000000600881f7800000478009e
:10387800881091000100e0000300320020c0b3006e
:103888001100e00019003500f84092000180fb00ab
:103898004010b000e84178000040eb000304e0006d
:1038a8001200320042082000080141008180fb001c
:1038b800c608dd00010141005850920011c0b30054
:1038c80005f8070000149900784092000040e800cd
:1038d8006140600070449a000080fb0000044400ce
:1038e8000040eb0040449a0010c0b3004f04780039
:1038f80000000600881f780000047800080078009f
:10390800d9ff070008007800b1ff07004f047800ce
:1039180000000600430820008081410070419200a9
:103928000281fb004611dd0082884100704192004f
:103938000281fb004210b000020040009000980095
:103948000000eb00000006000600fa00889fbe0099
:103958008104780002047800ea805700edff070030
:10396800800078000080eb00808f50000b00320050
:1039780000042000800f5400010036000004780085
:1039880008017800890078003fb8970018f407000c
:103998004fb8970008487800080078004f04be0028
:1039a8000080fa000000060001007800820078001c
:1039b80062fc0700000006002408ec002041880093
:1039c800f1112600810f5000010036002428ef0075
:1039d800204180004401de00414922000111b80065
:1039e800b13929000100b8004608de00034068002c
:1039f800610060004c00dd006116800001c0a1007c
:103a0800810070006116880000000600881f780099
:103a180066fe07004007ab00020032004007a9001d
:103a2800110037001aff0700c07c24001200200094
:103a380003002000100841005090490011c0b30055
:103a4800407d2400014878004087ab000600320022
:103a58004087a90021c0b30001487800007d2400f8
:103a680010084100509049007ffd07009efe0700a6
:103a7800000478000dff07000800e00005003a0088
:103a880030358400ae000700100020004f04780095
:103a98000000060068fe0700c681200025c0b300ac
:103aa80014c0b300844178000041eb008000eb00b3
:103ab800a060240004ff07006b000700a2000700b5
:103ac80068f9070070000700bbff0700fbff37001d
:103ad80000c1eb000100e000100032000002eb0022
:103ae8008600200015c3b3003041690086017800c4
:103af8000204e00003003d00024141000541690065
:103b080001003700024141008301e900f8ff3a0053
:103b18000402e800848f5000f3ff3e000240780062
:103b280000000600889fbe008a9fbe008c9fbe00d2
:103b380000037800010643000080eb008080eb0062
:103b48008c0f53001a0031000080eb008080eb00de
:103b58008d0020000832280089db2e0088057800b7
:103b6800090578003684fb008004eb000800680033
:103b7800898068008d0378008104d1000084d30017
:103b88008001eb006101600060001100e080190015
:103b9800810265000082650008006a0089806a0069
:103ba8008703e900f4ff3a00860f5600edff3e0058
:103bb8000080ea008180ea004f06be004f05be0083
:083bc8004f04be0000000600de
:020000040000fa
:103bd000e847000008000000000000002608000080
:103be0003c01000000000000000800001c00000074
:103bf00000000000000a00001002000000000000a9
:103c0000d647000012000000020000001201000070
:103c100002ef02000140d8000466e9000100010043
:103c20000203010030470000a60000000000000071
:103c30006209000040000000000000000a46000089
:103c400026010000000000001c0800000800000021
:103c500002000000d81c000000000000000000006e
:103c60002408000002000000000000000000000026
:020000040000fa
:103c7000adf6070000000600a0602400a8fe0700c3
:103c800000000600a0602400b4fe0700000006004b
:103c900030408000ff0f5000040036008824ab0045
:103ca00002003a00a060240014ff07000000060094
:103cb000881f78008a9fbe00000478000800e0009a
:103cc000060032000ae823000b0020000a00be00b4
:103cd000050007000804e900fcff3a004f05be009c
:083ce0004f047800000006000b
:020000040000fa
:103ce800f03fb1000180b10006003500ee03090085
:103cf80000000000403fb1000180b100fbff3d0023
:103d08001000b000203fb00002003500008009001c
:083d180000000000000006009d
:020000040000fa
:103d2000e10f500003003200e30f500004003a009e
:103d300002003700d0ff070001003700d1ff070065
:103d400010c0b300000006000040010000000600a3
:083d5000c2fa070000000600a2
:020000040000fa
:020000040005f5
:0457f400ffff0000b3
:020000040000fa
:020000040005f5
:0457f8004d10000050
:020000040000fa
:020000040005f5
:0457fc007f1e00000c
:00000001FF
